:0200000490006A
:10000000000008247D370090DD330090DF3300903E
:10001000E1330090E3330090E533009000000000EE
:10002000000000000000000000000000E733009026
:10003000E933009000000000EB330090ED330090B6
:10004000CD370090CD370090CD370090CD37009060
:10005000CD370090CD370090CD370090CD37009050
:10006000CD370090CD370090F533009001340090EB
:1000700011340090CD370090CD370090CD370090EF
:10008000CD370090CD370090CD370090CD37009020
:10009000CD370090CD370090CD370090CD37009010
:1000A000CD370090CD370090CD370090CD37009000
:1000B000CD370090CD370090CD370090CD370090F0
:1000C000CD370090CD370090CD370090CD370090E0
:1000D000CD370090CD370090CD370090CD370090D0
:1000E000CD370090CD37009000000000CD37009054
:1000F000CD370090CD370090CD370090CD370090B0
:10010000CD37009021340090CD370090CD3700904E
:1001100031340090CD370090CD370090CD3700902E
:10012000CD370090CD370090CD370090CD3700907F
:10013000CD370090CD370090CD370090CD3700906F
:1001400000000000000000000000000000000000AF
:10015000CD370090CD370090CD370090CD3700904F
:10016000CD370090CD370090CD370090CD3700903F
:10017000CD370090CD370090CD370090CD3700902F
:10018000CD370090CD370090CD370090CD3700901F
:10019000CD370090CD370090CD370090CD3700900F
:1001A000CD370090CD370090CD370090CD370090FF
:1001B000CD370090CD370090CD370090CD370090EF
:1001C000CD370090CD370090CD370090CD370090DF
:1001D000CD370090CD370090CD370090CD370090CF
:1001E000CD370090CD370090CD370090CD370090BF
:1001F000CD370090CD370090CD370090CD370090AF
:10020000CD370090CD370090CD370090CD3700909E
:10021000CD370090CD370090CD370090CD3700908E
:10022000CD370090CD370090CD3700900000000012
:10023000CD370090CD37009000000000CD37009002
:10024000CD370090CD370090CD370090CD3700905E
:10025000CD370090CD370090CD370090CD3700904E
:10026000CD370090CD370090CD370090CD3700903E
:10027000CD370090CD370090CD37009000000000C2
:10028000CD370090CD370090CD37009000000000B2
:0802900000000000CD370090D2
:1002C0000348044B834202D0034B03B118477047E5
:1002D0005408002454080024000000000548064982
:1002E0000B1AD90F01EBA301491002D0034B03B144
:1002F00018477047540800245408002400000000E8
:1003000010B5064C237843B9FFF7DAFF044B13B15D
:100310000448AFF300800123237010BD540800246B
:100320000000000040A6009008B5044B1BB1044932
:100330000448AFF30080BDE80840CFE700000000AC
:100340005808002440A6009080F0004002E000BF62
:1003500081F0004142001FBF5FEA410392EA030FB0
:100360007FEA226C7FEA236C6AD04FEA1262D2EBFA
:100370001363C1BFD218414048404140B8BF5B42FF
:10038000192B88BF704710F0004F40F4000020F098
:100390007F4018BF404211F0004F41F4000121F0AE
:1003A0007F4118BF494292EA030F3FD0A2F10102F8
:1003B00041FA03FC10EB0C00C3F1200301FA03F136
:1003C00000F0004302D5494260EB4000B0F5000F59
:1003D00013D3B0F1807F06D340084FEA310102F118
:1003E0000102FE2A51D2B1F1004F40EBC25008BFCA
:1003F00020F0010040EA03007047490040EB000094
:10040000013A28BFB0F5000FEDD2B0FA80FCACF194
:10041000080CB2EB0C0200FA0CF0AABF00EBC250C1
:1004200052421843BCBFD0401843704792F0000FAF
:1004300081F4000106BF80F400000132013BB5E702
:100440004FEA41037FEA226C18BF7FEA236C21D078
:1004500092EA030F04D092F0000F08BF08467047DD
:1004600090EA010F1CBF0020704712F07F4F04D1AB
:10047000400028BF40F00040704712F100723CBFBE
:1004800000F50000704700F0004343F0FE4040F4E8
:10049000000070477FEA226216BF08467FEA2363A6
:1004A0000146420206BF5FEA412390EA010F40F491
:1004B000800070474FF0000304E000BF10F00043DD
:1004C00048BF40425FEA000C08BF704743F09643C4
:1004D00001464FF000001CE050EA010208BF7047DF
:1004E0004FF000030AE000BF50EA010208BF704766
:1004F00011F0004302D5404261EB41015FEA010C7B
:1005000002BF84460146002043F0B64308BFA3F172
:100510008053A3F50003BCFA8CF2083AA3EBC25354
:1005200010DB01FA02FC634400FA02FCC2F1200273
:10053000BCF1004F20FA02F243EB020008BF20F0AA
:100540000100704702F1200201FA02FCC2F1200210
:1005500050EA4C0021FA02F243EB020008BF20EA05
:10056000DC7070474FF0FF0C1CEAD0521EBF1CEA33
:10057000D15392EA0C0F93EA0C0F6FD01A4480EA21
:10058000010C400218BF5FEA41211ED04FF000630A
:1005900043EA501043EA5111A0FB01310CF0004036
:1005A000B1F5000F3EBF490041EAD3715B0040EA5C
:1005B000010062F17F02FD2A1DD8B3F1004F40EB2C
:1005C000C25008BF20F00100704790F0000F0CF0FF
:1005D000004C08BF49024CEA502040EA51207F3AC3
:1005E000C2BFD2F1FF0340EAC250704740F400009E
:1005F0004FF00003013A5DDC12F1190FDCBF00F08F
:1006000000407047C2F10002410021FA02F1C2F13C
:10061000200200FA02FC5FEA310040F1000053EAD8
:100620004C0308BF20EADC70704792F0000F00F026
:10063000004C02BF400010F4000F013AF9D040EA2C
:100640000C0093F0000F01F0004C02BF490011F4C0
:10065000000F013BF9D041EA0C018FE70CEAD153BE
:1006600092EA0C0F18BF93EA0C0F0AD030F0004C3E
:1006700018BF31F0004CD8D180EA010000F00040F2
:10068000704790F0000F17BF90F0004F084691F0B0
:10069000000F91F0004F14D092EA0C0F01D14202EA
:1006A0000FD193EA0C0F03D14B0218BF084608D1B3
:1006B00080EA010000F0004040F0FE4040F40000FD
:1006C000704740F0FE4040F4400070474FF0FF0C90
:1006D0001CEAD0521EBF1CEAD15392EA0C0F93EAD7
:1006E0000C0F69D0A2EB030280EA010C49024FEA29
:1006F000402037D04FF0805343EA111143EA1013E2
:100700000CF000408B4238BF5B0042F17D024FF499
:10071000000C8B4224BF5B1A40EA0C00B3EB510F74
:1007200024BFA3EB510340EA5C00B3EB910F24BF5D
:10073000A3EB910340EA9C00B3EBD10F24BFA3EBE2
:10074000D10340EADC001B0118BF5FEA1C1CE0D1AA
:10075000FD2A3FF650AF8B4240EBC25008BF20F05D
:10076000010070470CF0004C4CEA50207F32C2BFB1
:10077000D2F1FF0340EAC250704740F400004FF04E
:100780000003013A37E792F0000F00F0004C02BF7F
:10079000400010F4000F013AF9D040EA0C0093F049
:1007A000000F01F0004C02BF490011F4000F013BA3
:1007B000F9D041EA0C0195E70CEAD15392EA0C0F0B
:1007C00008D142027FF47DAF93EA0C0F7FF470AF43
:1007D000084676E793EA0C0F04D14B023FF44CAF86
:1007E00008466EE730F0004C18BF31F0004CCAD11B
:1007F00030F000427FF45CAF31F000437FF43CAF57
:100800005FE700BF42000ED2B2F1FE4F0BD34FF0B4
:100810009E03B3EB126209D44FEA002343F0004376
:1008200023FA02F070474FF00000704712F1610F99
:1008300001D1420202D14FF0FF3070474FF000006B
:10084000704700BF53B94AB9002908BF00281CBF30
:100850004FF0FF314FF0FF3000F074B9ADF1080CEC
:100860006DE904CE00F006F8DDF804E0DDE90223CE
:1008700004B070472DE9F047089E0D4604468846AF
:10088000002B4DD18A42944668D9B2FA82F252B115
:1008900001FA02F3C2F1200120FA01F10CFA02FC84
:1008A00041EA030894404FEA1C45210CB8FBF5FED1
:1008B0001FFA8CF705FB1E8341EA03430EFB07F189
:1008C00099420BD91CEB03030EF1FF3080F01E811F
:1008D000994240F21B81AEF1020E63445B1AA4B24E
:1008E000B3FBF5F005FB103344EA034400FB07F7C4
:1008F000A7420AD91CEB040400F1FF3380F0088101
:10090000A74240F2058164440238E41B40EA0E40ED
:1009100000211EB1D4400023C6E90043BDE8F087A2
:100920008B4208D9002E00F0EE800021C6E90005B8
:100930000846BDE8F087B3FA83F100294AD1AB42FB
:1009400002D3824200F2F980841A65EB030301208E
:100950009846002EE2D0C6E90048DFE702B9FFDE84
:10096000B2FA82F2002A40F09180A1EB0C054FEA26
:100970001C471FFA8CFE0121B5FBF7F307FB135050
:10098000250C45EA00450EFB03F0A84208D91CEBF4
:10099000050503F1FF3802D2A84200F2CB8043469E
:1009A0002D1AA4B2B5FBF7F007FB105544EA054435
:1009B0000EFB00FEA64508D91CEB040400F1FF3530
:1009C00002D2A64500F2BB802846A4EB0E0440EA02
:1009D00003409EE7C1F120078B4022FA07FC4CEA56
:1009E000030C20FA07F405FA01F31C43FD404FEA1B
:1009F0001C4900FA01F3B5FBF9F8200C1FFA8CFE34
:100A000009FB185540EA054508FB0EF0A84202FA1A
:100A100001F20BD91CEB050508F1FF3A80F0888044
:100A2000A84240F28580A8F1020865442D1AA4B2BC
:100A3000B5FBF9F009FB105544EA054500FB0EFE35
:100A4000AE4508D91CEB050500F1FF346CD2AE456C
:100A50006AD90238654440EA0840A0FB0294A5EB3D
:100A60000E05A542C846A64656D353D05EB1B3EB99
:100A7000080265EB0E0505FA07F722FA01F3CD40EF
:100A80001F43C6E900750021BDE8F087C2F12003CD
:100A900020FA03F10CFA02FC25FA03F395400D430A
:100AA0004FEA1C471FFA8CFEB3FBF7F107FB11302E
:100AB0002B0C43EA004301FB0EF0984204FA02F4C7
:100AC00008D91CEB030301F1FF382FD298422DD92E
:100AD000023963441B1AADB2B3FBF7F007FB1033C6
:100AE00045EA034500FB0EF3AB4208D91CEB0505B4
:100AF00000F1FF3816D2AB4214D902386544ED1A22
:100B000040EA014138E73146304607E78646E5E6E8
:100B10001846FAE64B45A9D2B9EB020864EB0C0E75
:100B20000138A3E74046EAE7204694E74146D1E78B
:100B3000D0467BE7023B654432E7084609E7644458
:100B4000023842E7704700BF002301461A461846A4
:100B500000F0AEB9014B1868704700BF00000024D8
:100B600038B5084B084D5B1B9C1007D0043B1D4457
:100B7000013C55F804399847002CF9D1BDE83840BC
:100B800009F064BDD8A60090D4A6009070B50D4EB3
:100B90000D4D761BB61006D0002455F8043B0134E9
:100BA0009847A642F9D1094E094D761B09F048FD38
:100BB000B61006D0002455F8043B01349847A642ED
:100BC000F9D170BDCCA60090CCA60090D4A6009020
:100BD000CCA60090830730B548D0541E002A3FD0E1
:100BE000CAB2034601E0013C3AD303F8012B9D074A
:100BF000F9D1032C2DD9CDB245EA05250F2C45EAB4
:100C0000054536D9A4F1100222F00F0C03F1200E95
:100C1000E6444FEA121C03F1100242E9045542E98E
:100C2000025510327245F8D10CF1010214F00C0F8C
:100C300003EB021204F00F0C13D0ACF1040323F009
:100C400003030433134442F8045B9342FBD10CF0DA
:100C500003042CB1CAB21C4403F8012B9C42FBD103
:100C600030BD64461346002CF4D1F9E70346144620
:100C7000BFE71A46A446E0E770B5044688B00846C8
:100C80000D4600F03DF8154EA26B0590012143186A
:100C9000CDE9066104A8022104950393A56801909B
:100CA0000291B2B1B5F90C309A0406D46A6E43F4DD
:100CB000005322F40052AB816A6601AA29462046FD
:100CC00000F05AFC002814BF4FF0FF300A2008B093
:100CD00070BD204600F0DAFAE4E700BFC0A600903D
:100CE000024B01461868FFF7C7BF00BF0000002491
:100CF00000000000000000000000000000000000F4
:100D000090F800F06DE9024520F007016FF0000C4B
:100D100010F0070491F820F040F049804FF00004F3
:100D20006FF00700D1E9002391F840F000F10800CE
:100D300082FA4CF2A4FA8CF283FA4CF3A2FA8CF306
:100D40004BBBD1E9022382FA4CF200F10800A4FA6D
:100D50008CF283FA4CF3A2FA8CF3E3B9D1E90423C1
:100D600082FA4CF200F10800A4FA8CF283FA4CF3F8
:100D7000A2FA8CF37BB9D1E9062301F1200182FAB2
:100D80004CF200F10800A4FA8CF283FA4CF3A2FAB8
:100D90008CF3002BC6D0002A04BF04301A4612BAC6
:100DA000B2FA82F2FDE8024500EBD2007047D1E9C9
:100DB000002304F00305C4F100004FEAC50514F058
:100DC000040F91F840F00CFA05F562EA05021CBF29
:100DD00063EA050362464FF00004A9E738B5334BD8
:100DE0001B6805460C460BB19A6B12B3B4F90C3074
:100DF00018079AB225D5216900292DD012F00100DB
:100E000007D00020A06060694042A06139B1002095
:100E100038BD950758BF6069A0600029F7D1120658
:100E200058BF0846F4D543F04003A3814FF0FF308C
:100E300038BD184600F02AFAB4F90C3018079AB2F7
:100E4000D9D4D1062AD5520714D4216943F0080316
:100E5000A3819AB20029D1D102F42070B0F5007FAD
:100E6000CCD02146284600F03FFDB4F90C30216972
:100E70009AB2C3E7216B51B104F14002914204D010
:100E8000284600F073FAB4F90C300022226321697D
:100E90000022C4E9001223F02403D7E7092243F01B
:100EA00040032A604FF0FF30A38138BD00000024CA
:100EB00070B4184C2568D5F848411CB365681F2DDF
:100EC00025DC38B9AB1C0135656044F823100020DF
:100ED00070BC704704EB850C0228CCF88820D4F84D
:100EE00088614FF0010202FA05F246EA0206C4F8F0
:100EF0008861CCF80831E5D1D4F88C311343C4F8BB
:100F00008C31DFE705F5A674C5F84841D6E74FF008
:100F1000FF30DDE758A60090B1F90C20F8B50C467B
:100F20001107074642D4636842F40062002BA28195
:100F300059DDA56A002D54D000233E683B6093B272
:100F400012F4805253D1E16901233846A847421C6C
:100F500063D0A389A56A5B0705D56368C01A236BB4
:100F60000BB1E36BC01AE169024600233846A8477B
:100F7000411C3ED13B68002B3BD01D2B01D0162BD2
:100F800052D1A3892269226023F4006300216160A9
:100F9000A381216B3E6021B304F14003994202D04A
:100FA000384600F0E3F900202063F8BD2669C6B199
:100FB00093B2256826609A070CBF63690023AD1BB6
:100FC000A3600CE0D4F824C0E1692B4632463846D1
:100FD000E047B0F1000CA5EB0C05664416DD002DD2
:100FE000F0DC0020F8BDE36B002BA2DCF9E7206DFC
:100FF000B1E7B4F90C302269226023F40063A381C5
:101000000022DB046260C4D52065C2E7A38943F0F7
:1010100040034FF0FF30A381F8BD3B68002B98D010
:101020001D2B06D0162B04D0A38943F04003A381C7
:10103000F8BD3E60D5E700BF38B50D46044608B19F
:10104000836B1BB1B5F90C0030B938BD00F01EF947
:10105000B5F90C000028F8D029462046BDE83840F4
:10106000FFF75ABF38B5B8B10F4B1D6804460DB134
:10107000AB6B4BB1B4F90C0000B938BD2146284622
:10108000BDE83840FFF748BF284600F0FFF8B4F944
:101090000C000028F1D0F1E7044B05491868BDE8C1
:1010A000384000F0FDBB00BF0000002458A60090AF
:1010B0003910009000207047014900F0F1BB00BFDB
:1010C00095270090002070472DE9F84F2D4A46687B
:1010D000C26300240323C0E9B843074600F53B720E
:1010E0000423C0F8E8222146C6E902430822C6E9E3
:1010F0000044C6E904447466B46106F15C00FFF77D
:1011000069FDDFF884B0BD68DFF880A0DFF880906B
:10111000DFF88080204BC6F824A0C6E9076BC6F82C
:101120002890C6F82C800822EB60C5E90044C5E988
:1011300004446C66AC60AC61214605F15C00FFF7CD
:1011400049FDC5E9075BC5E909A9C5F82C80FD681B
:10115000124BEB60C5E90044C5E904446C66AC6021
:10116000AC612146082205F15C00FFF733FD012345
:10117000C5E9075BC5E90A98C5F824A0BB63BDE8CB
:10118000F88F00BFB910009051260090792600908A
:10119000B9260090D9260090090001001200020033
:1011A00070B568224D1E02FB05F50E4605F174016F
:1011B00000F03AFC044640B100210C30C4E90016AE
:1011C000A06005F16802FFF705FD204670BD00BF75
:1011D000274B2DE9F0411E68B36B07465BB306F55C
:1011E00038764FF00408D6E90134013B04D51EE0FF
:1011F0005A1C04F168041AD0B4F90C50013B002DBC
:10120000F6D11C4B6566C4E90055C4E90253C4E934
:101210000455A5610822294604F15C00FFF7DAFCB9
:10122000C4E90C55C4E911552046BDE8F081356884
:101230002DB12E46D7E73046FFF746FFCFE74FF4F4
:10124000D671384600F0F0FB044668B10560C0F87E
:1012500004800C302946A06025464FF4D072FFF779
:10126000B9FC34602E46BEE70C2330603B60DBE700
:1012700058A600900100FFFF024B0349186800F0D8
:101280000FBB00BF58A6009095270090836B03B159
:10129000704719E7704700BF704700BF704700BF35
:1012A000704700BF024B0349186800F0D9BA00BF6D
:1012B00000000024B5100090024B0349186800F0AC
:1012C000CFBA00BF00000024C5100090F8B5244F2D
:1012D0000C46064600F0BAFFBA685568C4F57E634E
:1012E0000F3325F003052B4423F47F6323F00F0312
:1012F000A3F58054B4F5805F07DB0021304601F090
:1013000095F9BB682B44984204D0304600F0A0FF0A
:101310000020F8BD6142304601F088F901300DD05F
:10132000104ABB682D1B45F001055D60136830460F
:101330001B1B136000F08CFF0120F8BD002130461C
:1013400001F074F9BA68831A0F2BDEDD43F0010354
:101350005360054B03491B68C01A0860D5E700BFFE
:10136000300400247408002438080024002961D0C7
:10137000F8B50C46064600F069FF54F8042C7B4F84
:10138000A4F1080522F0010105EB010CB868DCF8B6
:101390000430604523F0030300F08B80D207CCF8C3
:1013A000043032D454F8082CAD1A1144AA6807F15D
:1013B000080082426AD00CEB0304D4F804E0EC6825
:1013C000D4601EF0010FA26000F0978041F001038D
:1013D0006B60CCF80010B1F5007F35D27A68CB088D
:1013E00048090121013381401143796007EBC302B1
:1013F00057F83310083AC5E9021247F83350CD6068
:101400003046BDE8F84000F023BF0CEB0302526801
:10141000D00710D4194407F10800DCF808308342E3
:1014200073D0DCF80C20DA60936041F001036B604C
:101430006950D0E7704741F00103B1F5007F44F8EF
:10144000043CCCF80010C9D3B1F5206F4FEA51230A
:1014500048D28B0903F1390003F13802C300F818B0
:10146000FB580838984259D05A6822F003028A4241
:1014700002D99B689842F7D1D868C5E902308560E7
:10148000DD603046BDE8F84000F0E2BE0CEB030240
:101490005268D20763D40B44DCE90212CA6091603F
:1014A00043F001026A603046EB50BDE8F84000F0BE
:1014B000CFBE0B44D10707D454F8082CAD1A1344FF
:1014C000D5E90212CA60916043F001026A60284ABD
:1014D000BD6012689A4293D8264B30461968FFF7D0
:1014E000F5FE8DE7142B0AD9542B1FD80B0B03F1F3
:1014F0006F0003F16E02C300B1E719448DE703F1F9
:101500005C0003F15B02C300A9E741F00103C7E9F6
:101510000455C5E902006B60695071E77968921063
:10152000012404FA02F20A437A60A6E7B3F5AA7F1F
:1015300006D8CB0B03F1780003F17702C3008EE7E6
:1015400040F25452934206D88B0C03F17D0003F114
:101550007C02C30083E74FF47E737E227FE741F075
:1015600001036B60CCF800104AE700BF3004002490
:101570003C080024700800249368002B00F0818050
:101580002DE9F04FB1F90C300C461907804683B0B5
:10159000174698B223D523690BB310F002033D68B8
:1015A0002BD04FF0000ADFF8B4B256465E45334602
:1015B000524628BF5B464046002E4FD0E169D4F822
:1015C00024C0E047002852DDBB681B1A8244361A4B
:1015D000BB60002BEAD1002003B0BDE8F08F2146AC
:1015E0004046FFF7FBFB002840F03481B4F90C3093
:1015F0003D6898B210F00203D3D110F0010942D136
:101600004E463EB38205D4F808B040F18180B34520
:101610005A4600F2B18010F4906F40F0BE8020680E
:101620000192494600F096FDA3682168019AA3EB58
:101630000B030A44B246A36022600026B868A0EB00
:101640000A00D144B8600028C5D0B4F90C0080B2BB
:10165000002ED7D1D5E900960835D2E7D5E900A606
:101660000835A3E721464046FFF7E6FC80B3B4F90E
:101670000C3043F040034FF0FF30A38103B0BDE8CE
:10168000F08F002070471E46AA46994618461D4610
:1016900056B388B34A46D4E904132068B24228BF3F
:1016A0003246884205D9A16803EB010B5A4500F385
:1016B000A780934264DCE169D4F824C02A464046FE
:1016C000E047B0F1000BD2DDB9EB0B09CAD0012025
:1016D000BB68A3EB0B035D44A6EB0B06BB60002BC2
:1016E0003FF479AF002ED4D10AF1080353E9025632
:1016F0009A460833002EF9D032460A21284600F0D7
:101700003FFC002800F09D800130A0EB0509C1E7F7
:1017100020682369984217D86369B34214D86FF0E0
:101720000042B24228BF3246E16992FBF3F2D4F89C
:1017300024C002FB03F340464A46E047B0F1000AEA
:1017400095DDA6EB0A0679E7B345DA4628BFB2462F
:101750005246494600F0FEFCA3682268A3EB0A0348
:101760005244A3602260002BEBD121464046FFF794
:1017700063FC0028E5D07AE72068B34632464FE79D
:101780002946019200F0E6FC019AA3689B1AA36027
:10179000236813442360934696E723682169A3EBEB
:1017A000010B636903EB430A0AEBDA7A0BF10103DD
:1017B0004FEA6A0A33445345524684BF9A4652461A
:1017C00043052CD51146404600F02EF900283BD0A9
:1017D0005A462169019000F023FCA289019B22F462
:1017E000906242F08002A28103EB0B002361AAEB1E
:1017F0000B03C4F814A0A3602060B34632460FE781
:1018000029465A4600F0A6FC23685B442360214623
:101810004046FFF711FC00283FF456AF27E740464B
:1018200000F018FD03460028DED121694046FFF78D
:101830009DFDB4F90C300C2223F08003C8F8002081
:1018400017E7721C914626E70C22B4F90C30C8F851
:1018500000200EE74FF0FF30BEE600BF00FCFF7F28
:101860002DE9F041884600F538770026D7E9015484
:10187000013D0FD4A389012B05F1FF3506D9B4F939
:101880000E300133204601D0C04706436B1C04F1E3
:101890006804EFD13F68002FE8D13046BDE8F08101
:1018A0002DE9F8430746884600F538764FF00009E1
:1018B000D6E90154013D11D4A389012B05F1FF356F
:1018C00008D9B4F90E300133214603D03846C04759
:1018D00049EA00096B1C04F16804EDD13668002E5A
:1018E000E6D14846BDE8F8832DE9F0418B890C46E6
:1018F000990796B008D504F143030122C4E90432E4
:10190000236016B0BDE8F081B4F90E100029064638
:1019100027DB6A4600F076FF002821DB019D05F4F5
:101920007045A5F50055B5FA85F54FF480686D0949
:101930004FF400674146304600F076F8B4F90C30B9
:10194000F0B1204AF26343F08003C4F81480A3810D
:101950002060206135BB3B43A38116B0BDE8F08118
:10196000A38913F0800519D04FF040084146304656
:1019700000F05AF80025B4F90C302F460028E0D1C9
:101980009A05BED423F0030304F1430243F002039B
:101990000121C4E90421A3812260B2E74FF48068E9
:1019A0002F46C7E7B4F90E10304600F041FF10B9DA
:1019B000B4F90C30CFE7A38923F0030343F001030C
:1019C0001BB2C8E7B910009070B50C46B1F90E1003
:1019D000002996B015461E4614DB6A4600F012FF39
:1019E00000280FDB019A02F47042A2F50052B2FA0D
:1019F00082F24FF4806352094FF4006032602B6032
:101A000016B070BDB4F90C10002311F080003360E3
:101A100004D0402218462A6016B070BD4FF480638F
:101A20002B6016B070BD00BF2DE9F04F01F10B0621
:101A3000162E83B0044624D8102900F2BA8000F094
:101A400005FC102618220220B74F3A44A2F10801E3
:101A500053688B4200F0BA805A68D96822F00302BA
:101A60001A449D68E9608D60516841F0010120468B
:101A7000516003F1080500F0EBFB284603B0BDE818
:101A8000F08F36F0070600F19480B14200F29180A9
:101A900000F0DCFBB6F5FC7FC0F09681730A00F025
:101AA0008F80042B00F26B81B30903F1390003F13D
:101AB000380CC3009C4F3B44A3F108055B689D4272
:101AC00006D10CE0002980F22B81DB689D4206D014
:101AD0005A6822F00302911B0F29F3DD60463D692D
:101AE000DFF848C265457CD06A6822F00302931B88
:101AF0000F2B00F37781002BC7E904CC80F26881BB
:101B0000B2F5007F80F01681D308796801334FEA7F
:101B1000521E012202FA0EF20A4357F833E0C5F8CA
:101B200008E007EBC3010839E9607A6047F83350F1
:101B3000CEF80C50831001219940914257D81142A0
:101B400006D120F003004900114200F10400FAD050
:101B500007EBC0094D468646D5F80C80454508D1AF
:101B600019E1002B80F22081D8F80C80454500F067
:101B70001281D8F8042022F00302931B0F2BF0DD12
:101B80002046D8E9025408EB060146F00106C8F8E1
:101B90000460EC60A56043F00104C7E90411C1E9E9
:101BA00002CC4C6048F8023000F052FB08F1080506
:101BB00002E00C2323600025284603B0BDE8F08F27
:101BC0004FF4007340204FF03F0C73E7D3689A4204
:101BD00008BF02307FF440AF3D69DFF850C1654572
:101BE00082D17A688310012199409142A7D9BD68BA
:101BF0006B6823F00308464503D8A8EB06030F2BB8
:101C00007EDCDFF82C91D7F80824D9F800300132B7
:101C1000334405EB080A00F02F8103F580530F339E
:101C200023F47F6B2BF00F0B5946204600F0FEFC8F
:101C3000411C024600F0EF80824500F2EA80D9F8AC
:101C400004105944C9F804100B4600F04B81D7F832
:101C5000081401311BBFA2EB0A0A5344C7F8082439
:101C6000C9F8043012F0070300F01281C3F1080133
:101C70000A44C3F5805193440831A1EB0B01C1F331
:101C80000B0A514620460192009300F0CFFC421C03
:101C9000DDE9003200F04B81831A03EB0A0BD9F81F
:101CA0000400BA604BF001030AEB0001BD4253602F
:101CB000C9F8041000F02281B8F10F0F40F2208122
:101CC0006B68A8F10C0020F0070003F00103034348
:101CD0006B604FF0050C2B180F28C3E901CC00F204
:101CE0002D8153681546D9F82C208A42D9F8302026
:101CF00038BFC9F82C108A4238BFC9F830108CE0C0
:101D0000AA1943F0010346F001066E602046BA604E
:101D1000536000F09DFA0835284603B0BDE8F08F07
:101D2000D9681A449DE600BF30040024380400241A
:101D300070080024B2F5206F4FEA522363D3142BAE
:101D400000F2B88003F15C01C9005B3307EB010EC0
:101D50007958AEF1080E8E4500F091804B6823F063
:101D60000303934202D989688E45F7D1D1F80CE07C
:101D70007A68C5E9021ECEF80850CD60DAE6142B69
:101D800059D9542B00F29E80330B03F16F0003F1FD
:101D90006E0CC3008EE60EF1010E1EF0030F05F16E
:101DA00008057FF4D9AE51E0424445465368D8F85F
:101DB0000C1043F00103536055F8083F2046D960EA
:101DC0008B6000F045FAF7E6F00806F108023BE602
:101DD0002A442046536843F001035360083500F05D
:101DE00037FAE9E6A919204646F0010643F0010456
:101DF0006E60C7E90411C1E902CC4C60AB5000F041
:101E000027FA0835D8E6930903F13901C9003833B8
:101E10009CE7BD4260D0BD686B6823F0030B5E4554
:101E2000ABEB060302D80F2B3FF76AAF204600F05A
:101E30000FFA0025C0E603F15C0003F15B0CC30060
:101E400038E659F808394B4540F0968010F0030FFA
:101E500000F1FF30F5D17B6823EA01037B60490084
:101E600099423FF6C4AE19B9C1E649000EF1040E1D
:101E70001942FAD070466BE603F1100BD4E69A10C3
:101E80004FF001087B6808FA02F21A437A6070E7A3
:101E900002EB0B014942C1F30B0A51462046019364
:101EA000009200F0C3FB431CDDE900237FF4F4AE95
:101EB0009A46F4E6542B26D8130B03F16F01C900A0
:101EC0006E3343E7B3F5AA7F26D8F30B03F178000E
:101ED00003F1770CC300EDE5D9F804305B44C9F891
:101EE0000430B4E6CAF30B0000287FF4B0AEBD683E
:101EF00008EB0B0343F001036B60F4E61546F2E6D2
:101F00000123536092E7B3F5AA7F21D8D30B03F1E5
:101F10007801C900773319E740F25452934221D82F
:101F2000B30C03F17D0003F17C0CC300C2E5083B58
:101F30009B44ABEB020B4FF0000AB0E605F1080141
:101F40002046FFF713FABD68D9F804106B68CAE69B
:101F500040F254518B420BD8930C03F17D01C90020
:101F60007C33F3E64FF47E737F204FF07E0CA1E5C7
:101F70004FF47E717E23E9E67B6870E70000000085
:101F800001F0FF01102A2BDB10F0070F08D010F82A
:101F9000013B013A8B422DD010F0070F42B3F6D12E
:101FA000F0B441EA012141EA014122F007047FF047
:101FB00000070023F0E80256083C85EA010586EA9E
:101FC000010685FA47F5A3FA87F586FA47F6A5FADA
:101FD00087F68EB9EED1F0BC01F0FF0102F00702E6
:101FE00032B110F8013B013A83EA010313B1F8D191
:101FF0000020704701387047002D06BF3546033872
:10200000073815F0010F07D1013015F4807F02BFAA
:10201000013015F4C03F0130F0BC0138704700BFFB
:10202000844641EA000313F003036DD1403A41D3E3
:1020300051F8043B40F8043B51F8043B40F8043BA2
:1020400051F8043B40F8043B51F8043B40F8043B92
:1020500051F8043B40F8043B51F8043B40F8043B82
:1020600051F8043B40F8043B51F8043B40F8043B72
:1020700051F8043B40F8043B51F8043B40F8043B62
:1020800051F8043B40F8043B51F8043B40F8043B52
:1020900051F8043B40F8043B51F8043B40F8043B42
:1020A00051F8043B40F8043B51F8043B40F8043B32
:1020B000403ABDD2303211D351F8043B40F8043BD2
:1020C00051F8043B40F8043B51F8043B40F8043B12
:1020D00051F8043B40F8043B103AEDD20C3205D3E2
:1020E00051F8043B40F8043B043AF9D2043208D0DA
:1020F000D2071CBF11F8013B00F8013B01D30B884C
:1021000003806046704700BF082A13D38B078DD029
:1021100010F003038AD0C3F10403D21ADB071CBFFB
:1021200011F8013B00F8013B80D331F8023B20F865
:10213000023B7BE7043AD9D3013A11F8013B00F89E
:10214000013BF9D20B7803704B7843708B78837026
:102150006046704788420DD98B1883420AD900EB3C
:10216000020CBAB1624613F801CD02F801CD9942D2
:10217000F9D170470F2A0ED8034602F1FF3C4AB14D
:102180000CF1010C013B8C4411F8012B03F8012FD9
:102190006145F9D1704740EA01039B0750D1A2F194
:1021A000100370B501F1200C23F00F0501F1100EA2
:1021B00000F11004AC441B095EF8105C44F8105C9C
:1021C0005EF80C5C44F80C5C5EF8085C44F8085C53
:1021D0005EF8045C44F8045C0EF1100EE64504F170
:1021E0001004E9D1013312F00C0F01EB031102F0DE
:1021F0000F0400EB031327D0043C24F003064FEA3E
:10220000940C1E441C1F8E465EF8045B44F8045F69
:10221000B442F9D10CF1010402F0030203EB840390
:1022200001EB840102F1FF3C4AB10CF1010C013BCE
:102230008C4411F8012B03F8012F6145F9D170BDD1
:1022400002F1FF3C03469BE72246EBE7704700BFE5
:10225000704700BF2DE9F84F1746002900F098801D
:1022600007F10B0580460C46FFF7F0FF162D5DD8F1
:1022700010252A46AF425ED854F8041C21F003060C
:102280009642A4F1080962DABC4BD3F808C009EB06
:102290000600844500F09780D0F804C02CF00103BC
:1022A00003445B68DB0768D42CF0030C06EB0C03DB
:1022B000934247DACB0710D454F8083CA9EB030A41
:1022C000DAF8043023F003018C44B444944580F2DE
:1022D00011817318934280F2E88039464046FFF737
:1022E000A3FB0746E0B154F8043C23F001034B4440
:1022F000A0F10802934200F0D280321F242A00F29B
:10230000F580132A00F2AC8003462246116819605A
:102310005168596092689A6021464046FFF726F856
:102320004046FFF795FF3846BDE8F88F25F00705D2
:10233000002D2A469EDA0C23C8F8003000273846C4
:10234000BDE8F88F1E46D0E90223D3609A60731B64
:102350000F2B22D8D9F8043003F0010333434E4445
:10236000C9F80430736843F00103736040462746A0
:10237000FFF76EFF3846BDE8F88FC907ADD454F8B3
:10238000083CA9EB030ADAF8041021F00301A0E7E6
:10239000BDE8F84F1146FFF747BBD9F8041001F02C
:1023A00001012943C9F8041009EB05014E4443F02B
:1023B00001034B60736843F00103083173604046CA
:1023C000FEF7D4FFD2E7DCF8040020F0030B06EBA5
:1023D0000B0C05F1100084454DDAC9073FF57DAFC0
:1023E00054F8081CA9EB010ADAF8041021F00301E3
:1023F0008B44B34458453FF76CAF5746DAF80C109E
:1024000057F8080F321F242AC160886000F2DB8071
:10241000132A40F2D6802168CAF808106168CAF809
:102420000C101B2A00F2DF8008340AF11002216828
:10243000116061685160A16891600AEB0501ABEB26
:10244000050242F0010299604A60DAF8043003F0B4
:1024500001031D434046CAF80450FFF7F9FE6EE73A
:1024600023680360636843601B2A68D804F108028C
:1024700000F108034AE709EB05029A60ACEB05039B
:1024800043F00103536054F8043C03F001031D437F
:10249000404644F8045CFFF7DBFE27464FE750F860
:1024A000043C23F003031E4451E75746DAF80C10AE
:1024B00057F8080F321F242AC16088604CD8132AAD
:1024C00048D92168CAF808106168CAF80C101B2A9C
:1024D00056D808340AF110021E4623681360636858
:1024E0005360A3689360D1463C4630E72146FFF72E
:1024F00031FE11E7D0E902135746CB60996057F8D7
:10250000081FDAF80C30CB60321F242A99602DD8CE
:10251000132A29D92368CAF808306368CAF80C302E
:102520001B2A42D808340AF1100322681A60626834
:102530005A60A2689A606646D1463C4607E7A3689F
:102540008360E368C360242A26D004F1100200F1FE
:102550001003DBE63A46BFE7214638461E46D14621
:10256000FFF7F8FD3C46F2E63B46DEE721463846FB
:102570006646D146FFF7EEFD3C46E8E6300400240F
:10258000A168CAF81010E168CAF81410242A20D0F3
:1025900010340AF118029FE7236903616169416100
:1025A00004F1180200F11803B0E6A368CAF810306D
:1025B000E368CAF81430242A21D010340AF1180331
:1025C000B3E73A4633E721463846FFF7C3FD164BDB
:1025D00033E72269CAF818206269CAF81C20183447
:1025E0000AF1200278E7A168CAF81010E168CAF879
:1025F0001410242A0DD010340AF1180217E72369A9
:10260000CAF818306369CAF81C3018340AF120037C
:102610008BE72269CAF818206269CAF81C201834AE
:102620000AF1200203E700BF3004002438B5074D4B
:102630000022044608462A6000F02CFF431C00D00C
:1026400038BD2B68002BFBD0236038BDA4080024C4
:1026500010B50C46B1F90E1000F012F9002803DB9A
:10266000236D0344236510BDA38923F48053A38104
:1026700010BD00BF002070472DE9F0410C46B1F9B4
:102680000C101F46CB05054616460BD421F480518D
:10269000A1813B46B4F90E1032462846BDE8F04110
:1026A00000F01EB8B4F90E100223002200F0D2F898
:1026B000B4F90C10EAE700BF10B50C46B1F90E10E2
:1026C00000F0C8F8A389421C0EBF23F4805343F4E2
:1026D00080532065A38110BDB1F90E1000F016B82B
:1026E00038B50C46084D8446114620461A4600234C
:1026F0002B60644600F0B4FE431C00D038BD2B684C
:10270000002BFBD0236038BDA408002438B5074D4A
:102710000022044608462A6000F0B0FE431C00D0A8
:1027200038BD2B68002BFBD0236038BDA4080024E3
:1027300070B50C460646FEF7EFFBE36A054633B17B
:10274000E169304698470028B8BF4FF0FF35A389AC
:102750001B0619D4216B41B104F14003994202D008
:102760003046FEF703FE00232363616C21B130463F
:10277000FEF7FCFD00236364FEF78CFD0023A381BC
:10278000FEF78AFD284670BD21693046FEF7EEFD52
:10279000E0E700BFB1B138B505460C4608B1836B20
:1027A0004BB1B4F90C300BB9002038BD2146284696
:1027B000BDE83840BCE7FEF769FDB4F90C30002BEA
:1027C000F2D0F3E700207047C0B138B50C4B1D685C
:1027D00004460DB1AB6B4BB1B4F90C300BB9002012
:1027E00038BD21462846BDE83840A1E72846FEF717
:1027F0004DFDB4F90C30002BF1D0F2E7002070470A
:102800000000002470B50C46084D03460026204603
:1028100011461C462E6000F034FE431C00D070BDF3
:102820002B68002BFBD0236070BD00BFA4080024E0
:1028300038B5074D0022044608462A6000F026FEFF
:10284000431C00D038BD2B68002BFBD0236038BD63
:10285000A408002438B50C46084D8446114620468D
:102860001A4600232B60644600F012FE431C00D081
:1028700038BD2B68002BFBD0236038BDA408002492
:1028800038B50C46084D8446114620461A460023AA
:102890002B60644600F0D4FD431C00D038BD2B688B
:1028A000002BFBD0236038BDA4080024102800D0E2
:1028B000704708B51021074802F09AFB0028F9D0AC
:1028C000054A536983F4004353610448FEF708FA4C
:1028D00008BD00BF001C0258000802585CA600900A
:1028E00000B583B00F4BD3F8D82042F00102C3F8F3
:1028F000D820D3F8D83003F001030193019B0022C4
:1029000011460B2000F0F8FF0B2001F02BF80022FD
:1029100011460C2000F0F0FF0C2001F023F803B06A
:102920005DF804FB0044025808B50848084B0360F2
:102930004FF440334360022383600023C36002F0FE
:1029400001FA00B908BD00F069FBFBE7A808002404
:102950000010005202680A4B9A4200D0704782B0C1
:10296000084BD3F8D42042F01002C3F8D420D3F897
:10297000D43003F010030193019B02B0704700BFF5
:102980000010005200440258F0B5B9B00023339350
:102990003493359336933793354B1B680BB139B06D
:1029A000F0BD334B01221A60C022002102A8FEF7BD
:1029B00011F94FF080720023CDE9022302A803F041
:1029C00041FC002850D12B4BD3F8D42042F4805244
:1029D000C3F8D420D3F8D43003F480530193019B7F
:1029E0004FF68373339302273497002635960325D9
:1029F00036950C24379433A91F4802F0E5F948F2C4
:102A000037133393349735963695379433A91B484B
:102A100002F0DAF94CF20373339334973596369516
:102A2000379433A9164802F0CFF94FF63F0333939A
:102A3000349735963695379433A9124802F0C4F985
:102A40003394349735963695379433A90E4802F06F
:102A5000BBF920233393349735963695379433A9B1
:102A60000A4802F0B1F99AE700F0D8FAABE700BFE4
:102A7000100900240044025800100258001802589F
:102A8000000C02580014025800080258001C02589A
:102A900000B589B000230193029303930493059337
:102AA000069307931648174A02604360012282602A
:102AB0000822C26010210161402141614FF4C071C0
:102AC0008161C3614FF4006303624FF4805343623A
:102AD0004FF4005383620223019302920622039271
:102AE00007220492052205920693079301A906F096
:102AF00045F810B909B05DF804FB00F08FFAF9E76A
:102B0000140900244041005208B5FFF73DFF08BDFD
:102B10002DE9F04391B000240B940C940D940E9485
:102B20000F94614BD3F8E02042F48062C3F8E020B8
:102B3000D3F8E02002F480620192019AD3F8E020F9
:102B400042F00802C3F8E020D3F8E02002F00802C7
:102B50000292029AD3F8E02042F00402C3F8E02087
:102B6000D3F8E02002F004020392039AD3F8E020A5
:102B700042F01002C3F8E020D3F8E02002F0100287
:102B80000492049AD3F8E02042F40072C3F8E020E3
:102B9000D3F8E02002F400720592059AD3F8E02001
:102BA00042F00102C3F8E020D3F8E02002F0010275
:102BB0000692069AD3F8E02042F04002C3F8E020E3
:102BC000D3F8E02002F040020792079AD3F8E02001
:102BD00042F48072C3F8E020D3F8E02002F480725F
:102BE0000892089AD3F8E02042F02002C3F8E020CF
:102BF000D3F8E02002F020020992099AD3F8E020ED
:102C000042F08002C3F8E020D3F8E03003F0800304
:102C10000A930A9BDFF8949022461021484602F05E
:102C2000EEF9DFF88C8022464FF40041404602F076
:102C3000E6F9204F22464FF48071384602F0DFF962
:102C400010260B9601250C950D9403230E930BA9CA
:102C5000484602F0B9F84FF400430B930C950D94DD
:102C60000E940BA9404602F0AFF84FF480730B931B
:102C70000C950D940E940BA9384602F0A5F80B960E
:102C80004FF404130C930D950BA90B4802F09CF81C
:102C9000224605210A2000F02FFE0A2000F062FEE5
:102CA00011B0BDE8F08300BF00440258000C025888
:102CB0000008025800200258001C025810B58EB0BF
:102CC0003422002101A8FDF785FF2748274B036028
:102CD000002343608360C3600361132242610222C8
:102CE00082619F22C2610622026240F29F424262DA
:102CF00040F25E22826240F23F52C26240F26A2299
:102D0000026380F8343080F8353080F8363002F0D5
:102D100067FA10BB002201924FF480610291039286
:102D20004FF41670049002230593FF230693079235
:102D30000891052409944FF040440A940B910C909B
:102D40008DF834308DF835308DF8363001A90648CD
:102D500002F0C2FA20B90EB010BD00F05FF9D9E759
:102D600000F05CF9F7E700BF4809002400100050AC
:102D7000F0B5BBB0044600213591369137913891BA
:102D80003991C02204A8FDF725FF2268394B9A42E9
:102D900001D03BB0F0BD4FF000520023CDE9042339
:102DA00001230E9309230F930223109311930523FC
:102DB00012934FF44063139304A803F043FA0028DE
:102DC00055D12D4BD3F8E42042F00802C3F8E4209B
:102DD000D3F8E42002F008020092009AD3F8E02031
:102DE00042F48062C3F8E020D3F8E02002F480626D
:102DF0000192019AD3F8E02042F40072C3F8E02077
:102E0000D3F8E02002F400720292029AD3F8E02094
:102E100042F48072C3F8E020D3F8E03003F480730A
:102E20000393039BFF23359302273697002637969B
:102E3000032538950E24399435A9104801F0C4FFB4
:102E40004FF6FF733593369737963895399435A9F1
:102E50000B4801F0B9FF4FF470433593369737961E
:102E60003895399435A9074801F0AEFF91E700F095
:102E7000D5F8A6E700100050004402580028025878
:102E8000002402580020025870B483B040F2572446
:102E9000A4EB020C201ACC1AA4B204F2FF34A4B2A0
:102EA00001EB8C2505F1C0456D001C4AD2F8D460B9
:102EB00046F01006C2F8D460D2F8D42002F0100216
:102EC0000192019A164A166826F0010616604FF420
:102ED00040361660022656631464D563A0EB0C00DE
:102EE00001305B1A013340EA03435364069B93634A
:102EF000136843F0010313600023094A526812F07B
:102F0000020F03D10133B3F5001FF6D3044A9368CF
:102F100043F00203936003B070BC70470044025852
:102F20000010005200B583B0009040F2FF3340F231
:102F3000572200210846FFF7A7FF03B05DF804FB06
:102F400008B501221021024802F059F808BD00BF5F
:102F5000000C025810B50B4C00231A4619462046A7
:102F600002F019FA00234FF416724FF480612046E4
:102F700002F0E6F9FFF7E4FF4FF0FF30FFF7D2FF72
:102F800010BD00BF4809002430B585B0002400946E
:102F900001940294039400F007FD01258DF8005080
:102FA0008DF801404FF01043019316238DF808303F
:102FB0008DF809408DF80A5003238DF80B308DF8F9
:102FC0000C408DF80D408DF80E508DF80F5068466E
:102FD00000F008FD8DF801504FF040430193182395
:102FE0008DF808308DF80A408DF80F40684600F0E3
:102FF000F9FC02238DF801304FF010530193122396
:103000008DF808308DF80A508DF80F50684600F0A2
:10301000E9FC042000F0D6FC05B030BD72B6FEE736
:1030200000B59FB04C2200210BA8FDF7D3FD202254
:10303000002103A8FDF7CEFD022002F0D7F90023FE
:103040000093394BDA6A22F00102DA62DB6A03F09C
:1030500001030093354B9A6942F440429A619B699F
:1030600003F440430093009B304B9B6913F4005FD3
:10307000FAD02F4BD3F8F42042F00202C3F8F42028
:10308000D3F8F43003F002030193019B0023029371
:10309000264B9A6942F440429A619B6903F440438B
:1030A0000293214BDA6A42F00102DA62DB6A03F032
:1030B00001030293029B1D4B9B6913F4005FFAD03E
:1030C00001230B934FF480330C9302231493159335
:1030D00005221692C02217921893042219921A936D
:1030E00008231B9300231C931D930BA802F0A8F93F
:1030F000B0B93F23039303230493002305930823CC
:1031000006934023079308934FF4806209920A9331
:10311000042103A802F0FAFD20B91FB05DF804FBFA
:10312000FFF77CFFFFF77AFF0004005800480258C1
:103130000044025808B53A4B5B6913F4003F13D1C1
:10314000BFF34F8FBFF36F8F354B0022C3F8502270
:10315000BFF34F8FBFF36F8F5A6942F400325A6149
:10316000BFF34F8FBFF36F8F2D4B5B6913F4803F1D
:1031700027D12B4B0022C3F88420BFF34F8FD3F805
:103180008040C4F34E3000E01846C4F3C90243F651
:10319000E07303EA401343EA82732149C1F86032C5
:1031A0001346013A002BF2D1431E0028ECD1BFF3A5
:1031B0004F8F4B6943F480334B61BFF34F8FBFF3A5
:1031C0006F8F00F02DFBFFF7DFFEFFF729FFFFF702
:1031D0009FFCFFF785FB00F0E5F9FFF759FCFFF7CF
:1031E000A3FBFFF76BFD00F021F807F009F90D4A8A
:1031F000536943F01003536100F0B8F8FFF7AAFEDB
:1032000040F2FF70FFF78EFE642000F049FB064A93
:10321000536983F400435361642000F041FBF6E7F7
:1032200000ED00E0000C02580008025808B50748FD
:10323000074B03600023436083604FF48042C26009
:1032400003610423436105F022FB08BDF00900245B
:1032500000700052F0B5BBB00446002135913691A4
:10326000379138913991C02204A8FDF7B3FC226848
:103270002C4B9A4201D03BB0F0BD4FF4803200237A
:10328000CDE9042304A802F0DDFF002846D1264B37
:10329000D3F8D42042F48032C3F8D420D3F8D42019
:1032A00002F480320192019AD3F8E02042F0040245
:1032B000C3F8E020D3F8E02002F004020292029A60
:1032C000D3F8E02042F00802C3F8E020D3F8E03061
:1032D00003F008030393039B4FF4F853359302273D
:1032E000369700243794032638960C25399535A94E
:1032F0000E4801F069FD04233593369737943896CC
:10330000399535A90A4801F05FFD22462146312052
:1033100000F0F2FA312000F025FBACE7FFF77EFE6B
:10332000B5E700BF00700052004402580008025880
:10333000000C025810B584B001290ED002290ED01D
:1033400000900194029203934FF48052694606481C
:1033500005F03CFC28B904B010BD1024F0E70824A7
:10336000EEE74FF0FF30F6E71409002408B500231C
:10337000012211461046FFF7DDFF012000F090FA10
:103380000023012211460220FFF7D4FF0023082268
:1033900001210320FFF7CEFF4FF40C7301221146E9
:1033A0000420FFF7C7FF40F28461024805F02FFCBC
:1033B00008BD00BF1409002482B0074BD3F8F420E5
:1033C00042F00202C3F8F420D3F8F43003F0020311
:1033D0000193019B02B0704700440258FEE7FEE7EC
:1033E000FEE7FEE7FEE770477047704708B500F05C
:1033F00045FA08BD08B5102001F007FE08BD000021
:1034000008B5024801F002F908BD00BF700A0024A7
:1034100008B5024801F0FAF808BD00BFE80A002428
:1034200008B5024805F094FA08BD00BFF009002471
:1034300008B5024805F050FC08BD00BF600B002431
:1034400070B50C461646002506E0AFF30080214615
:1034500001F8010B01350C46B542F6DB304670BD74
:1034600070B50C461646002504E014F8010B00F078
:1034700075F90135B542F8DB304670BD4FF0FF30CD
:1034800070474FF400534B60002070470120704795
:103490000020704710B503460C4A0D490D480068DE
:1034A00040B10C4800680344521A934206D8094AB6
:1034B000136010BD0748084C0460F2E7FDF74AFBB3
:1034C0000C2303604FF0FF30F3E700BF0000082437
:1034D00000F000006C0A0024100C0024264B1B682E
:1034E00003F00F03062B06D8234A136823F00F03BB
:1034F00043F007031360214B1A6842F001021A607F
:1035000000221A6119681E4A0A401A601A4B1B6889
:1035100013F0080F06D0184A136823F00F0343F086
:1035200007031360154B00229A61DA611A6215498C
:1035300099621549D962154919635A639963DA6327
:1035400019645A64196821F4802119601A66104BB5
:103550001A68104B1340B3F1005F03D20E4B0122E7
:10356000C3F808210D4B43F2D2021A600C4B4FF006
:1035700010429A60704700BF002000520044025879
:103580007FEDF6EA000202020000FF018002010165
:103590000010005C0000FFFF00800051004000525E
:1035A00000ED00E008B51748174B03604FF4E13316
:1035B000436000238360C36003610C224261836126
:1035C000C36103624362836206F0DBF970B90021D4
:1035D0000C4806F051FA60B900210A4806F071FA69
:1035E00050B9084806F029FA48B908BDFFF716FD9A
:1035F000EDE7FFF713FDEFE7FFF710FDF1E7FFF74A
:103600000DFDF2E7600B0024004C0040F0B5BBB0AC
:103610000446002135913691379138913991C02275
:1036200004A8FDF7D7FA2268444B9A4201D03BB078
:10363000F0BD02220023CDE9042304A802F002FE1B
:10364000002871D13E4BD3F8E82042F40022C3F8A1
:10365000E820D3F8E82002F400220192019AD3F87E
:10366000E02042F48072C3F8E020D3F8E02002F4B6
:1036700080720292029AD3F8E02042F00102C3F86D
:10368000E020D3F8E03003F001030393039B4FF4F1
:10369000007335930227369700253795389508260D
:1036A000399635A9274801F08FFB012335933697CA
:1036B00037953895399635A9234801F085FB23487D
:1036C000234B03603F2343608560C5604FF48063F4
:1036D000036145618561C5610562456200F0ECFAF0
:1036E00028BB1A4BC4F880309C631A481A4B0360FD
:1036F0004023436083600023C3604FF48062026113
:1037000043618361C3610362436200F0D5FA88B903
:10371000104BE3679C6300221146342000F0ECF864
:10372000342000F01FF982E7FFF778FC8AE7FFF703
:1037300075FCD6E7FFF772FCEAE700BF004C0040DB
:10374000004402580020025800000258700A002469
:1037500010000240E80A00242800024000B583B0AF
:1037600001904FF6FF73012201A9034806F03CF8CF
:10377000019803B05DF804FB600B0024DFF834D03F
:10378000FFF7ACFE0C480D490D4A002302E0D45867
:10379000C4500433C4188C42F9D30A4A0A4C00239B
:1037A00001E013600432A242FBD3FDF7EFF9FFF70B
:1037B000C1FC7047000008240000002454080024C5
:1037C000D8A60090540800240C0C0024FEE700004A
:1037D000104B1B780BB90120704710B504464FF40D
:1037E0007A70B0FBF3F30C4A1068B0FBF3F000F012
:1037F000C7F868B90F2C01D901200AE00022214640
:103800004FF0FF3000F078F8044B1C60002000E01F
:10381000012010BD48080024400800244C08002462
:1038200010B5032000F056F802F064F90F498B69D7
:10383000C3F303230E4AD35C03F01F03D8408B6904
:1038400003F00F03D35C03F01F0320FA03F3094ACC
:103850001360094B18600F20FFF7BAFF10B1012465
:10386000204610BD0446FFF7A7FDF9E700440258C3
:103870006CA600904408002440080024034B1B78E9
:10388000034A11680B441360704700BF48080024C6
:10389000F40B0024014B1868704700BFF40B0024A0
:1038A00038B50446FFF7F6FF0546B4F1FF3F02D0F6
:1038B000044B1B781C44FFF7EDFF401BA042FAD3DA
:1038C00038BD00BF48080024014B1868000C704741
:1038D0000010005C0649CB6823F4E0631B041B0C5A
:1038E000000200F4E0600343024A1A43CA607047D2
:1038F00000ED00E00000FA0500B5174BDB68C3F3EC
:103900000223C3F1070CBCF1040F28BF4FF0040CD5
:1039100003F1040EBEF1060F14D9033B4FF0FF3E36
:103920000EFA0CFC21EA0C0199400EFA03F322EA8C
:1039300003031943002807DB0901C9B2074B1954D7
:103940005DF804FB0023E9E700F00F000901C9B2AC
:10395000034B1954F4E700BF00ED00E000E400E081
:1039600014ED00E0002807DB00F01F0240090123EE
:103970009340024A42F82030704700BF00E100E067
:103980000138B0F1807F0BD24FF0E0235861054A37
:10399000F02182F823100020986107221A617047F5
:1039A0000120704700ED00E0BFF35F8F044B5A6ABF
:1039B00022F480325A620022C3F89420704700BF7C
:1039C00000ED00E040F00100054BC3F894005A6A96
:1039D00042F480325A62BFF34F8FBFF36F8F70474C
:1039E00000ED00E04278164BC3F898200378FBB155
:1039F0004368134AC2F89C30017BC37A1B0643EA32
:103A00000173817A43EAC143417B43EA8143817B6D
:103A100043EA4143C17B43EA0143417A43EA01233C
:103A2000017A43EA410301780B43C2F8A0307047A2
:103A3000034B0022C3F89C20C3F8A020704700BFAE
:103A400000ED00E003682749274A934218BF8B42E4
:103A50002FD0183293422CD01832934229D01832EA
:103A6000934226D01832934223D01832934220D06A
:103A7000183293421DD002F55672934219D0183273
:103A8000934216D01832934213D01832934210D07A
:103A9000183293420DD0183293420AD01832934212
:103AA00007D01832934204D023F0FF038365806D62
:103AB000704710B4D9B210390C4AA2FB0142C2F3CC
:103AC00002120B4CA25CC2655F2906D9094A1A4052
:103AD00004328265806D10BC7047064A1A408265C8
:103AE000F8E700BF1000024028000240ABAAAAAAD3
:103AF0007CA6009000FCFFFF83699BB9836A012BC1
:103B00000AD0022B02D00BB100207047C36A13F019
:103B1000807F2AD100207047C36AB3F1C07F26D0CE
:103B200000207047B3F5005F0AD0836A022B26D9C4
:103B3000032B26D1C36A13F0807F24D10020704765
:103B4000836A032B03D8DFE803F01404140A00206F
:103B50007047C36A13F0807F0DD100207047C36A9D
:103B6000B3F1C07F09D000207047012070470120C9
:103B700070470120704701207047012070470120E5
:103B800070470020704701207047000003682249F9
:103B9000224A934218BF8B4228D01432934225D038
:103BA0001432934222D0143293421FD014329342E3
:103BB0001CD01432934219D01432934216D0DAB288
:103BC000103A1749A1FB0212120916491944A829F3
:103BD0001FD9154B13449B000366144B436602F038
:103BE0001F02012303FA02F282667047DBB2083B30
:103BF0000F4AA2FB03230F4A02EB13129200026644
:103C00000D4A4266C3F30413012202FA03F38366EA
:103C100070470832DDE700BF085402581C540258B0
:103C2000ABAAAAAAF0FBFDBF0082001080080240E8
:103C3000CDCCCCCC009600168058025801794A1E93
:103C4000072A2CD830B40368154D164CA34218BF70
:103C5000AB4218D01434A34215D01434A34212D06E
:103C60001434A3420FD01434A3420CD01434A34212
:103C700009D01434A34206D00B4B0B449B00C366FF
:103C80000A4B036705E00A4B0B449B00C366094BD4
:103C90000367012303FA02F2426730BC70477047A2
:103CA000085402581C5402583F8200104009024038
:103CB0003F9600164059025870B50446FFF7EAFDDA
:103CC000002C00F0B681054623685349534A9342BD
:103CD00018BF8B420CBF0122002250D030318B42E2
:103CE0004DD018318B424AD018318B4247D0183111
:103CF0008B4244D018318B4241D018318B423ED098
:103D000001F556718B423AD018318B4237D01831B9
:103D10008B4234D018318B4231D018318B422ED0A7
:103D200018318B422BD018318B4228D018318B425E
:103D300025D03B493B4A934218BF8B4200F031816A
:103D4000394A934200F02D811432934200F02981C8
:103D50001432934200F025811432934200F0218105
:103D60001432934200F01D811432934200F0198105
:103D700040236365032384F8353001204AE00221A3
:103D800084F83510002184F834107ABB274A934216
:103D90002CD01832934229D01832934226D01832B0
:103DA000934223D01832934220D0183293421DD030
:103DB00002F55672934219D01832934216D0183237
:103DC000934213D01832934210D0183293420DD040
:103DD000183293420AD01832934207D018329342D5
:103DE00004D01A6822F001021A6003E01A6822F077
:103DF00001021A6023681A6812F0010F18D0FFF749
:103E000049FD431B052BF5D920236365032384F863
:103E10003530012070BD00BF100002402800024074
:103E2000085402581C5402583054025840000240B2
:103E30001A6881481040A168E2680A4321690A4370
:103E400061690A43A1690A43E1690A43216A0A4395
:103E50000243616A042900F099807849086878492A
:103E60000140B1F1005F11D36168A1F12905A1F111
:103E70003F00032888BF052D06D9A1F1470001287E
:103E800002D94F39032901D842F480121A602668FA
:103E9000756925F00705636A1D43042B08D1A36AE1
:103EA0001D43E36A23B12046FFF726FE002872D1A6
:103EB00075612046FFF7C6FDE36D03F01F023F2347
:103EC0009340836023685F495F4A934218BF8B42E7
:103ED00042D0183293423FD0183293423CD018322D
:103EE000934239D01832934236D01832934233D0AD
:103EF0001832934230D002F5567293422CD01832C9
:103F0000934229D01832934226D01832934223D0BC
:103F10001832934220D0183293421DD01832934267
:103F20001AD01832934217D0484A934214D0143210
:103F3000934211D0143293420ED0143293420BD0DC
:103F40001432934208D01432934205D01432934273
:103F500002D01432934213D12046FFF717FEA36814
:103F6000802B59D0236E22791A60636EA26E5A603C
:103F70006368013B072B52D90023E366236763671D
:103F800000206065012384F8353043E7E16A206B47
:103F900001430A4361E740236365012084F835004B
:103FA00038E7022284F83520002284F834201A6889
:103FB00027491140A268402A2CD0802A27D000220D
:103FC000E06842EAD002206942EAD002606942EA2F
:103FD000D002A06942EAD002E06942EAD002206A37
:103FE00042EA10120A431A6022681A4B13441A4A12
:103FF000A2FB03231B099B00E3652046FFF722FD7C
:10400000E26D02F01F0101228A4042605AE74FF43C
:104010008042D5E71022D3E700236360A2E7204661
:10402000FFF70CFEE36E00221A60236F626F5A6086
:10403000A6E70120EEE600BF3F8010FE0010005C06
:104040000000FFFF10000240280002400854025800
:104050000F00FEFFF8ABFDA7CDCCCCCC70B504466D
:10406000FFF718FC002C00F09181054694F83530DC
:10407000DBB2022B06D080236365002384F8343042
:10408000012070BD23688C498C4A934218BF8B4233
:1040900030D0183293422DD0183293422AD01832A1
:1040A000934227D01832934224D01832934221D021
:1040B000183293421ED002F5567293421AD018322B
:1040C000934217D01832934214D01832934211D031
:1040D000183293420ED0183293420BD018329342CA
:1040E00008D01832934205D01A6822F00E021A60E6
:1040F000266809E01A6822F01E021A6022685369D5
:1041000023F080035361266823686B496B4A93420E
:1041100018BF8B4242D0183293423FD0183293429C
:104120003CD01832934239D01832934236D01832EC
:10413000934233D01832934230D002F556729342F4
:104140002CD01832934229D01832934226D01832FC
:10415000934223D01832934220D0183293421DD07C
:10416000183293421AD01832934217D0544A9342CD
:1041700014D01432934211D0143293420ED0143220
:1041800093420BD01432934208D01432934205D09C
:104190001432934202D01432934204D1226E136837
:1041A00023F48073136023684349444A934218BF41
:1041B0008B422FD0183293422CD01832934229D000
:1041C0001832934226D01832934223D018329342A9
:1041D00020D0183293421DD002F55672934219D066
:1041E0001832934216D01832934213D018329342A9
:1041F00010D0183293420DD0183293420AD01832A0
:10420000934207D01832934204D01A6822F0010278
:104210001A6003E01A6822F001021A60336813F092
:10422000010F0ED0FFF736FB431B052BF6D92023D9
:104230006365032384F83530002384F8343001208B
:104240001FE723681C491D4A934218BF8B4239D08F
:104250001832934236D01832934233D018329342F8
:1042600030D0183293422DD0183293422AD01832CF
:10427000934227D002F55672934223D018329342CC
:1042800020D0183293421DD0183293421AD01832DF
:10429000934217D01832934214D01832934211D05F
:1042A000183293420ED0A16DE36D03F01F0201237B
:1042B00093404B600DE000BF100002402800024018
:1042C00008540258A16DE36D03F01F023F23934091
:1042D0008B6023682E492F4A934218BF8B4242D0ED
:1042E000183293423FD0183293423CD01832934256
:1042F00039D01832934236D01832934233D0183224
:10430000934230D002F5567293422CD01832934229
:1043100029D01832934226D01832934223D0183233
:10432000934220D0183293421DD0183293421AD0B3
:104330001832934217D0184A934214D01432934241
:1043400011D0143293420ED0143293420BD0143257
:10435000934208D01432934205D01432934202D0D3
:10436000143293420BD1636EA26E5A60E36E33B186
:104370001A6822F480721A60236F626F5A600123F8
:1043800084F83530002084F834007AE6012078E69D
:10439000100002402800024008540258002800F093
:1043A000298108B5024690F83530DBB2022B03D0E4
:1043B00080234365012008BD0368904890498B42E3
:1043C00018BF83420CBF0121002166D030308342E8
:1043D00063D01830834260D0183083425DD01830EB
:1043E00083425AD01830834257D01830834254D079
:1043F00000F55670834250D0183083424DD01830AB
:1044000083424AD01830834247D01830834244D088
:104410001830834241D0183083423ED01830834256
:104420003BD0196821F00E0119601368A0F5956062
:1044300073498B4218BF83426AD072498B4267D05E
:1044400018318B4264D018318B4261D018318B42C5
:104450005ED018318B425BD018318B4258D001F5B9
:1044600056718B4254D018318B4251D018318B4247
:104470004ED018318B424BD018318B4248D0183176
:104480008B4245D018318B4242D018318B423FD0FD
:10449000196821F0010119603EE0042082F835001E
:1044A00081BB584A93422DD0183293422AD01832F9
:1044B000934227D01832934224D01832934221D00D
:1044C000183293421ED002F5567293421AD0183217
:1044D000934217D01832934214D01832934211D01D
:1044E000183293420ED0183293420BD018329342B6
:1044F00008D01832934205D01A6822F001021A60DF
:10450000002058E71A6822F001021A60002052E7E2
:10451000196821F0010119601368384838498B4245
:1045200018BF834242D018318B423FD018318B42A2
:104530003CD018318B4239D018318B4236D01831EB
:104540008B4233D018318B4230D001F556718B42FB
:104550002CD018318B4229D018318B4226D01831FB
:104560008B4223D018318B4220D018318B421DD082
:1045700018318B421AD018318B4217D022498B4206
:1045800014D014318B4211D014318B420ED014311F
:104590008B420BD014318B4208D014318B4205D0A2
:1045A00014318B4202D014318B4217D1116E0B683B
:1045B00023F480730B60906DD36D03F01F01012312
:1045C0008B404360536E916E5960D36E33B119685E
:1045D00021F480711960136F516F5960012382F8C3
:1045E0003530002382F83430136D2BB110469847D4
:1045F0000020E0E6012070470020DCE610000240C9
:10460000280002404000024008540258F0B583B030
:104610000446002301937D4B1D687D4BA3FB0535AC
:10462000AD0A876D3E68D7F800C0036879497A48BB
:10463000834218BF8B420CBF0120002061D0774A13
:1046400093425ED0183293425BD01832934258D0D6
:104650001832934255D01832934252D018329342B6
:104660004FD002F5567293424BD01832934248D045
:104670001832934245D01832934242D018329342B6
:104680003FD0183293423CD01832934239D018327E
:10469000934236D06249634A934218BF8B4212D08C
:1046A000614A93420FD0143293420CD01432934299
:1046B00009D01432934206D01432934203D01432FC
:1046C000934240F061821A68E16D01F01F010420FD
:1046D000884010EA0C0F00F0A78212F0040F00F0DF
:1046E000A382786012F4004F00F05A8212F4803FE7
:1046F00040F05082A36C002B00F046822046984781
:1047000042E2E26D02F01F0108228A40324241D0AB
:1047100070BB424A93422BD01832934228D01832B1
:10472000934225D01832934222D0183293421FD0A0
:10473000183293421CD002F55672934218D01832A8
:10474000934215D01832934212D0183293420FD0B0
:10475000183293420CD01832934209D01832934247
:1047600006D01832934203D01A68C2F3C00202E0A6
:104770001A68C2F380026AB11A6822F004021A6051
:10478000E36D03F01F0208239340BB60636D43F0A9
:1047900001036365E26D02F01F0226FA02F313F0D3
:1047A000010F47D023681B481B498B4218BF834227
:1047B0003CD018318B4239D018318B4236D0183169
:1047C0008B4233D018318B4230D018318B422DD0F0
:1047D00018318B422AD001F556718B4226D0183100
:1047E0008B4223D018318B4220D018318B421DD000
:1047F00018318B421AD018318B4217D018318B42A6
:1048000014D018318B4211D01B6813E040080024EB
:10481000B5814E1B100002402800024040000240BB
:10482000085402581C540258305402585B6913F063
:10483000800F3BD1E36D03F01F03042202FA03F360
:10484000334240D02268964896498A4218BF824235
:1048500035D018318A4232D018318A422FD01831DF
:104860008A422CD018318A4229D018318A4226D067
:1048700018318A4223D001F556718A421FD018316F
:104880008A421CD018318A4219D018318A4216D077
:1048900018318A4213D018318A4210D018318A4216
:1048A0000DD018318A420AD013680CE0012303FAB4
:1048B00002F2BA60636D43F002036365BAE71268FF
:1048C00012F0020F3DD1E36D03F01F03102202FA34
:1048D00003F333425FD02268714872498A4218BF9D
:1048E000824234D018318A4231D018318A422ED0D7
:1048F00018318A422BD018318A4228D018318A4286
:1049000025D018318A4222D001F556718A421ED034
:1049100018318A421BD018318A4218D018318A4285
:1049200015D018318A4212D018318A420FD018316E
:104930008A420CD018318A4209D01268C2F3800230
:1049400008E0BB60636D43F004036365BBE7126876
:10495000C2F3C002FAB1BB6023681A6812F4802F58
:104960000DD01B6813F4002F04D1236C9BB120469B
:10497000984710E0A36C73B1204698470BE01A6883
:1049800012F4807F03D11A6822F008021A60236CA7
:104990000BB120469847E36D03F01F03202202FA73
:1049A00003F3334200F0928022683D483D498A4239
:1049B00018BF82422ED018318A422BD018318A4239
:1049C00028D018318A4225D018318A4222D0183195
:1049D0008A421FD018318A421CD001F556718A4292
:1049E00018D018318A4215D018318A4212D01831A5
:1049F0008A420FD018318A420CD018318A4209D02D
:104A000018318A4206D018318A4203D01268C2F3A4
:104A1000400202E01268C2F30012002A56D0BB60C6
:104A200094F83530DBB2042B0ED023681A6812F4E8
:104A3000802F39D01B6813F4002F2CD1636C002B0E
:104A400044D02046984741E02268136823F01603BB
:104A500013602268536923F080035361236CB3B160
:104A60002268136823F008031360E36D03F01F024C
:104A70003F239340BB60012384F83530002384F842
:104A80003430236D002B7FD0204698477CE0A36C08
:104A9000002BE5D1E9E7E36BC3B12046984715E069
:104AA00010000240280002401A6812F4807F09D1E9
:104AB0001A6822F010021A60012384F835300023AE
:104AC00084F83430E36B0BB120469847636D002BBC
:104AD0005AD0636D13F0010F52D0042384F835309F
:104AE00023689649964A934218BF8B422FD01832BA
:104AF00093422CD01832934229D01832934226D0B8
:104B00001832934223D01832934220D01832934265
:104B10001DD002F55672934219D01832934216D026
:104B20001832934213D01832934210D01832934265
:104B30000DD0183293420AD01832934207D018325F
:104B4000934204D01A6822F001021A6003E01A6846
:104B500022F001021A60019B01330193AB4204D899
:104B600023681B6813F0010FF5D123681B6813F04D
:104B7000010F0BD0032384F83530002384F8343040
:104B8000E36C0BB12046984703B0F0BD012384F8D5
:104B90003530F2E7236C002BF6D020469847F3E738
:104BA00012F0200F3AD123686449654A934218BF36
:104BB0008B422FD0183293422CD01832934229D0F6
:104BC0001832934226D01832934223D0183293429F
:104BD00020D0183293421DD002F55672934219D05C
:104BE0001832934216D01832934213D0183293429F
:104BF00010D0183293420DD0183293420AD0183296
:104C0000934207D01832934204D01A6822F004026B
:104C10001A6003E01A6822F008021A60236C002B65
:104C2000B2D020469847AFE70220884010EA0C0F28
:104C300060D012F0020F5DD0786012F4004F0ED0F9
:104C400012F4803F05D1636C002B9DD0204698471D
:104C50009AE7E36B002B97D02046984794E712F031
:104C6000200F40D123683549354A934218BF8B4203
:104C70002FD0183293422CD01832934229D01832B8
:104C8000934226D01832934223D01832934220D038
:104C9000183293421DD002F55672934219D0183241
:104CA000934216D01832934213D01832934210D048
:104CB000183293420DD0183293420AD018329342E0
:104CC00007D01832934204D01A6822F00A021A6000
:104CD00003E01A6822F014021A60012384F83530C8
:104CE000002384F83430E36B002B3FF44DAF2046B3
:104CF000984749E7082000FA01F111EA0C0F3FF448
:104D000043AF12F0080F3FF43FAF1A6822F00E02D3
:104D10001A60E36D03F01F03012202FA03F37B60C4
:104D2000626584F83520002384F83430E36C002B6E
:104D30003FF42AAF2046984726E700BF1000024004
:104D400028000240002837D010B5044690F86130A2
:104D5000002B2CD0022384F8613021680A68174B9D
:104D600013406268E069024313430B6021684A6B99
:104D7000134B1340A268A069024313434B6322689C
:104D8000116C104B0B40E1680B43136421684B6BB3
:104D900023F4401320696269520542EA005213432A
:104DA0004B6300206066012384F8613010BD80F8F9
:104DB0006030FDF7CFFDCDE701207047BFFFF8FF62
:104DC000F8FEFFFF0000FFFF70B582B000236EE029
:104DD00085685E000324B44025EA0405CC68B4402D
:104DE0002C438460446824EA0C0C4C68C4F300141F
:104DF0009C4044EA0C0444606CE0DD08083550F83F
:104E0000256003F007044FEA840C0F2404FA0CF425
:104E100026EA040E0C6904FA0CF444EA0E0440F885
:104E200025406FE0092400E0002404FA0EF42C432E
:104E30000CF1020C6B4D45F82C404FF0B044256846
:104E4000D44325EA0206D1F804C01CF4801F01D027
:104E500042EA05064FF0B0452E606D6804EA05068B
:104E6000D1F804C01CF4001F01D042EA05064FF03F
:104E7000B0456E60D5F8845004EA0506D1F804C048
:104E80001CF4003F01D042EA05064FF0B045C5F8DA
:104E90008460D5F880502C404E6816F4803F01D0D5
:104EA00042EA05044FF0B042C2F8804001330A687C
:104EB00032FA03F400F093804FF0010C0CFA03FC7B
:104EC0001CEA0202F2D04C6804F00304013C012CFD
:104ED0007FF67EAF4C6804F00304032C0CD0C4684A
:104EE0005D004FF0030C0CFA05FC24EA0C0C8C68F6
:104EF000AC4044EA0C04C4604C6804F00304022C87
:104F00003FF47BAF04684FEA430E4FF0030C0CFAFA
:104F10000EFC24EA0C0C4C6804F0030404FA0EF4B2
:104F200044EA0C0404604C6814F4403FBED02E4C9C
:104F3000D4F8F45045F00205C4F8F450D4F8F44025
:104F400004F002040194019C4FEA930C0CF1020559
:104F5000244C54F8255003F003044FEA840E0F2428
:104F600004FA0EF425EA0405204CA0423FF45CAF9D
:104F700004F58064A04222D004F58064A04220D0D1
:104F800004F58064A0421ED004F58064A0421CD0C9
:104F900004F58064A0421AD004F58064A04218D0C1
:104FA00004F58064A04216D004F58064A04214D0B9
:104FB00004F58064A0423FF435AF0A2435E70124AC
:104FC00033E7022431E703242FE704242DE70524E7
:104FD0002BE7062429E7072427E7082425E702B062
:104FE00070BD00BF00040058004402580000025881
:104FF0000369194201D001207047002070470AB1AF
:105000008161704709048161704708B54FF0B04372
:10501000D3F88830034200D108BD4FF0B043C3F845
:105020008800FDF743FCF7E7F0B54D680468E368D6
:10503000C3F30B431D444FEAC21C04EBC214D4F863
:10504000883003F47043C4F888300B680468E6685D
:10505000C6F30B463344013304EBC21443EA054361
:10506000C4F88830CD680468E368C3F30A031D44BC
:1050700004EBC21EDEF88C3003F47043CEF88C30A3
:105080008B680468E668C6F30A0E7344013304EBC8
:10509000C21443EA0543C4F88C30036803EBC2131F
:1050A000D3F8944024F00704C3F89440036803EB5A
:1050B000C2130C69C3F8944091F8317091F83260D2
:1050C0008D69046804EBC21404F1840ED4F89C309A
:1050D0000024CEF8184091F8303043EA072343EA21
:1050E0000643066806EBC21E43EA0563CEF89C3011
:1050F0000EF1840E036803EBC213D3F8985025F029
:10510000FF05C3F89850036803EBC2134D69C3F859
:105110009850036803EBC213D3F8A0602E4D3540BE
:10512000C3F8A0500D6A036803EBC213CE69354380
:10513000C3F8A050036803EBC213D3F8AC50C3F814
:10514000AC40036803EBC2124B6AC2F8AC300B6987
:105150006BB1012B39D0022B18BF042B37D0032B96
:1051600037D0072B01D0012502E0022500E00425FD
:1051700002686244D2F8B04004F0E024C2F8B040C3
:105180008A6A05FB02F44B680A689B1A05FB03F365
:1051900007330268624443EA0443C2F8B03003684C
:1051A0006344D3F8B4400D4A2240C3F8B4200368E6
:1051B0006344CA6AC3F8B42003689C44DCF88430B2
:1051C00043F00103CCF88430F0BD0325D0E702257D
:1051D000CEE70225CCE700BFF8F8FFFF00F8FFFF9D
:1051E000002875D010B5044690F8A130002B6AD085
:1051F000022384F8A1302268936923F070439361FD
:1052000021688A696368A0680343E06803432069F2
:10521000034313438B6121688A682E4B1A408A60CE
:1052200020688268A169D4F814C041EA0C410A439D
:1052300082602168CA681A40CA602068C268216A10
:10524000D4F81CC041EA0C410A43C26021680A69D3
:105250001A400A6120680269A16AD4F824C041EAB0
:105260000C410A43026121684A6913404B61E06ABC
:1052700021684B69226B42EA004213434B6194F868
:10528000350094F836301B042168CA6A02F07F4268
:10529000CA622168CA6A43EA002394F834000343CF
:1052A0001343CB622268536B43F0060353632268B7
:1052B000936943F0010393610020C4F8A400012323
:1052C00084F8A13010BD80F8A030FDF751FD8FE7C4
:1052D0000120704700F800F0F8B590F8A030012BDD
:1052E0002CD004460D461646012780F8A0700223F4
:1052F00080F8A1304FF0340C0CFB020C0CF1380C90
:105300008E46BEE80F00ACE80F00BEE80F00ACE828
:105310000F00BEE80F00ACE80F00DEF80030CCF85C
:105320000030324629462046FFF77EFE23685F6242
:1053300084F8A170002084F8A000F8BD0220FCE7EA
:1053400070B515461A4690F8A030012B21D00446BE
:10535000012680F8A060022380F8A130342002FBEF
:1053600000F000F1380C2044836B0B44C363036CE2
:105370002B4443640166456604EB0C012046FFF7AD
:1053800053FE23685E6284F8A160002084F8A000C8
:1053900070BD0220FCE7B0B5044690F8A0000128DB
:1053A00022D017461A46012584F8A050022384F81B
:1053B000A130342002FB00F000F1380C204481635E
:1053C000036E1944C1630764436E3B44436404EBBA
:1053D0000C012046FFF728FE23685D6284F8A15087
:1053E000002084F8A000B0BD0220FCE7134BDB686E
:1053F00013F0040F07D1114BDB6803F0070383425E
:105400001AD00120704710B50C4AD36823F0070367
:105410001843D060FEF73EFA0446084B5B6813F46D
:10542000005F07D1FEF736FA001BB0F57A7FF4D99A
:10543000012000E0002010BD002070470048025805
:10544000002800F0398338B50446036813F0010FD3
:1054500025D0944A136903F03803926A102B15D0B3
:10546000182B0FD06368B3F5803F3FD0002B53D18A
:105470008C4B1A6822F480321A601A6822F4802257
:105480001A6038E002F00302022AEBD1854B1B6858
:1054900013F4003F03D06368002B00F00F832368F0
:1054A00013F0020F00F0A1807E4A1369926A13F094
:1054B00038035AD0182B55D0E368002B00F0DE805B
:1054C00078490A6822F0190213430B60FEF7E2F9EB
:1054D0000546744B1B6813F0040F40F0AD80FEF7D7
:1054E000D9F9401B0228F4D90320EEE26D4A136873
:1054F00043F48033136063682BB3FEF7CBF90546A2
:10550000684B1B6813F4003FC9D1FEF7C3F9401B79
:105510006428F5D90320D8E2B3F5A02F09D0614B58
:105520001A6822F480321A601A6822F480221A6003
:10553000E1E75C4B1A6842F480221A601A6842F470
:1055400080321A60D7E7FEF7A5F90546554B1B6870
:1055500013F4003FA3D0FEF79DF9401B6428F5D952
:105560000320B2E212F0030FA6D14E4B1B6813F0DA
:10557000040F03D0E368002B00F0A282494A1368AD
:1055800023F01903E1680B431360FEF783F9054626
:10559000444B1B6813F0040F06D1FEF77BF9401B48
:1055A0000228F5D9032090E2FEF78EF941F20303B9
:1055B000984212D82269402A07D03A494B6823F40E
:1055C0007C3343EA02334B600FE0364A536823F4DE
:1055D0007C3343F40033536007E0324A536823F0CE
:1055E000FE43216943EA01635360236813F0100FFF
:1055F00000F088802B4A136903F03803926A082B65
:1056000056D0182B50D0E369002B00F0B880254A03
:10561000136843F080031360FEF73CF90546214B05
:105620001B6813F4807F40F08880FEF733F9401B3D
:105630000228F4D9032048E2FEF746F941F20303B9
:10564000984212D82269402A07D016494B6823F4A1
:105650007C3343EA02334B60C7E7124A536823F4B2
:105660007C3343F400335360BFE70E4A536823F0A2
:10567000FE43216943EA01635360B6E7094A1368B0
:1056800023F001031360FEF705F90546054B1B687F
:1056900013F0040FA9D0FEF7FDF8401B0228F5D93E
:1056A000032012E20044025802F00302012AAAD1A8
:1056B000A14B1B6813F4807F03D0E369802B40F07B
:1056C0000182FEF701F941F20303984212D8226ADF
:1056D000202A07D098494B6823F0F84343EA8263B5
:1056E0004B600FE0944A536823F0F84343F0804343
:1056F000536007E0904AD36823F07C53216A43EA61
:105700000163D360236813F0080F60D06369002B36
:1057100049D0894A536F43F001035367FEF7BAF843
:105720000546854B5B6F13F0020F50D1FEF7B2F8C0
:10573000401B0228F5D90320C7E1FEF7C5F841F266
:105740000303984212D8226A202A07D07A494B686C
:1057500023F0F84343EA82634B60D3E7764A536809
:1057600023F0F84343F080435360CBE7724AD36899
:1057700023F07C53216A43EA0163D360C2E76E4A97
:10578000136823F080031360FEF784F805466A4B24
:105790001B6813F4807FB5D0FEF77CF8401B02280D
:1057A000F5D9032091E1644A536F23F00103536755
:1057B000FEF770F80546604B5B6F13F0020F06D0E2
:1057C000FEF768F8401B0228F5D903207DE1236825
:1057D00013F0200F29D0A3699BB1574A136843F4F3
:1057E00080531360FEF756F80546534B1B6813F4BD
:1057F000005F1AD1FEF74EF8401B0228F5D90320AE
:1058000063E14D4A136823F480531360FEF742F8B6
:105810000546494B1B6813F4005F06D0FEF73AF8C3
:10582000401B0228F5D903204FE1236813F0040F31
:1058300021D1636A002B00F047813F4A126902F0D0
:105840003802182A00F0EE80022B79D03A4A136809
:1058500023F080731360FEF71DF80446364B1B6877
:1058600013F0007F00F0DC80FEF714F8001B022824
:10587000F4D9032029E1314A136843F4807313609B
:10588000FEF708F805462D4B1B6813F4807F06D100
:10589000FEF700F8401B6428F5D9032015E1A36842
:1058A000012B0AD00BBB244B1A6F22F001021A679E
:1058B0001A6F22F004021A6704E01F4A136F43F0C4
:1058C00001031367A36833B3FDF7E4FF05461A4BE2
:1058D0001B6F13F0020FACD1FDF7DCFF401B41F250
:1058E00088339842F3D90320EFE0052B09D0124BFF
:1058F0001A6F22F001021A671A6F22F004021A6767
:10590000E0E70D4B1A6F42F004021A671A6F42F07B
:1059100001021A67D6E7FDF7BDFF0546064B1B6F70
:1059200013F0020F85D0FDF7B5FF401B41F288331D
:105930009842F3D90320C8E00044025800480258B6
:10594000694A136823F080731360FDF7A3FF0546CF
:10595000654B1B6813F0007F06D0FDF79BFF401BD3
:105960000228F5D90320B0E05F4B996A5F4A0A40EC
:10597000A16AE06A41EA00110A439A62226B013A85
:10598000C2F30802616B0139490289B20A43A16B73
:105990000139090401F4FE010A43E16B01390906EA
:1059A00001F0FE410A431A63DA6A22F00102DA6268
:1059B000596B4F4A0A40A16C42EAC1025A63DA6A43
:1059C00022F00C02216C0A43DA62DA6A22F0020247
:1059D000616C0A43DA62DA6A42F48032DA62DA6AC5
:1059E00042F40032DA62DA6A42F48022DA62DA6A77
:1059F00042F00102DA621A6842F080721A60FDF722
:105A000049FF0446384B1B6813F0007F06D1FDF7B1
:105A100041FF001B0228F5D9032056E0002054E086
:105A2000002052E0304A916A106B012B4ED001F0F9
:105A30000303A26A93424BD1C1F30511E36A994271
:105A400048D1C0F30802236B013B9A4244D1C0F312
:105A50004622636B013B9A4240D1C0F30642A36BDE
:105A6000013B9A423CD1C0F30660E36B013B984294
:105A700038D11D4B5B6BC3F3CC03A26C9A4201D1AE
:105A8000002022E0184AD36A23F00103D362FDF715
:105A900001FF0546FDF7FEFEA842FBD0124A516BFE
:105AA000134B0B40A16C43EAC1035363D36A43F029
:105AB0000103D362002008E001207047012004E0C8
:105AC000012002E0012000E0002038BD0120FCE7B9
:105AD0000120FAE70120F8E70120F6E70120F4E7CA
:105AE0000120F2E70120F0E7004402580CFCFFFF20
:105AF0000700FFFFF8B57E4B1B6903F03803102B3E
