:020000040800F2
:1000000000000220C52300080506000807060008B6
:10001000090600080B0600080D0600080000000095
:100020000000000000000000000000000F060008B3
:10003000110600080000000013060008150600085D
:1000400015240008152400081524000815240008AC
:10005000152400081524000815240008152400089C
:10006000152400081524000815240008152400088C
:10007000152400081524000815240008152400087C
:10008000152400081524000815240008152400086C
:10009000152400081524000815240008152400085C
:1000A000152400081524000815240008152400084C
:1000B000152400081524000815240008152400083C
:1000C000152400081524000815240008152400082C
:1000D000152400081524000815240008152400081C
:1000E000152400081524000800000000152400084D
:1000F00015240008152400081524000815240008FC
:1001000015240008152400081524000815240008EB
:1001100015240008152400081524000815240008DB
:1001200015240008152400081524000815240008CB
:1001300015240008152400081524000815240008BB
:1001400000000000000000000000000000000000AF
:10015000152400081524000815240008152400089B
:10016000152400081524000815240008152400088B
:10017000152400081524000815240008152400087B
:10018000152400081524000815240008152400086B
:10019000152400081524000815240008152400085B
:1001A000152400081524000815240008152400084B
:1001B000152400081524000815240008152400083B
:1001C000152400081524000815240008152400082B
:1001D000152400081524000815240008152400081B
:1001E000152400081524000815240008152400080B
:1001F00015240008152400081524000815240008FB
:1002000015240008152400081524000815240008EA
:1002100015240008152400081524000815240008DA
:10022000152400081524000815240008000000000B
:1002300015240008152400080000000015240008FB
:1002400015240008152400081524000815240008AA
:10025000152400081524000815240008152400089A
:10026000152400081524000815240008152400088A
:1002700015240008152400081524000800000000BB
:1002800015240008152400081524000800000000AB
:08029000000000001524000825
:100298000348044B834202D0034B03B1184770470D
:1002A800100000201000002000000000054806494A
:1002B8000B1AD90F01EBA301491002D0034B03B16C
:1002C80018477047100000201000002000000000B0
:1002D80010B5064C237843B9FFF7DAFF044B13B186
:1002E8000448AFF300800123237010BD10000020E4
:1002F800000000001824000808B5044B1BB104498D
:100308000448AFF30080BDE80840CFE700000000D4
:10031800140000201824000870B50D4E0D4D761BF2
:10032800B61006D0002455F8043B01349847A6427D
:10033800F9D1094E094D761B02F06AF8B61006D0BD
:10034800002455F8043B01349847A642F9D170BD02
:1003580040240008402400084424000840240008E1
:10036800830730B548D0541E002A3FD0CAB203468E
:1003780001E0013C3AD303F8012B9D07F9D1032C86
:100388002DD9CDB245EA05250F2C45EA054536D9C4
:10039800A4F1100222F00F0C03F1200EE6444FEAFC
:1003A800121C03F1100242E9045542E902551032C9
:1003B8007245F8D10CF1010214F00C0F03EB021294
:1003C80004F00F0C13D0ACF1040323F0030304333F
:1003D800134442F8045B9342FBD10CF003042CB1A4
:1003E800CAB21C4403F8012B9C42FBD130BD6446C1
:1003F8001346002CF4D1F9E703461446BFE71A4622
:10040800A446E0E710B584B0002400940194029457
:10041800039400F06DF901238DF800308DF8014048
:1004280001941F228DF8082087228DF809208DF865
:100438000A408DF80B408DF80C308DF80D308DF892
:100448000E408DF80F40684600F070F9042000F067
:100458005DF904B010BD72B6FEE7000000B5CFB07C
:100468004C2200213BA8FFF77BFF2022002133A864
:10047800FFF776FFC022002102A8FFF771FF0220D4
:1004880001F08AFE002301932B4B9A6942F4404203
:100498009A619B6903F440430193284BDA6A42F05E
:1004A8000102DA62DB6A03F001030193019B224B2C
:1004B8009B6913F4005FFAD002233B9301223E921A
:1004C80040223F92449300224592042146913C21C8
:1004D8004791489349934A930C234B934C924D92DE
:1004E8003BA800F053F908BB3F233393032334930D
:1004F80000233593082336934023379338934FF4DA
:10050800806239923A93042133A800F093FD78B9B8
:100518000B4A0023CDE9022300231693209302A857
:1005280000F0DEFF30B94FB05DF804FBFFF793FF32
:10053800FFF791FFFFF78FFF0048025800040058AB
:100548000200010008B501F079FEFFF75BFFFFF735
:1005580085FF00F00DF8054A536983F400435361A1
:100568004FF4FA7001F0AAFEF5E700BF0008025840
:1005780030B589B000240394049405940694079434
:100588001C4BD3F8E02042F00102C3F8E020D3F876
:10059800E02002F001020092009AD3F8E02042F035
:1005A8000402C3F8E020D3F8E02002F0040201922C
:1005B800019AD3F8E02042F08002C3F8E020D3F893
:1005C800E03003F080030293029B0B4D22464FF468
:1005D8000041284601F0DAFD4FF40043039301235C
:1005E80004930594069403A9284601F0BFFC09B0BA
:1005F80030BD00BF0044025800080258FEE7FEE77D
:10060800FEE7FEE7FEE770477047704708B501F060
:1006180043FE08BD82B0074BD3F8F42042F0020233
:10062800C3F8F420D3F8F43003F002030193019BDC
:1006380002B07047004402580649CB6823F4E063CF
:100648001B041B0C000200F4E0600343024A1A4337
:10065800CA60704700ED00E00000FA0500B5174BCE
:10066800DB68C3F30223C3F1070CBCF1040F28BFF6
:100678004FF0040C03F1040EBEF1060F14D9033B2E
:100688004FF0FF3E0EFA0CFC21EA0C0199400EFADD
:1006980003F322EA03031943002807DB0901C9B25F
:1006A800074B19545DF804FB0023E9E700F00F003D
:1006B8000901C9B2034B1954F4E700BF00ED00E08B
:1006C80000E400E014ED00E00138B0F1807F0BD2C7
:1006D8004FF0E0235861054AF02182F823100020EA
:1006E800986107221A6170470120704700ED00E009
:1006F800BFF35F8F044B5A6A22F480325A62002299
:10070800C3F89420704700BF00ED00E040F00100FE
:10071800054BC3F894005A6A42F480325A62BFF318
:100728004F8FBFF36F8F704700ED00E04278164B94
:10073800C3F898200378FBB14368134AC2F89C3089
:10074800017BC37A1B0643EA0173817A43EAC143FA
:10075800417B43EA8143817B43EA4143C17B43EACE
:100768000143417A43EA0123017A43EA41030178CC
:100778000B43C2F8A0307047034B0022C3F89C20FB
:10078800C3F8A020704700BF00ED00E0002800F08B
:10079800398338B50446036813F0010F25D0944A0D
:1007A800136903F03803926A102B15D0182B0FD059
:1007B8006368B3F5803F3FD0002B53D18C4B1A6848
:1007C80022F480321A601A6822F480221A6038E013
:1007D80002F00302022AEBD1854B1B6813F4003F99
:1007E80003D06368002B00F00F83236813F0020F17
:1007F80000F0A1807E4A1369926A13F038035AD038
:10080800182B55D0E368002B00F0DE8078490A6881
:1008180022F0190213430B6001F04AFD0546744BA0
:100828001B6813F0040F40F0AD8001F041FD401B40
:100838000228F4D90320EEE26D4A136843F48033AA
:10084800136063682BB301F033FD0546684B1B68E2
:1008580013F4003FC9D101F02BFD401B6428F5D9E2
:100868000320D8E2B3F5A02F09D0614B1A6822F40F
:1008780080321A601A6822F480221A60E1E75C4B21
:100888001A6842F480221A601A6842F480321A60A8
:10089800D7E701F00DFD0546554B1B6813F4003FE3
:1008A800A3D001F005FD401B6428F5D90320B2E26E
:1008B80012F0030FA6D14E4B1B6813F0040F03D0A0
:1008C800E368002B00F0A282494A136823F0190359
:1008D800E1680B43136001F0EBFC0546444B1B68D1
:1008E80013F0040F06D101F0E3FC401B0228F5D9F0
:1008F800032090E201F0F6FC41F20303984212D87B
:100908002269402A07D03A494B6823F47C3343EAEA
:1009180002334B600FE0364A536823F47C3343F4C8
:100928000033536007E0324A536823F0FE432169DD
:1009380043EA01635360236813F0100F00F08880C6
:100948002B4A136903F03803926A082B56D0182BE8
:1009580050D0E369002B00F0B880254A136843F0B3
:100968008003136001F0A4FC0546214B1B6813F4B7
:10097800807F40F0888001F09BFC401B0228F4D95E
:10098800032048E201F0AEFC41F20303984212D87A
:100998002269402A07D016494B6823F47C3343EA7E
:1009A80002334B60C7E7124A536823F47C3343F49D
:1009B80000335360BFE70E4A536823F0FE432169B2
:1009C80043EA01635360B6E7094A136823F0010359
:1009D800136001F06DFC0546054B1B6813F0040F0E
:1009E800A9D001F065FC401B0228F5D9032012E2CA
:1009F8000044025802F00302012AAAD1A14B1B6845
:100A080013F4807F03D0E369802B40F0018201F06A
:100A180069FC41F20303984212D8226A202A07D0BF
:100A280098494B6823F0F84343EA82634B600FE030
:100A3800944A536823F0F84343F08043536007E037
:100A4800904AD36823F07C53216A43EA0163D36058
:100A5800236813F0080F60D06369002B49D0894AD6
:100A6800536F43F00103536701F022FC0546854BA1
:100A78005B6F13F0020F50D101F01AFC401B0228E3
:100A8800F5D90320C7E101F02DFC41F20303984298
:100A980012D8226A202A07D07A494B6823F0F843F3
:100AA80043EA82634B60D3E7764A536823F0F843FE
:100AB80043F080435360CBE7724AD36823F07C53FA
:100AC800216A43EA0163D360C2E76E4A136823F0E0
:100AD8008003136001F0ECFB05466A4B1B6813F4B6
:100AE800807FB5D001F0E4FB401B0228F5D9032034
:100AF80091E1644A536F23F00103536701F0D8FB77
:100B08000546604B5B6F13F0020F06D001F0D0FB77
:100B1800401B0228F5D903207DE1236813F0200F3C
:100B280029D0A3699BB1574A136843F480531360D3
:100B380001F0BEFB0546534B1B6813F4005F1AD146
:100B480001F0B6FB401B0228F5D9032063E14D4AAA
:100B5800136823F48053136001F0AAFB0546494B40
:100B68001B6813F4005F06D001F0A2FB401B0228AB
:100B7800F5D903204FE1236813F0040F21D1636AEC
:100B8800002B00F047813F4A126902F03802182A08
:100B980000F0EE80022B79D03A4A136823F0807374
:100BA800136001F085FB0446364B1B6813F0007F89
:100BB80000F0DC8001F07CFB001B0228F4D9032044
:100BC80029E1314A136843F48073136001F070FB24
:100BD80005462D4B1B6813F4807F06D101F068FB96
:100BE800401B6428F5D9032015E1A368012B0AD01E
:100BF8000BBB244B1A6F22F001021A671A6F22F0FE
:100C080004021A6704E01F4A136F43F001031367D5
:100C1800A36833B301F04CFB05461A4B1B6F13F066
:100C2800020FACD101F044FB401B41F288339842DB
:100C3800F3D90320EFE0052B09D0124B1A6F22F0ED
:100C480001021A671A6F22F004021A67E0E70D4BD7
:100C58001A6F42F004021A671A6F42F001021A670B
:100C6800D6E701F025FB0546064B1B6F13F0020F74
:100C780085D001F01DFB401B41F288339842F3D91F
:100C88000320C8E00044025800480258694A136823
:100C980023F08073136001F00BFB0546654B1B685E
:100CA80013F0007F06D001F003FB401B0228F5D9A2
:100CB8000320B0E05F4B996A5F4A0A40A16AE06A84
:100CC80041EA00110A439A62226B013AC2F3080210
:100CD800616B0139490289B20A43A16B01390904E0
:100CE80001F4FE010A43E16B0139090601F0FE41F6
:100CF8000A431A63DA6A22F00102DA62596B4F4A30
:100D08000A40A16C42EAC1025A63DA6A22F00C0274
:100D1800216C0A43DA62DA6A22F00202616C0A4341
:100D2800DA62DA6A42F48032DA62DA6A42F400326B
:100D3800DA62DA6A42F48022DA62DA6A42F001029E
:100D4800DA621A6842F080721A6001F0B1FA044659
:100D5800384B1B6813F0007F06D101F0A9FA001B7D
:100D68000228F5D9032056E0002054E0002052E084
:100D7800304A916A106B012B4ED001F00303A26A2E
:100D880093424BD1C1F30511E36A994248D1C0F3AC
:100D98000802236B013B9A4244D1C0F34622636B9D
:100DA800013B9A4240D1C0F30642A36B013B9A42F1
:100DB8003CD1C0F30660E36B013B984238D11D4B30
:100DC8005B6BC3F3CC03A26C9A4201D1002022E0F2
:100DD800184AD36A23F00103D36201F069FA054681
:100DE80001F066FAA842FBD0124A516B134B0B4034
:100DF800A16C43EAC1035363D36A43F00103D3628E
:100E0800002008E001207047012004E0012002E0F2
:100E1800012000E0002038BD0120FCE70120FAE7AE
:100E28000120F8E70120F6E70120F4E70120F2E7C6
:100E38000120F0E7004402580CFCFFFF0700FFFF09
:100E4800744B1B6903F03803102B00F0DE80182B5D
:100E580010D00BB1704870476E4B1B6813F0200F11
:100E680000F0D5806B4B1868C0F3C1006B4B23FAB8
:100E780000F0704710B4674A916A01F00301946A60
:100E8800C4F30510D36A03F0010C536BC3F3CC030E
:100E98000CFB03F307EE903AF8EE677A14F47C7FC4
:100EA80000F09380012965D0022900F09180E1B11A
:100EB80007EE100AF8EE476A9FED596A86EE267A21
:100EC800544B1B6BC3F3080306EE903AF8EE666AC0
:100ED8009FED546A67EE867A76EEA77AF7EE006A97
:100EE80077EEA67A27EE277A60E0136813F0200FD2
:100EF80023D011461268C2F3C102484BD34007EE13
:100F0800103AF8EE476A07EE100AB8EE476A86EE1E
:100F1800867A0B6BC3F3080306EE903AF8EE666A1E
:100F28009FED406A67EE867A76EEA77AF7EE006A5A
:100F380077EEA67A27EE277A38E007EE100AF8EE61
:100F4800476A9FED396A86EE267A324B1B6BC3F3EC
:100F5800080306EE903AF8EE666A9FED326A67EE8D
:100F6800867A76EEA77AF7EE006A77EEA67A27EE0B
:100F7800277A1BE007EE100AF8EE476A9FED286A09
:100F880086EE267A234B1B6BC3F3080306EE903AD2
:100F9800F8EE666A9FED236A67EE867A76EEA77AA0
:100FA800F7EE006A77EEA67A27EE277A194B1B6BC5
:100FB800C3F34623013307EE903AF8EE677AC7EE9B
:100FC800276AFCEEE67A17EE900A5DF8044B704744
:100FD80007EE100AF8EE476A9FED146A86EE267A45
:100FE8000C4B1B6BC3F3080306EE903AF8EE666AE7
:100FF8009FED0C6A67EE867A76EEA77AF7EE006ABE
:1010080077EEA67A27EE277AD0E709487047034893
:10101800704700BF0044025800093D000090D0030B
:101028000024744A000000390024744C20BCBE4BD4
:1010380040787D01002800F0328170B50D460446E5
:101048009B4B1B6803F00F038B420BD2984A136823
:1010580023F00F030B431360136803F00F038B4255
:1010680040F01F81236813F0040F0CD02269914BC4
:101078009B6903F070039A4205D98E498B6923F066
:1010880070031A438A61236813F0080F0CD0626951
:10109800884BDB6903F070039A4205D98549CB690F
:1010A80023F070031A43CA61236813F0100F0CD0A1
:1010B800A269804BDB6903F4E0639A4205D97D4954
:1010C800CB6923F4E0631A43CA61236813F0200F45
:1010D8000CD0E269774B1B6A03F070039A4205D97A
:1010E80074490B6A23F070031A430A62236813F0E9
:1010F800020F0CD0E2686F4B9B6903F00F039A4212
:1011080005D96C498B6923F00F031A438A61236858
:1011180013F0010F41D0674A936923F47063A16803
:101128000B4393616368022B0AD0032B27D0012B52
:101138002CD0604A126812F0040F06D10120ADE0ED
:10114800126812F4003F00F0AE805A490A6922F092
:10115800070213430B6101F0ABF80646554B1B69B8
:1011680003F038036268B3EBC20F16D001F0A0F8A1
:10117800801B41F288339842F0D903208EE04D4A13
:10118800126812F0007FE0D1012087E0494A126816
:1011980012F4807FD9D1012080E0236813F0020F78
:1011A8000CD0E268434B9B6903F00F039A4205D2C7
:1011B80040498B6923F00F031A438A613C4B1B6833
:1011C80003F00F03AB420AD9394A136823F00F031F
:1011D8002B431360136803F00F03AB4265D12368F8
:1011E80013F0040F0CD02269324B9B6903F0700393
:1011F8009A4205D22F498B6923F070031A438A61FA
:10120800236813F0080F0CD062692A4BDB6903F0DE
:1012180070039A4205D22749CB6923F070031A4319
:10122800CA61236813F0100F0CD0A269214BDB6947
:1012380003F4E0639A4205D21E49CB6923F4E063C4
:101248001A43CA61236813F0200F0CD0E269194BC6
:101258001B6A03F070039A4205D216490B6A23F001
:1012680070031A430A62FFF7EBFD12498B69C3F357
:101278000323114AD35C03F01F03D8408B6903F0A2
:101288000F03D35C03F01F0320FA03F30B4A136028
:101298000B4B18600B4B186800F0A8FF70BD0120BD
:1012A80070470120FAE70120F8E70120F6E700BFC0
:1012B8000020005200440258302400080C0000208E
:1012C8000800002004000020404B9B6A03F0030341
:1012D800032B79D070B505460E463C4A136823F0B7
:1012E8008063136000F0E4FF0446384B1B6813F07A
:1012F800006F06D000F0DCFF031B022BF5D903209A
:1013080070BD324B9A6A22F47C32296842EA013273
:101318009A626A68013AC2F30802A9680139490267
:1013280089B20A43E9680139090401F4FE010A4354
:1013380029690139090601F0FE410A439A63DA6A0C
:1013480022F0C00269690A43DA62DA6A22F02002EE
:10135800A9690A43DA62DA6A22F01002DA62D96B02
:101368001B4A0A40E96942EAC102DA63DA6A42F0D2
:101378001002DA62C6B91A46DB6A43F40023D36264
:10138800124A136843F08063136000F091FF04462B
:101398000E4B1B6813F0006F14D100F089FF001B7F
:1013A8000228F5D90320ABE7012E05D0074AD36AF6
:1013B80043F40013D362E3E7044AD36A43F4801387
:1013C800D362DDE700209BE7012070470044025804
:1013D8000700FFFF404B9B6A03F00303032B79D000
:1013E80070B505460E463C4A136823F080531360D7
:1013F80000F05EFF0446384B1B6813F0005F06D010
:1014080000F056FF031B022BF5D9032070BD324BA9
:101418009A6A22F07C72296842EA01529A626A68E2
:10142800013AC2F30802A9680139490289B20A439C
:10143800E9680139090401F4FE010A4329690139FF
:10144800090601F0FE410A431A64DA6A22F440628E
:1014580069690A43DA62DA6A22F40072A9690A43FE
:10146800DA62DA6A22F48072DA62596C1B4A0A403C
:10147800E96942EAC1025A64DA6A42F48072DA62BD
:10148800C6B91A46DB6A43F48003D362124A13686A
:1014980043F08053136000F00BFF04460E4B1B68AB
:1014A80013F0005F14D100F003FF001B0228F5D9E8
:1014B8000320ABE7012E05D0074AD36A43F08073B7
:1014C800D362E3E7044AD36A43F40003D362DDE757
:1014D80000209BE701207047004402580700FFFFE7
:1014E800F8B50446036813F0006F30D0836EB3F587
:1014F800001F26D00ED8EBB1B3F5801F07D102210B
:101508000830FFF7E1FE054645B12E4621E00126E9
:1015180035461EE0B3F5401F09D10025984A136DE2
:1015280023F44013A16E0B431365002611E0012636
:1015380035460EE0924AD36A43F40033D36200255D
:10154800ECE702212830FFF745FF0546DCE70026D7
:101558003546236813F4807F14D0A36D042B32D84A
:10156800DFE803F003232A080800854AD36A43F416
:101578000033D36255BB824A136D23F00703A16D74
:101588000B431365236813F4007F31D0E36D802B80
:101598004CD020D8002B43D0402B19D1002104F186
:1015A8000800FFF791FE05461AE0002104F1080043
:1015B800FFF78AFE0546DDE7002104F12800FFF762
:1015C80009FF0546D6E701263546DBE72E46D9E76B
:1015D800012635460CE0C02B02D0B3F5807F1CD124
:1015E8005DBB674A136D23F4E073E16D0B4313652C
:1015F800236813F4806F46D0D4F8A830B3F5800F71
:1016080039D01FD88BB3B3F5001F18D1002104F1CE
:101618000800FFF759FE05461AE001263546E7E7B8
:10162800574AD36A43F40033D362D9E7002104F15F
:101638002800FFF7CFFE0546D2E72E46D8E7012659
:10164800354620E0B3F5C00F02D0B3F5000F09D13D
:10165800C5B94B4A936D23F46003D4F8A8100B4323
:10166800936510E0012635460DE0454AD36A43F4F8
:101678000033D362ECE7002104F12800FFF7AAFE4B
:101688000546E5E72E46236813F4006F24D0D4F806
:10169800AC30B3F1007F42D00ED8002B39D0B3F173
:1016A800807F06D1002104F10800FFF70DFE0546F2
:1016B80008E0012635460FE0B3F1407F02D0B3F1D0
:1016C800806F23D1002D31D12D4A936D23F0E06333
:1016D800D4F8AC100B439365236813F0007F2ED029
:1016E800E36C202B40D026D833B1102B20D1244ACC
:1016F800D36A43F40033D362002D3CD1204AD36C23
:1017080023F03003E16C0B43D36418E0012635461F
:10171800E2E71B4AD36A43F40033D362D2E70021DD
:1017280004F12800FFF756FE0546CBE72E46D3E71F
:101738000126354603E0302BDED0012635462368E6
:1017480013F4805F2DD0236EB3F5005F4FD019D806
:10175800002B46D0B3F5805F0FD1002104F10800BB
:10176800FFF7B2FD054613E0022104F10800FFF778
:10177800ABFD0546C0E72E46E1E70126354610E0F9
:1017880000440258B3F5405F02D0B3F5804F25D12D
:10179800002D33D1774A136D23F4E043216E0B43B8
:1017A8001365236813F4005F38D0636EB3F5003F08
:1017B80053D028D843B1B3F5803F21D1012104F19A
:1017C8000800FFF781FD0546002D4DD1694A136DCC
:1017D80023F4E023616E0B4313651FE001263546B1
:1017E800DFE7644AD36A43F40033D362D0E70021C9
:1017F80004F12800FFF7EEFD0546C9E72E46D0E7BD
:10180800012635460AE0B3F5802FDDD0B3F5A02FC9
:10181800DAD0B3F5403FD7D001263546236813F414
:10182800804F31D0D4F8B030B3F1005F45D020D824
:1018380043B1B3F1805F19D1012104F10800FFF72A
:1018480043FD0546002D3FD14A4A936D23F0E043FE
:10185800D4F8B0100B43936516E0012104F1280079
:10186800FFF7B8FD0546AFE72E46D7E70126354610
:101878000AE0B3F1804FE5D0B3F1A04FE2D0B3F165
:10188800405FDFD001263546236813F4004F09D0A6
:10189800236FB3F1805F19D0B3F1005F24D0D3B1C7
:1018A80001263546236813F0807F33D0A36C032BC1
:1018B8005BD8DFE803F027225327012104F1280031
:1018C800FFF788FD0546BDE72E46DDE7294AD36ABE
:1018D80043F40033D36275B9264A136D23F040539D
:1018E800216F0B431365DDE7012104F10800FFF7C1
:1018F800EBFC0546EFE72E46D4E71E4AD36A43F4CD
:101908000033D362A5BB1B4AD36C23F00303A16C3D
:101918000B43D364236813F4800F2DD1236813F08D
:10192800010F00F0A580E36F282B00F29F80DFE80D
:1019380003F08D9D9D9D9D9D9D9D879D9D9D9D9D3C
:101948009D9D969D9D9D9D9D9D9D8D9D9D9D9D9DD6
:101958009D9D8D9D9D9D9D9D9D9D8D00022104F1C8
:101968000800FFF7B1FC0546CCE701263546D1E76C
:101978002E46CFE700440258914A136843F4807317
:10198800136000F095FC07468D4B1B6813F4807FAD
:1019980005D100F08DFCC01B6428F5D90325002D66
:1019A8004AD1884B1B6FD4F8B420534013F4407FBE
:1019B8000CD0844B1A6F22F44072196F41F48031B5
:1019C8001967196F21F4803119671A67D4F8B43090
:1019D800B3F5807F15D08DBBD4F8B43003F44072D2
:1019E800B2F5407F1ED0774A136923F47C53136104
:1019F80074490B6FD4F8B420C2F30B0213430B677E
:101A08008CE700F055FC07466E4B1B6F13F0020F76
:101A1800E1D100F04DFCC01B41F288339842F3D964
:101A28000325D8E76748026922F47C52664901EA2F
:101A3800131313430361DBE72E466FE72E466DE76A
:101A4800012104F10800FFF73FFC0546E5B95D4AAE
:101A5800536D23F03803E16F0B43536508E0012110
:101A680004F12800FFF7B6FC0546EFE701263546E6
:101A7800236813F0020F17D0A36F052B28D8DFE8CF
:101A880003F00B05200B0B0B2E46F1E7012104F1A7
:101A98000800FFF719FC0546EDB94A4A536D23F0D3
:101AA8000703A16F0B435365236813F0040F23D07A
:101AB800D4F89430052B45D8DFE803F0150F3D1511
:101AC8001515012104F12800FFF784FC0546E3E71A
:101AD80001263546E8E72E46E6E7012104F108002D
:101AE800FFF7F2FB054685BB364A936D23F00703E3
:101AF800D4F894100B439365236813F0200F34D067
:101B0800D4F89030B3F1005F4ED023D843B1B3F18D
:101B1800805F1CD1002104F10800FFF7D5FB0546C2
:101B2800002D48D1274A536D23F0E043D4F8901094
:101B38000B43536519E0012104F12800FFF74AFC23
:101B48000546D0E701263546D6E72E46D4E70126D6
:101B580035460AE0B3F1804FE2D0B3F1A04FDFD0B1
:101B6800B3F1405FDCD001263546236813F0400FFF
:101B780037D0D4F89C30B3F5006F53D026D843B192
:101B8800B3F5806F19D1002104F10800FFF79CFB21
:101B98000546002D4DD10B4A936D23F4E053D4F83C
:101BA8009C100B4393651CE0022104F12800FFF709
:101BB80011FC0546B4E72E46D7E70126354610E066
:101BC8000048025800440258CFFFFF00B3F5805F79
:101BD800DFD0B3F5A05FDCD0B3F5406FD9D00126D4
:101BE8003546236813F0800F33D0D4F8A030B3F50E
:101BF800804F00F0A38021D843B1B3F5005F1AD11C
:101C0800002104F10800FFF75FFB0546002D40F0B6
:101C18009C80814A936D23F46043D4F8A0100B4351
:101C2800936516E0022104F12800FFF7D3FB05466F
:101C3800AFE72E46D5E7012635460AE0B3F5004F53
:101C4800E4D0B3F5204FE1D0B3F5C04FDED0012684
:101C58003546236813F0080F0CD0D4F88430B3F558
:101C6800805F74D06C4A536D23F44053D4F88410C9
:101C78000B435365236813F0100F0CD0D4F8983039
:101C8800B3F5807F6CD0644A936D23F44073D4F825
:101C980098100B439365236813F4002F0BD0D4F8E6
:101CA800A430B3F5803F74D0B3F5003F67D0002B64
:101CB8005FD001263546236813F4802F0CD0D4F862
:101CC8008830B3F5001F7CD0B3F5401F6FD0B3F553
:101CD800801F67D001263546236813F4803F08D05B
:101CE800236D002B76D0B3F5803F00F0818001266C
:101CF8003546236813F0005F40F08380236813F4AF
:101D0800003F00F08E80D4F88030B3F5807F00F07B
:101D1800EC8040F28380B3F5007F03D0B3F5407FB9
:101D280040F0E180002D40F0E6803B4A536D23F4FB
:101D38004073D4F880100B43536572E0022104F11C
:101D48002800FFF747FB054660E72E4681E702219A
:101D580004F12800FFF73EFB002883D0012681E725
:101D6800022104F12800FFF735FB00288BD001265B
:101D780089E7002104F10800FFF7A6FA05467DB9B6
:101D8800254A936D23F44033D4F8A4100B4393658C
:101D980091E7022104F12800FFF71CFB0546EEE756
:101DA8002E4688E71C4AD36A43F40033D3627DB9D0
:101DB800194A536D23F44013D4F888100B43536524
:101DC8008AE7012104F12800FFF704FB0546EEE746
:101DD8002E4681E7104AD36A43F40033D36275B9BB
:101DE8000D4AD36C23F48033216D0B43D36480E711
:101DF800022104F10800FFF767FA0546EFE72E46CF
:101E080077E7022104F12800FFF7E4FA00283FF4FD
:101E180075AF012672E700BF00440258002B81D03D
:101E28000126236813F4801F06D04F4A136D23F050
:101E38000043616F0B431365236813F0805F07D07D
:101E4800494A136923F48043D4F8B8100B4313614B
:101E5800236813F4001F06D0434A136D23F08073E0
:101E6800E16E0B431365236813F0804F09D03E4B96
:101E78001A6922F400421A611A69D4F8BC100A439C
:101E88001A612368002B06DA374AD36C23F04053D3
:101E9800616D0B43D364236813F4000F07D0324AF3
:101EA800536D23F44003D4F88C100B4353656368D7
:101EB80013F0010F21D1636813F0020F26D1636874
:101EC80013F0040F2BD1636813F0080F30D1636847
:101ED80013F0100F35D1636813F0200F3AD106B113
:101EE80001263046F8BD01269BE71F4AD36A43F412
:101EF8000033D36216E72E4693E7002104F1080069
:101F0800FFF7E2F90028D6D00646D4E7012104F10C
:101F18000800FFF7D9F90028D1D00646CFE70221FB
:101F280004F10800FFF7D0F90028CCD00646CAE72C
:101F3800002104F12800FFF74DFA0028C7D0064613
:101F4800C5E7012104F12800FFF744FA0028C2D0B0
:101F58000646C0E7022104F12800FFF73BFA0028F3
:101F6800BDD00646BBE700BF00440258F0B583B0B9
:101F780000236BE085685E000324B44025EA04056D
:101F8800CC68B4402C438460446824EA0C0C4C6848
:101F9800C4F300149C4044EA0C04446068E0DD0883
:101FA800083550F8256003F007044FEA840C0F2425
:101FB80004FA0CF426EA040E0C6904FA0CF444EA58
:101FC8000E0440F825406BE0092400E0002404FAE0
:101FD8000EF42C430CF1020C694D45F82C404FF0DF
:101FE800B0442568D44325EA02064F6817F4801FD9
:101FF80001D042EA05064FF0B0452E606D6804EA4C
:1020080005064F6817F4001F01D042EA05064FF095
:10201800B0456E60D5F8845004EA05064F6817F499
:10202800003F01D042EA05064FF0B045C5F884608C
:10203800D5F880502C404E6816F4803F01D042EA13
:1020480005044FF0B042C2F8804001330A6832FA02
:1020580003F400F092804FF0010C0CFA03FC1CEA28
:102068000202F2D04C6804F00304013C012C81D92F
:102078004C6804F00304032C0CD0C4685D004FF0D6
:10208800030C0CFA05FC24EA0C0C8C68AC4044EAFE
:102098000C04C4604C6804F00304022C3FF47FAFC6
:1020A80004684FEA430E4FF0030C0CFA0EFC24EAC6
:1020B8000C0C4C6804F0030404FA0EF444EA0C0413
:1020C80004604C6814F4403FBFD02E4CD4F8F45050
:1020D80045F00205C4F8F450D4F8F44004F00204C2
:1020E8000194019C4FEA930C0CF10205244C54F81E
:1020F800255003F003044FEA840E0F2404FA0EF46B
:1021080025EA0405204CA0423FF460AF04F5806442
:10211800A04222D004F58064A04220D004F5806457
:10212800A0421ED004F58064A0421CD004F580644F
:10213800A0421AD004F58064A04218D004F5806447
:10214800A04216D004F58064A04214D004F580643F
:10215800A0423FF439AF0A2439E7012437E70224C3
:1021680035E7032433E7042431E705242FE7062461
:102178002DE707242BE7082429E703B0F0BD00BFAB
:102188000004005800440258000002580AB1816156
:102198007047090481617047134BDB6813F0040F23
:1021A80007D1114BDB6803F0070383421AD00120E3
:1021B800704710B50C4AD36823F007031843D06062
:1021C80000F076F80446084B5B6813F4005F07D10B
:1021D80000F06EF8001BB0F57A7FF4D9012000E01A
:1021E800002010BD0020704700480258104B1B7893
:1021F8000BB90120704710B504464FF47A70B0FB54
:10220800F3F30C4A1068B0FBF3F0FEF75DFA68B917
:102218000F2C01D901200AE0002221464FF0FF309F
:10222800FEF71CFA044B1C60002000E0012010BDE2
:1022380000000020080000200400002010B5032042
:10224800FEF7FAF9FEF7FCFD0F498B69C3F3032388
:102258000E4AD35C03F01F03D8408B6903F00F03C9
:10226800D35C03F01F0320FA03F3094A1360094BF8
:1022780018600F20FFF7BAFF10B10124204610BDE7
:102288000446FEF7C7F9F9E700440258302400086D
:102298000C00002008000020034B1B78034A11683B
:1022A8000B441360704700BF000000202C00002082
:1022B800014B1868704700BF2C00002038B5044651
:1022C800FFF7F6FF0546B4F1FF3F02D0044B1B7839
:1022D8001C44FFF7EDFF401BA042FAD338BD00BFF6
:1022E80000000020014B1868000C70470010005CCB
:1022F800274AD2F8883043F47003C2F88830254B57
:102308001B6803F00F03062B06D8224A136823F034
:102318000F0343F0070313601F4B1A6842F00102D2
:102328001A6000221A6119681C4A0A401A60194B7F
:102338001B6813F0080F06D0164A136823F00F0322
:1023480043F007031360144B00229A61DA611A62A2
:10235800134999621349D962134919635A639963F6
:10236800DA6319645A64196821F4802119601A66BD
:102378000E4B1A680E4B1340B3F1005F03D20D4B9E
:102388000122C3F808210C4B43F2D2021A607047AD
:1023980000ED00E000200052004402587FEDF6EA0C
:1023A800000202020000FF01800201010010005C2F
:1023B8000000FFFF0080005100400052DFF834D0D9
:1023C800FFF796FF0C480D490D4A002302E0D45848
:1023D800C4500433C4188C42F9D30A4A0A4C002367
:1023E80001E013600432A242FBD3FDF795FFFEF72C
:1023F800A9F870470000022000000020100000200B
:10240800482400081000002030000020FEE70000EB
:10241800F8B500BFF8BC08BC9E467047F8B500BFC9
:08242800F8BC08BC9E46704799
:10243000000000000102030401020304060708096A
:04244000010300088C
:04244400D9020008B1
:1024480001000000100000000090D0030090D003AD
:04000005080023C507
:00000001FF
