:020000040800F2
:1000000000000824550B0008810A0008830A000834
:10001000850A0008870A0008890A00080000000015
:100020000000000000000000000000008B0A000833
:100030008D0A0008000000008F0A0008910A0008DD
:10004000A50B0008A50B0008A50B0008A50B0008D0
:10005000A50B0008A50B0008A50B0008A50B0008C0
:10006000A50B0008A50B0008A50B0008A50B0008B0
:10007000A50B0008A50B0008A50B0008A50B0008A0
:10008000A50B0008A50B0008A50B0008A50B000890
:10009000A50B0008A50B0008A50B0008A50B000880
:1000A000A50B0008A50B0008A50B0008A50B000870
:1000B000A50B0008A50B0008A50B0008A50B000860
:1000C000A50B0008A50B0008A50B0008A50B000850
:1000D000A50B0008A50B0008A50B0008A50B000840
:1000E000A50B0008A50B000800000000A50B0008E8
:1000F000A50B0008A50B0008A50B0008A50B000820
:10010000A50B0008A50B0008A50B0008A50B00080F
:10011000A50B0008A50B0008A50B0008A50B0008FF
:10012000A50B0008A50B0008A50B0008A50B0008EF
:10013000A50B0008A50B0008A50B0008A50B0008DF
:1001400000000000000000000000000000000000AF
:10015000A50B0008A50B0008A50B0008A50B0008BF
:10016000A50B0008A50B0008A50B0008A50B0008AF
:10017000A50B0008A50B0008A50B0008A50B00089F
:10018000A50B0008A50B0008A50B0008A50B00088F
:10019000A50B0008A50B0008A50B0008A50B00087F
:1001A000A50B0008A50B0008A50B0008A50B00086F
:1001B000A50B0008A50B0008A50B0008A50B00085F
:1001C000A50B0008A50B0008A50B0008A50B00084F
:1001D000A50B0008A50B0008A50B0008A50B00083F
:1001E000A50B0008A50B0008A50B0008A50B00082F
:1001F000A50B0008A50B0008A50B0008A50B00081F
:10020000A50B0008A50B0008A50B0008A50B00080E
:10021000A50B0008A50B0008A50B0008A50B0008FE
:10022000A50B0008A50B0008A50B000800000000A6
:10023000A50B0008A50B000800000000A50B000896
:10024000A50B0008A50B0008A50B0008A50B0008CE
:10025000A50B0008A50B0008A50B0008A50B0008BE
:10026000A50B0008A50B0008A50B0008A50B0008AE
:10027000A50B0008A50B0008A50B00080000000056
:10028000A50B0008A50B0008A50B00080000000046
:0802900000000000A50B0008AE
:100298000348044B834202D0034B03B1184770470D
:1002A80040040024400400240000000005480649DA
:1002B8000B1AD90F01EBA301491002D0034B03B16C
:1002C8001847704740040024400400240000000040
:1002D80010B5064C237843B9FFF7DAFF044B13B186
:1002E8000448AFF300800123237010BD40040024AC
:1002F800000000000419000808B5044B1BB10449AC
:100308000448AFF30080BDE80840CFE700000000D4
:10031800440400240419000880F0004002E000BFF3
:1003280081F0004142001FBF5FEA410392EA030FD8
:100338007FEA226C7FEA236C6AD04FEA1262D2EB22
:100348001363C1BFD218414048404140B8BF5B4227
:10035800192B88BF704710F0004F40F4000020F0C0
:100368007F4018BF404211F0004F41F4000121F0D6
:100378007F4118BF494292EA030F3FD0A2F1010220
:1003880041FA03FC10EB0C00C3F1200301FA03F15E
:1003980000F0004302D5494260EB4000B0F5000F81
:1003A80013D3B0F1807F06D340084FEA310102F140
:1003B8000102FE2A51D2B1F1004F40EBC25008BFF2
:1003C80020F0010040EA03007047490040EB0000BC
:1003D800013A28BFB0F5000FEDD2B0FA80FCACF1BD
:1003E800080CB2EB0C0200FA0CF0AABF00EBC250EA
:1003F80052421843BCBFD0401843704792F0000FD8
:1004080081F4000106BF80F400000132013BB5E72A
:100418004FEA41037FEA226C18BF7FEA236C21D0A0
:1004280092EA030F04D092F0000F08BF0846704705
:1004380090EA010F1CBF0020704712F07F4F04D1D3
:10044800400028BF40F00040704712F100723CBFE6
:1004580000F50000704700F0004343F0FE4040F410
:10046800000070477FEA226216BF08467FEA2363CE
:100478000146420206BF5FEA412390EA010F40F4B9
:10048800800070474FF0000304E000BF10F0004305
:1004980048BF40425FEA000C08BF704743F09643EC
:1004A80001464FF000001CE050EA010208BF704707
:1004B8004FF000030AE000BF50EA010208BF70478E
:1004C80011F0004302D5404261EB41015FEA010CA3
:1004D80002BF84460146002043F0B64308BFA3F19B
:1004E8008053A3F50003BCFA8CF2083AA3EBC2537D
:1004F80010DB01FA02FC634400FA02FCC2F120029C
:10050800BCF1004F20FA02F243EB020008BF20F0D2
:100518000100704702F1200201FA02FCC2F1200238
:1005280050EA4C0021FA02F243EB020008BF20EA2D
:10053800DC7070474FF0FF0C1CEAD0521EBF1CEA5B
:10054800D15392EA0C0F93EA0C0F6FD01A4480EA49
:10055800010C400218BF5FEA41211ED04FF0006332
:1005680043EA501043EA5111A0FB01310CF000405E
:10057800B1F5000F3EBF490041EAD3715B0040EA84
:10058800010062F17F02FD2A1DD8B3F1004F40EB54
:10059800C25008BF20F00100704790F0000F0CF027
:1005A800004C08BF49024CEA502040EA51207F3AEB
:1005B800C2BFD2F1FF0340EAC250704740F40000C6
:1005C8004FF00003013A5DDC12F1190FDCBF00F0B7
:1005D80000407047C2F10002410021FA02F1C2F165
:1005E800200200FA02FC5FEA310040F1000053EA01
:1005F8004C0308BF20EADC70704792F0000F00F04F
:10060800004C02BF400010F4000F013AF9D040EA54
:100618000C0093F0000F01F0004C02BF490011F4E8
:10062800000F013BF9D041EA0C018FE70CEAD153E6
:1006380092EA0C0F18BF93EA0C0F0AD030F0004C66
:1006480018BF31F0004CD8D180EA010000F000401A
:10065800704790F0000F17BF90F0004F084691F0D8
:10066800000F91F0004F14D092EA0C0F01D1420212
:100678000FD193EA0C0F03D14B0218BF084608D1DB
:1006880080EA010000F0004040F0FE4040F4000025
:10069800704740F0FE4040F4400070474FF0FF0CB8
:1006A8001CEAD0521EBF1CEAD15392EA0C0F93EAFF
:1006B8000C0F69D0A2EB030280EA010C49024FEA51
:1006C800402037D04FF0805343EA111143EA10130A
:1006D8000CF000408B4238BF5B0042F17D024FF4C2
:1006E800000C8B4224BF5B1A40EA0C00B3EB510F9D
:1006F80024BFA3EB510340EA5C00B3EB910F24BF86
:10070800A3EB910340EA9C00B3EBD10F24BFA3EB0A
:10071800D10340EADC001B0118BF5FEA1C1CE0D1D2
:10072800FD2A3FF650AF8B4240EBC25008BF20F085
:10073800010070470CF0004C4CEA50207F32C2BFD9
:10074800D2F1FF0340EAC250704740F400004FF076
:100758000003013A37E792F0000F00F0004C02BFA7
:10076800400010F4000F013AF9D040EA0C0093F071
:10077800000F01F0004C02BF490011F4000F013BCB
:10078800F9D041EA0C0195E70CEAD15392EA0C0F33
:1007980008D142027FF47DAF93EA0C0F7FF470AF6B
:1007A800084676E793EA0C0F04D14B023FF44CAFAE
:1007B80008466EE730F0004C18BF31F0004CCAD143
:1007C80030F000427FF45CAF31F000437FF43CAF7F
:1007D8005FE700BF42000ED2B2F1FE4F0BD34FF0DD
:1007E8009E03B3EB126209D44FEA002343F000439F
:1007F80023FA02F070474FF00000704712F1610FC2
:1008080001D1420202D14FF0FF3070474FF0000093
:10081800704700BF002301461A46184600F08CB8FE
:1008280038B5084B084D5B1B9C1007D0043B1D4492
:10083800013C55F804399847002CF9D1BDE83840F7
:1008480001F062B83C1900083819000870B50D4E5F
:100858000D4D761BB61006D0002455F8043B013424
:100868009847A642F9D1094E094D761B01F046F882
:10087800B61006D0002455F8043B01349847A64228
:10088800F9D170BD3019000830190008381900086E
:1008980030190008830730B548D0541E002A3FD0CD
:1008A800CAB2034601E0013C3AD303F8012B9D0785
:1008B800F9D1032C2DD9CDB245EA05250F2C45EAEF
:1008C800054536D9A4F1100222F00F0C03F1200ED1
:1008D800E6444FEA121C03F1100242E9045542E9CA
:1008E800025510327245F8D10CF1010214F00C0FC8
:1008F80003EB021204F00F0C13D0ACF1040323F045
:1009080003030433134442F8045B9342FBD10CF015
:1009180003042CB1CAB21C4403F8012B9C42FBD13E
:1009280030BD64461346002CF4D1F9E7034614465B
:10093800BFE71A46A446E0E770B4184C2568D5F816
:1009480048411CB365681F2D25DC38B9AB1C01353F
:10095800656044F82310002070BC704704EB850CD8
:100968000228CCF88820D4F888614FF0010202FAF6
:1009780005F246EA0206C4F88861CCF80831E5D1E8
:10098800D4F88C311343C4F88C31DFE705F5A6742D
:10099800C5F84841D6E74FF0FF30DDE71C190008DD
:1009A80072B6FEE700B59DB04C22002109A8FFF7FA
:1009B80071FF2022002101A8FFF76CFF022000F040
:1009C800B9F9002300931E4BDA6A22F00102DA62B9
:1009D800DB6A03F0010300931A4A936923F4404346
:1009E80043F480439361936903F440430093009B6D
:1009F800144B9B6913F4005FFAD002230993012377
:100A08000C9340230D930023129309A800F0BCF91E
:100A180088B93F230193002302930393049305931A
:100A2800069307930893012101A800F013FE20B94B
:100A38001DB05DF804FBFFF7B3FFFFF7B1FF00BF80
:100A4800000400580048025808B500F0D1F8FFF734
:100A5800A9FFFEE782B0074BD3F8F42042F0020268
:100A6800C3F8F420D3F8F43003F002030193019B98
:100A780002B0704700440258FEE7FEE7FEE7FEE7D3
:100A8800FEE770477047704708B500F0DFF808BD0B
:100A9800244B1B6803F00F03062B06D8214A136862
:100AA80023F00F0343F0070313601F4B1A6842F04B
:100AB80001021A6000221A6119681C4A0A401A6069
:100AC800184B1B6813F0080F06D0164A136823F05A
:100AD8000F0343F007031360134B00229A61DA6196
:100AE8001A62134999621349D962134919635A63FF
:100AF8009963DA6319645A64196821F480211960CA
:100B08001A660E4B1A680E4B1340B3F1005F03D2FE
:100B18000C4B0122C3F808210B4B43F2D2021A6096
:100B2800704700BF00200052004402587FEDF6EAEB
:100B3800000202020000FF01800201010010005CB7
:100B48000000FFFF0080005100400052DFF834D061
:100B5800FFF79EFF0C480D490D4A002302E0D458C8
:100B6800C4500433C4188C42F9D30A4A0A4C0023EF
:100B780001E013600432A242FBD3FFF767FEFFF7E0
:100B880063FF70470000082400000024400400248C
:100B98003C1900084004002460040024FEE700001B
:100BA800104B1B780BB90120704710B504464FF461
:100BB8007A70B0FBF3F30C4A1068B0FBF3F000F066
:100BC800A5F868B90F2C01D901200AE000222146B6
:100BD8004FF0FF3000F064F8044B1C60002000E088
:100BE800012010BD38040024300400243C040024F3
:100BF80010B5032000F042F800F020FC0F498B6983
:100C0800C3F303230E4AD35C03F01F03D8408B6958
:100C180003F00F03D35C03F01F0320FA03F3094A20
:100C28001360094B18600F20FFF7BAFF10B10124B9
:100C3800204610BD0446FFF70DFFF9E700440258AF
:100C4800201900083404002430040024034B1B78C6
:100C5800034A11680B441360704700BF380400242E
:100C68005C040024014B1868704700BF5C04002432
:100C7800014B1868000C70470010005C0649CB68EF
:100C880023F4E0631B041B0C000200F4E060034340
:100C9800024A1A43CA60704700ED00E00000FA05F6
:100CA80000B5174BDB68C3F30223C3F1070CBCF193
:100CB800040F28BF4FF0040C03F1040EBEF1060F19
:100CC80014D9033B4FF0FF3E0EFA0CFC21EA0C014D
:100CD80099400EFA03F322EA03031943002807DBBD
:100CE8000901C9B2074B19545DF804FB0023E9E771
:100CF80000F00F000901C9B2034B1954F4E700BF13
:100D080000ED00E000E400E014ED00E00138B0F18F
:100D1800807F0BD24FF0E0235861054AF02182F81A
:100D280023100020986107221A617047012070473C
:100D380000ED00E0134BDB6813F0040F07D1114BF3
:100D4800DB6803F0070383421AD00120704710B50F
:100D58000C4AD36823F007031843D060FFF782FFDB
:100D68000446084B5B6813F4005F07D1FFF77AFF6E
:100D7800001BB0F57A7FF4D9012000E0002010BDF7
:100D88000020704700480258002800F0398338B521
:100D98000446036813F0010F25D0944A136903F041
:100DA8003803926A102B15D0182B0FD06368B3F54F
:100DB800803F3FD0002B53D18C4B1A6822F48032ED
:100DC8001A601A6822F480221A6038E002F00302DE
:100DD800022AEBD1854B1B6813F4003F03D06368EC
:100DE800002B00F00F83236813F0020F00F0A1809E
:100DF8007E4A1369926A13F038035AD0182B55D0DB
:100E0800E368002B00F0DE8078490A6822F01902B6
:100E180013430B60FFF726FF0546744B1B6813F05E
:100E2800040F40F0AD80FFF71DFF401B0228F4D9E6
:100E38000320EEE26D4A136843F48033136063685D
:100E48002BB3FFF70FFF0546684B1B6813F4003FF1
:100E5800C9D1FFF707FF401B6428F5D90320D8E262
:100E6800B3F5A02F09D0614B1A6822F480321A60BA
:100E78001A6822F480221A60E1E75C4B1A6842F48F
:100E880080221A601A6842F480321A60D7E7FFF7A6
:100E9800E9FE0546554B1B6813F4003FA3D0FFF746
:100EA800E1FE401B6428F5D90320B2E212F0030FDB
:100EB800A6D14E4B1B6813F0040F03D0E368002B38
:100EC80000F0A282494A136823F01903E1680B4332
:100ED8001360FFF7C7FE0546444B1B6813F0040F69
:100EE80006D1FFF7BFFE401B0228F5D9032090E288
:100EF800FFF7BEFE41F20303984212D82269402A46
:100F080007D03A494B6823F47C3343EA02334B60F9
:100F18000FE0364A536823F47C3343F400335360BC
:100F280007E0324A536823F0FE43216943EA01632C
:100F38005360236813F0100F00F088802B4A136960
:100F480003F03803926A082B56D0182B50D0E36967
:100F5800002B00F0B880254A136843F08003136023
:100F6800FFF780FE0546214B1B6813F4807F40F095
:100F78008880FFF777FE401B0228F4D9032048E257
:100F8800FFF776FE41F20303984212D82269402AFD
:100F980007D016494B6823F47C3343EA02334B608D
:100FA800C7E7124A536823F47C3343F40033536091
:100FB800BFE70E4A536823F0FE43216943EA016301
:100FC8005360B6E7094A136823F001031360FFF77B
:100FD80049FE0546054B1B6813F0040FA9D0FFF71F
:100FE80041FE401B0228F5D9032012E200440258B2
:100FF80002F00302012AAAD1A14B1B6813F4807FD7
:1010080003D0E369802B40F00182FFF731FE41F203
:101018000303984212D8226A202A07D098494B68BD
:1010280023F0F84343EA82634B600FE0944A536825
:1010380023F0F84343F08043536007E0904AD368B5
:1010480023F07C53216A43EA0163D360236813F0D9
:10105800080F60D06369002B49D0894A536F43F069
:1010680001035367FFF7FEFD0546854B5B6F13F0E1
:10107800020F50D1FFF7F6FD401B0228F5D90320D7
:10108800C7E1FFF7F5FD41F20303984212D8226A3F
:10109800202A07D07A494B6823F0F84343EA826351
:1010A8004B60D3E7764A536823F0F84343F0804314
:1010B8005360CBE7724AD36823F07C53216A43EA32
:1010C8000163D360C2E76E4A136823F0800313609C
:1010D800FFF7C8FD05466A4B1B6813F4807FB5D03F
:1010E800FFF7C0FD401B0228F5D9032091E1644AAF
:1010F800536F23F001035367FFF7B4FD0546604BB8
:101108005B6F13F0020F06D0FFF7ACFD401B0228FF
:10111800F5D903207DE1236813F0200F29D0A369B6
:101128009BB1574A136843F480531360FFF79AFD45
:101138000546534B1B6813F4005F1AD1FFF792FD65
:10114800401B0228F5D9032063E14D4A136823F4B4
:1011580080531360FFF786FD0546494B1B6813F45F
:10116800005F06D0FFF77EFD401B0228F5D903205B
:101178004FE1236813F0040F21D1636A002B00F0BC
:1011880047813F4A126902F03802182A00F0EE80BF
:10119800022B79D03A4A136823F080731360FFF763
:1011A80061FD0446364B1B6813F0007F00F0DC80BD
:1011B800FFF758FD001B0228F4D9032029E1314A22
:1011C800136843F480731360FFF74CFD05462D4BFD
:1011D8001B6813F4807F06D1FFF744FD401B642889
:1011E800F5D9032015E1A368012B0AD00BBB244BCA
:1011F8001A6F22F001021A671A6F22F004021A67A6
:1012080004E01F4A136F43F001031367A36833B365
:10121800FFF728FD05461A4B1B6F13F0020FACD1E0
:10122800FFF720FD401B41F288339842F3D9032091
:10123800EFE0052B09D0124B1A6F22F001021A6752
:101248001A6F22F004021A67E0E70D4B1A6F42F09A
:1012580004021A671A6F42F001021A67D6E7FFF70D
:1012680001FD0546064B1B6F13F0020F85D0FFF7F3
:10127800F9FC401B41F288339842F3D90320C8E0B7
:101288000044025800480258694A136823F08073E2
:101298001360FFF7E7FC0546654B1B6813F0007FFA
:1012A80006D0FFF7DFFC401B0228F5D90320B0E089
:1012B8005F4B996A5F4A0A40A16AE06A41EA0011F5
:1012C8000A439A62226B013AC2F30802616B013940
:1012D800490289B20A43A16B0139090401F4FE01EC
:1012E8000A43E16B0139090601F0FE410A431A631A
:1012F800DA6A22F00102DA62596B4F4A0A40A16C9D
:1013080042EAC1025A63DA6A22F00C02216C0A43EB
:10131800DA62DA6A22F00202616C0A43DA62DA6A95
:1013280042F48032DA62DA6A42F40032DA62DA6A65
:1013380042F48022DA62DA6A42F00102DA621A685A
:1013480042F080721A60FFF78DFC0446384B1B6828
:1013580013F0007F06D1FFF785FC001B0228F5D9A2
:10136800032056E0002054E0002052E0304A916A01
:10137800106B012B4ED001F00303A26A93424BD1AC
:10138800C1F30511E36A994248D1C0F30802236BFF
:10139800013B9A4244D1C0F34622636B013B9A4217
:1013A80040D1C0F30642A36B013B9A423CD1C0F343
:1013B8000660E36B013B984238D11D4B5B6BC3F36E
:1013C800CC03A26C9A4201D1002022E0184AD36AC9
:1013D80023F00103D362FFF745FC0546FFF742FC03
:1013E800A842FBD0124A516B134B0B40A16C43EA45
:1013F800C1035363D36A43F00103D362002008E0BA
:1014080001207047012004E0012002E0012000E0F3
:10141800002038BD0120FCE70120FAE70120F8E7A9
:101428000120F6E70120F4E70120F2E70120F0E7C8
:10143800004402580CFCFFFF0700FFFFF8B57E4B85
:101448001B6903F03803102B00F0F280182B10D022
:1014580013B17A4C2046F8BD774B1B6813F0200F68
:1014680000F0E880744B1868C0F3C100744CC440A5
:10147800F0E7714B9D6A05F003059C6AC4F30514F7
:10148800D86A00F001005B6BC3F3CC0303FB00F0E8
:10149800FEF7F8FF0646002CDCD0012D76D0022D91
:1014A80000F0A4800DB32046FEF7ECFF0146654826
:1014B800FFF7F4F80446604B186BC0F30800FEF71A
:1014C800E1FF05464FF064513046FFF733F8014617
:1014D8002846FEF727FF4FF07E51FEF723FF01460F
:1014E8002046FFF727F8044671E0534B1B6813F0BA
:1014F800200F29D0504F3B68C3F3C1035048D84050
:10150800FEF7C0FF05462046FEF7BCFF0146284609
:10151800FFF7C4F80446386BC0F30800FEF7B2FFC3
:1015280005464FF064513046FFF704F80146284657
:10153800FEF7F8FE4FF07E51FEF7F4FE0146204616
:10154800FEF7F8FF044642E02046FEF79BFF0146FF
:101558003D48FFF7A3F80446374B186BC0F3080063
:10156800FEF790FF05464FF064513046FEF7E2FF64
:1015780001462846FEF7D6FE4FF07E51FEF7D2FE12
:1015880001462046FEF7D6FF044620E02046FEF737
:1015980079FF01462B48FFF781F80446264B186B64
:1015A800C0F30800FEF76EFF05464FF06451304661
:1015B800FEF7C0FF01462846FEF7B4FE4FF07E5105
:1015C800FEF7B0FE01462046FEF7B4FF04461A4B6C
:1015D8001B6BC3F34623581CFEF754FF01462046F5
:1015E800FFF75CF8FFF7F6F8044633E72046FEF706
:1015F80049FF01461548FFF751F804460E4B186B92
:10160800C0F30800FEF73EFF05464FF06451304630
:10161800FEF790FF01462846FEF784FE4FF07E5104
:10162800FEF780FE01462046FEF784FF0446CEE71B
:10163800074C0FE7024C0DE70044025800093D0033
:101648000090D0030024744A0024744C20BCBE4B84
:1016580040787D01002800F0328170B50D460446BF
:101668009B4B1B6803F00F038B420BD2984A1368FD
:1016780023F00F030B431360136803F00F038B422F
:1016880040F01F81236813F0040F0CD02269914B9E
:101698009B6903F070039A4205D98E498B6923F040
:1016A80070031A438A61236813F0080F0CD062692B
:1016B800884BDB6903F070039A4205D98549CB69E9
:1016C80023F070031A43CA61236813F0100F0CD07B
:1016D800A269804BDB6903F4E0639A4205D97D492E
:1016E800CB6923F4E0631A43CA61236813F0200F1F
:1016F8000CD0E269774B1B6A03F070039A4205D954
:1017080074490B6A23F070031A430A62236813F0C2
:10171800020F0CD0E2686F4B9B6903F00F039A42EB
:1017280005D96C498B6923F00F031A438A61236832
:1017380013F0010F41D0674A936923F47063A168DD
:101748000B4393616368022B0AD0032B27D0012B2C
:101758002CD0604A126812F0040F06D10120ADE0C7
:10176800126812F4003F00F0AE805A490A6922F06C
:10177800070213430B61FFF775FA0646554B1B69C1
:1017880003F038036268B3EBC20F16D0FFF76AFAAA
:10179800801B41F288339842F0D903208EE04D4AED
:1017A800126812F0007FE0D1012087E0494A1268F0
:1017B80012F4807FD9D1012080E0236813F0020F52
:1017C8000CD0E268434B9B6903F00F039A4205D2A1
:1017D80040498B6923F00F031A438A613C4B1B680D
:1017E80003F00F03AB420AD9394A136823F00F03F9
:1017F8002B431360136803F00F03AB4265D12368D2
:1018080013F0040F0CD02269324B9B6903F070036C
:101818009A4205D22F498B6923F070031A438A61D3
:10182800236813F0080F0CD062692A4BDB6903F0B8
:1018380070039A4205D22749CB6923F070031A43F3
:10184800CA61236813F0100F0CD0A269214BDB6921
:1018580003F4E0639A4205D21E49CB6923F4E0639E
:101868001A43CA61236813F0200F0CD0E269194BA0
:101878001B6A03F070039A4205D216490B6A23F0DB
:1018880070031A430A62FFF7D9FD12498B69C3F343
:101898000323114AD35C03F01F03D8408B6903F07C
:1018A8000F03D35C03F01F0320FA03F30B4A136002
:1018B8000B4B18600B4B1868FFF772F970BD0120CD
:1018C80070470120FAE70120F8E70120F6E700BF9A
:1018D8000020005200440258201900083404002453
:1018E800300400243C040024024B13B10248FEF7E4
:1018F80091BF70470000000029080008F8B500BF34
:10190800F8BC08BC9E467047F8B500BFF8BC08BCD8
:041918009E46704730
:10191C00080000240000000001020304010203047B
:04192C000607080999
:08193000F11800080103000892
:04193800D9020008C8
:10193C00080000240000000000000000F402002455
:10194C005C030024C403002400000000000000001D
:10195C00000000000000000000000000000000007B
:10196C00000000000000000000000000000000006B
:10197C00000000000000000000000000000000005B
:10198C00000000000000000000000000000000004B
:10199C00000000000000000000000000000000003B
:1019AC00000000000000000000000000000000002B
:1019BC00000000000000000000000000000000001B
:1019CC00000000000000000000000000000000000B
:1019DC0000000000000000000000000000000000FB
:1019EC0001000000000000000E33CDAB34126DE698
:1019FC00ECDE05000B000000000000000000000001
:101A0C0000000000000000000000000000000000CA
:101A1C0000000000000000000000000000000000BA
:101A2C0000000000000000000000000000000000AA
:101A3C00000000000000000000000000000000009A
:101D6C000090D0030090D003010000001000000090
:0400000508000B558F
:00000001FF
