:020000040800F2
:1000000000000220711700080D0600080F06000806
:10001000110600081306000815060008000000007D
:1000200000000000000000000000000017060008AB
:1000300019060008000000001B0600081D06000845
:10004000C1170008C1170008C1170008C117000830
:10005000C1170008C1170008C1170008C117000820
:10006000C1170008C117000825060008C1170008BD
:10007000C1170008C1170008C1170008C117000800
:10008000C1170008C1170008C1170008C1170008F0
:10009000C1170008C1170008C1170008C1170008E0
:1000A000C1170008C1170008C1170008C1170008D0
:1000B000C1170008C1170008C1170008C1170008C0
:1000C000C1170008C1170008C1170008C1170008B0
:1000D000C1170008C1170008C1170008C1170008A0
:1000E000C1170008C117000800000000C117000870
:1000F000C1170008C1170008C1170008C117000880
:10010000C1170008C1170008C1170008C11700086F
:10011000C1170008C1170008C1170008C11700085F
:10012000C1170008C1170008C1170008C11700084F
:10013000C1170008C1170008C1170008C11700083F
:1001400000000000000000000000000000000000AF
:10015000C1170008C1170008C1170008C11700081F
:10016000C1170008C1170008C1170008C11700080F
:10017000C1170008C1170008C1170008C1170008FF
:10018000C1170008C1170008C1170008C1170008EF
:10019000C1170008C1170008C1170008C1170008DF
:1001A000C1170008C1170008C1170008C1170008CF
:1001B000C1170008C1170008C1170008C1170008BF
:1001C000C1170008C1170008C1170008C1170008AF
:1001D000C1170008C1170008C1170008C11700089F
:1001E000C1170008C1170008C1170008C11700088F
:1001F000C1170008C1170008C1170008C11700087F
:10020000C1170008C1170008C1170008C11700086E
:10021000C1170008C1170008C1170008C11700085E
:10022000C1170008C1170008C1170008000000002E
:10023000C1170008C117000800000000C11700081E
:10024000C1170008C1170008C1170008C11700082E
:10025000C1170008C1170008C1170008C11700081E
:10026000C1170008C1170008C1170008C11700080E
:10027000C1170008C1170008C117000800000000DE
:10028000C1170008C1170008C117000800000000CE
:0802900000000000C117000886
:100298000348044B834202D0034B03B1184770470D
:1002A800100000201000002000000000054806494A
:1002B8000B1AD90F01EBA301491002D0034B03B16C
:1002C80018477047100000201000002000000000B0
:1002D80010B5064C237843B9FFF7DAFF044B13B186
:1002E8000448AFF300800123237010BD10000020E4
:1002F80000000000C417000808B5044B1BB10449EE
:100308000448AFF30080BDE80840CFE700000000D4
:1003180014000020C417000870B50D4E0D4D761B53
:10032800B61006D0002455F8043B01349847A6427D
:10033800F9D1094E094D761B01F040FAB61006D0E6
:10034800002455F8043B01349847A642F9D170BD02
:10035800EC170008EC170008F0170008EC17000865
:10036800830730B548D0541E002A3FD0CAB203468E
:1003780001E0013C3AD303F8012B9D07F9D1032C86
:100388002DD9CDB245EA05250F2C45EA054536D9C4
:10039800A4F1100222F00F0C03F1200EE6444FEAFC
:1003A800121C03F1100242E9045542E902551032C9
:1003B8007245F8D10CF1010214F00C0F03EB021294
:1003C80004F00F0C13D0ACF1040323F0030304333F
:1003D800134442F8045B9342FBD10CF003042CB1A4
:1003E800CAB21C4403F8012B9C42FBD130BD6446C1
:1003F8001346002CF4D1F9E703461446BFE71A4622
:10040800A446E0E710B584B0002400940194029457
:10041800039400F085F901238DF800308DF8014030
:1004280001941F228DF8082087228DF809208DF865
:100438000A408DF80B408DF80C308DF80D308DF892
:100448000E408DF80F40684600F088F9042000F04F
:1004580075F904B010BD72B6FEE7000000B59DB096
:100468004C22002109A8FFF77BFF2022002101A8C8
:10047800FFF776FF022001F065F81B4B9B6913F428
:10048800005FFAD00223099301220C9240220D92B8
:10049800129300221392042114913C211591169372
:1004A800179318930C2319931A921B9209A800F01A
:1004B80085F9A8B93F2301930323029300210391EF
:1004C800082304934023059306934FF48062079210
:1004D800089301A800F0C6FD20B91DB05DF804FB23
:1004E800FFF7B9FFFFF7B7FF0048025808B501F05A
:1004F8007BF8FFF787FFFFF7B1FF00F00BF8044A1E
:10050800536983F010035361642001F0ADF8F6E7F6
:10051800001C0258F0B58BB000240594069407948B
:1005280008940994334BD3F8E02042F00102C3F851
:10053800E020D3F8E02002F001020192019AD3F8FA
:10054800E02042F00402C3F8E020D3F8E02002F0F3
:1005580004020292029AD3F8E02042F48072C3F8AF
:10056800E020D3F8E02002F480720392039AD3F8D3
:10057800E02042F08002C3F8E020D3F8E03003F036
:1005880080030493049B1C4F22464FF400413846D5
:1005980000F0C2FF194E22464FF48071304600F039
:1005A800BBFF4FF400430593012506950794089473
:1005B80005A9384600F0A0FE4FF480730593069510
:1005C8000794089405A9304600F096FE1023059379
:1005D8004FF404130693079505A9094800F08CFE0B
:1005E800224603210A2000F043F80A2000F076F89A
:1005F8000BB0F0BD00440258000802580020025811
:10060800001C0258FEE7FEE7FEE7FEE7FEE770473C
:100618007047704708B501F015F808BD08B51020F7
:1006280000F081FF08BD000082B0074BD3F8F4202A
:1006380042F00202C3F8F420D3F8F43003F00203C6
:100648000193019B02B07047004402580649CB68E9
:1006580023F4E0631B041B0C000200F4E060034376
:10066800024A1A43CA60704700ED00E00000FA052C
:1006780000B5174BDB68C3F30223C3F1070CBCF1C9
:10068800040F28BF4FF0040C03F1040EBEF1060F4F
:1006980014D9033B4FF0FF3E0EFA0CFC21EA0C0183
:1006A80099400EFA03F322EA03031943002807DBF3
:1006B8000901C9B2074B19545DF804FB0023E9E7A7
:1006C80000F00F000901C9B2034B1954F4E700BF49
:1006D80000ED00E000E400E014ED00E0002807DB96
:1006E80000F01F02400901239340024A42F82030DB
:1006F800704700BF00E100E00138B0F1807F0BD205
:100708004FF0E0235861054AF02182F823100020B9
:10071800986107221A6170470120704700ED00E0D8
:10072800BFF35F8F044B5A6A22F480325A62002268
:10073800C3F89420704700BF00ED00E040F00100CE
:10074800054BC3F894005A6A42F480325A62BFF3E8
:100758004F8FBFF36F8F704700ED00E04278164B64
:10076800C3F898200378FBB14368134AC2F89C3059
:10077800017BC37A1B0643EA0173817A43EAC143CA
:10078800417B43EA8143817B43EA4143C17B43EA9E
:100798000143417A43EA0123017A43EA410301789C
:1007A8000B43C2F8A0307047034B0022C3F89C20CB
:1007B800C3F8A020704700BF00ED00E0002800F05B
:1007C800398338B50446036813F0010F25D0944ADD
:1007D800136903F03803926A102B15D0182B0FD029
:1007E8006368B3F5803F3FD0002B53D18C4B1A6818
:1007F80022F480321A601A6822F480221A6038E0E3
:1008080002F00302022AEBD1854B1B6813F4003F68
:1008180003D06368002B00F00F83236813F0020FE6
:1008280000F0A1807E4A1369926A13F038035AD007
:10083800182B55D0E368002B00F0DE8078490A6851
:1008480022F0190213430B6000F008FF0546744BB1
:100858001B6813F0040F40F0AD8000F0FFFE401B52
:100868000228F4D90320EEE26D4A136843F480337A
:10087800136063682BB300F0F1FE0546684B1B68F4
:1008880013F4003FC9D100F0E9FE401B6428F5D9F4
:100898000320D8E2B3F5A02F09D0614B1A6822F4DF
:1008A80080321A601A6822F480221A60E1E75C4BF1
:1008B8001A6842F480221A601A6842F480321A6078
:1008C800D7E700F0CBFE0546554B1B6813F4003FF5
:1008D800A3D000F0C3FE401B6428F5D90320B2E280
:1008E80012F0030FA6D14E4B1B6813F0040F03D070
:1008F800E368002B00F0A282494A136823F0190329
:10090800E1680B43136000F0A9FE0546444B1B68E1
:1009180013F0040F06D100F0A1FE401B0228F5D900
:10092800032090E200F0B4FE41F20303984212D88B
:100938002269402A07D03A494B6823F47C3343EABA
:1009480002334B600FE0364A536823F47C3343F498
:100958000033536007E0324A536823F0FE432169AD
:1009680043EA01635360236813F0100F00F0888096
:100978002B4A136903F03803926A082B56D0182BB8
:1009880050D0E369002B00F0B880254A136843F083
:100998008003136000F062FE0546214B1B6813F4C8
:1009A800807F40F0888000F059FE401B0228F4D96F
:1009B800032048E200F06CFE41F20303984212D88B
:1009C8002269402A07D016494B6823F47C3343EA4E
:1009D80002334B60C7E7124A536823F47C3343F46D
:1009E80000335360BFE70E4A536823F0FE43216982
:1009F80043EA01635360B6E7094A136823F0010329
:100A0800136000F02BFE0546054B1B6813F0040F1E
:100A1800A9D000F023FE401B0228F5D9032012E2DA
:100A28000044025802F00302012AAAD1A14B1B6814
:100A380013F4807F03D0E369802B40F0018200F03B
:100A480027FE41F20303984212D8226A202A07D0CF
:100A580098494B6823F0F84343EA82634B600FE000
:100A6800944A536823F0F84343F08043536007E007
:100A7800904AD36823F07C53216A43EA0163D36028
:100A8800236813F0080F60D06369002B49D0894AA6
:100A9800536F43F00103536700F0E0FD0546854BB3
:100AA8005B6F13F0020F50D100F0D8FD401B0228F5
:100AB800F5D90320C7E100F0EBFD41F203039842AA
:100AC80012D8226A202A07D07A494B6823F0F843C3
:100AD80043EA82634B60D3E7764A536823F0F843CE
:100AE80043F080435360CBE7724AD36823F07C53CA
:100AF800216A43EA0163D360C2E76E4A136823F0B0
:100B08008003136000F0AAFD05466A4B1B6813F4C6
:100B1800807FB5D000F0A2FD401B0228F5D9032044
:100B280091E1644A536F23F00103536700F096FD87
:100B38000546604B5B6F13F0020F06D000F08EFD88
:100B4800401B0228F5D903207DE1236813F0200F0C
:100B580029D0A3699BB1574A136843F480531360A3
:100B680000F07CFD0546534B1B6813F4005F1AD157
:100B780000F074FD401B0228F5D9032063E14D4ABB
:100B8800136823F48053136000F068FD0546494B51
:100B98001B6813F4005F06D000F060FD401B0228BC
:100BA800F5D903204FE1236813F0040F21D1636ABC
:100BB800002B00F047813F4A126902F03802182AD8
:100BC80000F0EE80022B79D03A4A136823F0807344
:100BD800136000F043FD0446364B1B6813F0007F9A
:100BE80000F0DC8000F03AFD001B0228F4D9032055
:100BF80029E1314A136843F48073136000F02EFD35
:100C080005462D4B1B6813F4807F06D100F026FDA6
:100C1800401B6428F5D9032015E1A368012B0AD0ED
:100C28000BBB244B1A6F22F001021A671A6F22F0CD
:100C380004021A6704E01F4A136F43F001031367A5
:100C4800A36833B300F00AFD05461A4B1B6F13F077
:100C5800020FACD100F002FD401B41F288339842EC
:100C6800F3D90320EFE0052B09D0124B1A6F22F0BD
:100C780001021A671A6F22F004021A67E0E70D4BA7
:100C88001A6F42F004021A671A6F42F001021A67DB
:100C9800D6E700F0E3FC0546064B1B6F13F0020F86
:100CA80085D000F0DBFC401B41F288339842F3D931
:100CB8000320C8E00044025800480258694A1368F3
:100CC80023F08073136000F0C9FC0546654B1B6870
:100CD80013F0007F06D000F0C1FC401B0228F5D9B4
:100CE8000320B0E05F4B996A5F4A0A40A16AE06A54
:100CF80041EA00110A439A62226B013AC2F30802E0
:100D0800616B0139490289B20A43A16B01390904AF
:100D180001F4FE010A43E16B0139090601F0FE41C5
:100D28000A431A63DA6A22F00102DA62596B4F4AFF
:100D38000A40A16C42EAC1025A63DA6A22F00C0244
:100D4800216C0A43DA62DA6A22F00202616C0A4311
:100D5800DA62DA6A42F48032DA62DA6A42F400323B
:100D6800DA62DA6A42F48022DA62DA6A42F001026E
:100D7800DA621A6842F080721A6000F06FFC04466A
:100D8800384B1B6813F0007F06D100F067FC001B8E
:100D98000228F5D9032056E0002054E0002052E054
:100DA800304A916A106B012B4ED001F00303A26AFE
:100DB80093424BD1C1F30511E36A994248D1C0F37C
:100DC8000802236B013B9A4244D1C0F34622636B6D
:100DD800013B9A4240D1C0F30642A36B013B9A42C1
:100DE8003CD1C0F30660E36B013B984238D11D4B00
:100DF8005B6BC3F3CC03A26C9A4201D1002022E0C2
:100E0800184AD36A23F00103D36200F027FC054691
:100E180000F024FCA842FBD0124A516B134B0B4044
:100E2800A16C43EAC1035363D36A43F00103D3625D
:100E3800002008E001207047012004E0012002E0C2
:100E4800012000E0002038BD0120FCE70120FAE77E
:100E58000120F8E70120F6E70120F4E70120F2E796
:100E68000120F0E7004402580CFCFFFF0700FFFFD9
:100E7800744B1B6903F03803102B00F0DE80182B2D
:100E880010D00BB1704870476E4B1B6813F0200FE1
:100E980000F0D5806B4B1868C0F3C1006B4B23FA88
:100EA80000F0704710B4674A916A01F00301946A30
:100EB800C4F30510D36A03F0010C536BC3F3CC03DE
:100EC8000CFB03F307EE903AF8EE677A14F47C7F94
:100ED80000F09380012965D0022900F09180E1B1EA
:100EE80007EE100AF8EE476A9FED596A86EE267AF1
:100EF800544B1B6BC3F3080306EE903AF8EE666A90
:100F08009FED546A67EE867A76EEA77AF7EE006A66
:100F180077EEA67A27EE277A60E0136813F0200FA1
:100F280023D011461268C2F3C102484BD34007EEE2
:100F3800103AF8EE476A07EE100AB8EE476A86EEEE
:100F4800867A0B6BC3F3080306EE903AF8EE666AEE
:100F58009FED406A67EE867A76EEA77AF7EE006A2A
:100F680077EEA67A27EE277A38E007EE100AF8EE31
:100F7800476A9FED396A86EE267A324B1B6BC3F3BC
:100F8800080306EE903AF8EE666A9FED326A67EE5D
:100F9800867A76EEA77AF7EE006A77EEA67A27EEDB
:100FA800277A1BE007EE100AF8EE476A9FED286AD9
:100FB80086EE267A234B1B6BC3F3080306EE903AA2
:100FC800F8EE666A9FED236A67EE867A76EEA77A70
:100FD800F7EE006A77EEA67A27EE277A194B1B6B95
:100FE800C3F34623013307EE903AF8EE677AC7EE6B
:100FF800276AFCEEE67A17EE900A5DF8044B704714
:1010080007EE100AF8EE476A9FED146A86EE267A14
:101018000C4B1B6BC3F3080306EE903AF8EE666AB6
:101028009FED0C6A67EE867A76EEA77AF7EE006A8D
:1010380077EEA67A27EE277AD0E709487047034863
:10104800704700BF0044025800093D000090D003DB
:101058000024744A000000390024744C20BCBE4BA4
:1010680040787D01002800F0328170B50D460446B5
:101078009B4B1B6803F00F038B420BD2984A1368F3
:1010880023F00F030B431360136803F00F038B4225
:1010980040F01F81236813F0040F0CD02269914B94
:1010A8009B6903F070039A4205D98E498B6923F036
:1010B80070031A438A61236813F0080F0CD0626921
:1010C800884BDB6903F070039A4205D98549CB69DF
:1010D80023F070031A43CA61236813F0100F0CD071
:1010E800A269804BDB6903F4E0639A4205D97D4924
:1010F800CB6923F4E0631A43CA61236813F0200F15
:101108000CD0E269774B1B6A03F070039A4205D949
:1011180074490B6A23F070031A430A62236813F0B8
:10112800020F0CD0E2686F4B9B6903F00F039A42E1
:1011380005D96C498B6923F00F031A438A61236828
:1011480013F0010F41D0674A936923F47063A168D3
:101158000B4393616368022B0AD0032B27D0012B22
:101168002CD0604A126812F0040F06D10120ADE0BD
:10117800126812F4003F00F0AE805A490A6922F062
:10118800070213430B6100F069FA0646554B1B69C9
:1011980003F038036268B3EBC20F16D000F05EFAB2
:1011A800801B41F288339842F0D903208EE04D4AE3
:1011B800126812F0007FE0D1012087E0494A1268E6
:1011C80012F4807FD9D1012080E0236813F0020F48
:1011D8000CD0E268434B9B6903F00F039A4205D297
:1011E80040498B6923F00F031A438A613C4B1B6803
:1011F80003F00F03AB420AD9394A136823F00F03EF
:101208002B431360136803F00F03AB4265D12368C7
:1012180013F0040F0CD02269324B9B6903F0700362
:101228009A4205D22F498B6923F070031A438A61C9
:10123800236813F0080F0CD062692A4BDB6903F0AE
:1012480070039A4205D22749CB6923F070031A43E9
:10125800CA61236813F0100F0CD0A269214BDB6917
:1012680003F4E0639A4205D21E49CB6923F4E06394
:101278001A43CA61236813F0200F0CD0E269194B96
:101288001B6A03F070039A4205D216490B6A23F0D1
:1012980070031A430A62FFF7EBFD12498B69C3F327
:1012A8000323114AD35C03F01F03D8408B6903F072
:1012B8000F03D35C03F01F0320FA03F30B4A1360F8
:1012C8000B4B18600B4B186800F066F970BD0120D5
:1012D80070470120FAE70120F8E70120F6E700BF90
:1012E8000020005200440258DC1700080C000020BF
:1012F8000800002004000020F0B583B000236BE054
:1013080085685E000324B44025EA0405CC68B4402F
:101318002C438460446824EA0C0C4C68C4F3001421
:101328009C4044EA0C04446068E0DD08083550F845
:10133800256003F007044FEA840C0F2404FA0CF428
:1013480026EA040E0C6904FA0CF444EA0E0440F888
:1013580025406BE0092400E0002404FA0EF42C4335
:101368000CF1020C694D45F82C404FF0B04425684B
:10137800D44325EA02064F6817F4801F01D042EAD9
:1013880005064FF0B0452E606D6804EA05064F6803
:1013980017F4001F01D042EA05064FF0B0456E6011
:1013A800D5F8845004EA05064F6817F4003F01D0C9
:1013B80042EA05064FF0B045C5F88460D5F880507C
:1013C8002C404E6816F4803F01D042EA05044FF0E5
:1013D800B042C2F8804001330A6832FA03F400F0E0
:1013E80092804FF0010C0CFA03FC1CEA0202F2D0C6
:1013F8004C6804F00304013C012C81D94C6804F0CA
:101408000304032C0CD0C4685D004FF0030C0CFAE5
:1014180005FC24EA0C0C8C68AC4044EA0C04C4605B
:101428004C6804F00304022C3FF47FAF04684FEAD1
:10143800430E4FF0030C0CFA0EFC24EA0C0C4C681B
:1014480004F0030404FA0EF444EA0C0404604C6843
:1014580014F4403FBFD02E4CD4F8F45045F00205A8
:10146800C4F8F450D4F8F44004F002040194019C48
:101478004FEA930C0CF10205244C54F8255003F064
:1014880003044FEA840E0F2404FA0EF425EA040537
:10149800204CA0423FF460AF04F58064A04222D003
:1014A80004F58064A04220D004F58064A0421ED0D8
:1014B80004F58064A0421CD004F58064A0421AD0D0
:1014C80004F58064A04218D004F58064A04216D0C8
:1014D80004F58064A04214D004F58064A0423FF46F
:1014E80039AF0A2439E7012437E7022435E7032412
:1014F80033E7042431E705242FE706242DE70724E2
:101508002BE7082429E703B0F0BD00BF000400580A
:1015180000440258000002580AB18161704709046A
:1015280081617047704708B54FF0B043D3F88830F1
:10153800034200D108BD4FF0B043C3F88800FFF75D
:10154800F1FFF7E7134BDB6813F0040F07D1114BDA
:10155800DB6803F0070383421AD00120704710B5F7
:101568000C4AD36823F007031843D06000F076F8DC
:101578000446084B5B6813F4005F07D100F06EF86F
:10158800001BB0F57A7FF4D9012000E0002010BDDF
:101598000020704700480258104B1B780BB90120F7
:1015A800704710B504464FF47A70B0FBF3F30C4A59
:1015B8001068B0FBF3F0FFF79FF868B90F2C01D95A
:1015C80001200AE0002221464FF0FF30FFF750F8D3
:1015D800044B1C60002000E0012010BD000000202A
:1015E800080000200400002010B50320FFF72EF8A3
:1015F800FFF73EFC0F498B69C3F303230E4AD35C04
:1016080003F01F03D8408B6903F00F03D35C03F08A
:101618001F0320FA03F3094A1360094B18600F20CF
:10162800FFF7BAFF10B10124204610BD0446FEF7AB
:10163800FBFFF9E700440258DC1700080C00002003
:1016480008000020034B1B78034A11680B44136001
:10165800704700BF000000202C000020014B1868D4
:10166800704700BF2C00002038B50446FFF7F6FF8E
:101678000546B4F1FF3F02D0044B1B781C44FFF72A
:10168800EDFF401BA042FAD338BD00BF0000002088
:10169800014B1868000C70470010005C274AD2F80C
:1016A800883043F47003C2F88830254B1B6803F078
:1016B8000F03062B06D8224A136823F00F0343F0C2
:1016C800070313601F4B1A6842F001021A600022D8
:1016D8001A6119681C4A0A401A60194B1B6813F0F2
:1016E800080F06D0164A136823F00F0343F00703C8
:1016F8001360144B00229A61DA611A6213499962E5
:101708001349D962134919635A639963DA631964EF
:101718005A64196821F4802119601A660E4B1A68F8
:101728000E4B1340B3F1005F03D20D4B0122C3F8F7
:1017380008210C4B43F2D2021A60704700ED00E01A
:1017480000200052004402587FEDF6EA000202022F
:101758000000FF01800201010010005C0000FFFF93
:101768000080005100400052DFF834D0FFF796FFA8
:101778000C480D490D4A002302E0D458C4500433E4
:10178800C4188C42F9D30A4A0A4C002301E01360BA
:101798000432A242FBD3FEF7BFFDFEF7A7FE704757
:1017A800000002200000002010000020F4170008AC
:1017B8001000002030000020FEE70000F8B500BF50
:1017C800F8BC08BC9E467047F8B500BFF8BC08BC1A
:0417D8009E46704772
:1017DC0000000000010203040102030406070809CB
:0417EC0001030008ED
:0417F000D902000812
:1017F40001000000100000000090D0030090D0030E
:040000050800177167
:00000001FF
