:0200000490006A
:1000000000000824B1120090DD0F0090DF0F009077
:10001000E10F0090E30F0090E50F0090000000005A
:10002000000000000000000000000000E70F00904A
:10003000E90F009000000000EB0F0090ED0F009022
:100040000113009001130090011300900113009020
:100050000113009001130090011300900113009010
:100060000113009001130090F50F00900110009013
:1000700011100090011300900113009001130090E3
:1000800001130090011300900113009001130090E0
:1000900001130090011300900113009001130090D0
:1000A00001130090011300900113009001130090C0
:1000B00001130090011300900113009001130090B0
:1000C00001130090011300900113009001130090A0
:1000D0000113009001130090011300900113009090
:1000E0000113009001130090000000000113009024
:1000F0000113009001130090011300900113009070
:10010000011300900113009001130090011300905F
:100110002110009001130090011300900113009032
:10012000011300900113009001130090011300903F
:10013000011300900113009001130090011300902F
:1001400000000000000000000000000000000000AF
:10015000011300900113009001130090011300900F
:1001600001130090011300900113009001130090FF
:1001700001130090011300900113009001130090EF
:1001800001130090011300900113009001130090DF
:1001900001130090011300900113009001130090CF
:1001A00001130090011300900113009001130090BF
:1001B00001130090011300900113009001130090AF
:1001C000011300900113009001130090011300909F
:1001D000011300900113009001130090011300908F
:1001E000011300900113009001130090011300907F
:1001F000011300900113009001130090011300906F
:10020000011300900113009001130090011300905E
:10021000011300900113009001130090011300904E
:1002200001130090011300900113009000000000E2
:1002300001130090011300900000000001130090D2
:10024000011300900113009001130090011300901E
:10025000011300900113009001130090011300900E
:1002600001130090011300900113009001130090FE
:100270000113009001130090011300900000000092
:100280000113009001130090011300900000000082
:080290000000000001130090C2
:100298000348044B834202D0034B03B1184770470D
:1002A80040040024400400240000000005480649DA
:1002B8000B1AD90F01EBA301491002D0034B03B16C
:1002C8001847704740040024400400240000000040
:1002D80010B5064C237843B9FFF7DAFF044B13B186
:1002E8000448AFF300800123237010BD40040024AC
:1002F800000000001C57009008B5044B1BB10449CE
:100308000448AFF30080BDE80840CFE700000000D4
:10031800440400241C57009080F0004002E000BF15
:1003280081F0004142001FBF5FEA410392EA030FD8
:100338007FEA226C7FEA236C6AD04FEA1262D2EB22
:100348001363C1BFD218414048404140B8BF5B4227
:10035800192B88BF704710F0004F40F4000020F0C0
:100368007F4018BF404211F0004F41F4000121F0D6
:100378007F4118BF494292EA030F3FD0A2F1010220
:1003880041FA03FC10EB0C00C3F1200301FA03F15E
:1003980000F0004302D5494260EB4000B0F5000F81
:1003A80013D3B0F1807F06D340084FEA310102F140
:1003B8000102FE2A51D2B1F1004F40EBC25008BFF2
:1003C80020F0010040EA03007047490040EB0000BC
:1003D800013A28BFB0F5000FEDD2B0FA80FCACF1BD
:1003E800080CB2EB0C0200FA0CF0AABF00EBC250EA
:1003F80052421843BCBFD0401843704792F0000FD8
:1004080081F4000106BF80F400000132013BB5E72A
:100418004FEA41037FEA226C18BF7FEA236C21D0A0
:1004280092EA030F04D092F0000F08BF0846704705
:1004380090EA010F1CBF0020704712F07F4F04D1D3
:10044800400028BF40F00040704712F100723CBFE6
:1004580000F50000704700F0004343F0FE4040F410
:10046800000070477FEA226216BF08467FEA2363CE
:100478000146420206BF5FEA412390EA010F40F4B9
:10048800800070474FF0000304E000BF10F0004305
:1004980048BF40425FEA000C08BF704743F09643EC
:1004A80001464FF000001CE050EA010208BF704707
:1004B8004FF000030AE000BF50EA010208BF70478E
:1004C80011F0004302D5404261EB41015FEA010CA3
:1004D80002BF84460146002043F0B64308BFA3F19B
:1004E8008053A3F50003BCFA8CF2083AA3EBC2537D
:1004F80010DB01FA02FC634400FA02FCC2F120029C
:10050800BCF1004F20FA02F243EB020008BF20F0D2
:100518000100704702F1200201FA02FCC2F1200238
:1005280050EA4C0021FA02F243EB020008BF20EA2D
:10053800DC7070474FF0FF0C1CEAD0521EBF1CEA5B
:10054800D15392EA0C0F93EA0C0F6FD01A4480EA49
:10055800010C400218BF5FEA41211ED04FF0006332
:1005680043EA501043EA5111A0FB01310CF000405E
:10057800B1F5000F3EBF490041EAD3715B0040EA84
:10058800010062F17F02FD2A1DD8B3F1004F40EB54
:10059800C25008BF20F00100704790F0000F0CF027
:1005A800004C08BF49024CEA502040EA51207F3AEB
:1005B800C2BFD2F1FF0340EAC250704740F40000C6
:1005C8004FF00003013A5DDC12F1190FDCBF00F0B7
:1005D80000407047C2F10002410021FA02F1C2F165
:1005E800200200FA02FC5FEA310040F1000053EA01
:1005F8004C0308BF20EADC70704792F0000F00F04F
:10060800004C02BF400010F4000F013AF9D040EA54
:100618000C0093F0000F01F0004C02BF490011F4E8
:10062800000F013BF9D041EA0C018FE70CEAD153E6
:1006380092EA0C0F18BF93EA0C0F0AD030F0004C66
:1006480018BF31F0004CD8D180EA010000F000401A
:10065800704790F0000F17BF90F0004F084691F0D8
:10066800000F91F0004F14D092EA0C0F01D1420212
:100678000FD193EA0C0F03D14B0218BF084608D1DB
:1006880080EA010000F0004040F0FE4040F4000025
:10069800704740F0FE4040F4400070474FF0FF0CB8
:1006A8001CEAD0521EBF1CEAD15392EA0C0F93EAFF
:1006B8000C0F69D0A2EB030280EA010C49024FEA51
:1006C800402037D04FF0805343EA111143EA10130A
:1006D8000CF000408B4238BF5B0042F17D024FF4C2
:1006E800000C8B4224BF5B1A40EA0C00B3EB510F9D
:1006F80024BFA3EB510340EA5C00B3EB910F24BF86
:10070800A3EB910340EA9C00B3EBD10F24BFA3EB0A
:10071800D10340EADC001B0118BF5FEA1C1CE0D1D2
:10072800FD2A3FF650AF8B4240EBC25008BF20F085
:10073800010070470CF0004C4CEA50207F32C2BFD9
:10074800D2F1FF0340EAC250704740F400004FF076
:100758000003013A37E792F0000F00F0004C02BFA7
:10076800400010F4000F013AF9D040EA0C0093F071
:10077800000F01F0004C02BF490011F4000F013BCB
:10078800F9D041EA0C0195E70CEAD15392EA0C0F33
:1007980008D142027FF47DAF93EA0C0F7FF470AF6B
:1007A800084676E793EA0C0F04D14B023FF44CAFAE
:1007B80008466EE730F0004C18BF31F0004CCAD143
:1007C80030F000427FF45CAF31F000437FF43CAF7F
:1007D8005FE700BF42000ED2B2F1FE4F0BD34FF0DD
:1007E8009E03B3EB126209D44FEA002343F000439F
:1007F80023FA02F070474FF00000704712F1610FC2
:1008080001D1420202D14FF0FF3070474FF0000093
:10081800704700BF53B94AB9002908BF00281CBF58
:100828004FF0FF314FF0FF3000F074B9ADF1080C14
:100838006DE904CE00F006F8DDF804E0DDE90223F6
:1008480004B070472DE9F047089E0D4604468846D7
:10085800002B4DD18A42944668D9B2FA82F252B13D
:1008680001FA02F3C2F1200120FA01F10CFA02FCAC
:1008780041EA030894404FEA1C45210CB8FBF5FEF9
:100888001FFA8CF705FB1E8341EA03430EFB07F1B1
:1008980099420BD91CEB03030EF1FF3080F01E8147
:1008A800994240F21B81AEF1020E63445B1AA4B276
:1008B800B3FBF5F005FB103344EA034400FB07F7EC
:1008C800A7420AD91CEB040400F1FF3380F0088129
:1008D800A74240F2058164440238E41B40EA0E4016
:1008E80000211EB1D4400023C6E90043BDE8F087CB
:1008F8008B4208D9002E00F0EE800021C6E90005E1
:100908000846BDE8F087B3FA83F100294AD1AB4223
:1009180002D3824200F2F980841A65EB03030120B6
:100928009846002EE2D0C6E90048DFE702B9FFDEAC
:10093800B2FA82F2002A40F09180A1EB0C054FEA4E
:100948001C471FFA8CFE0121B5FBF7F307FB135078
:10095800250C45EA00450EFB03F0A84208D91CEB1C
:10096800050503F1FF3802D2A84200F2CB804346C6
:100978002D1AA4B2B5FBF7F007FB105544EA05445D
:100988000EFB00FEA64508D91CEB040400F1FF3558
:1009980002D2A64500F2BB802846A4EB0E0440EA2A
:1009A80003409EE7C1F120078B4022FA07FC4CEA7E
:1009B800030C20FA07F405FA01F31C43FD404FEA43
:1009C8001C4900FA01F3B5FBF9F8200C1FFA8CFE5C
:1009D80009FB185540EA054508FB0EF0A84202FA43
:1009E80001F20BD91CEB050508F1FF3A80F088806D
:1009F800A84240F28580A8F1020865442D1AA4B2E5
:100A0800B5FBF9F009FB105544EA054500FB0EFE5D
:100A1800AE4508D91CEB050500F1FF346CD2AE4594
:100A28006AD90238654440EA0840A0FB0294A5EB65
:100A38000E05A542C846A64656D353D05EB1B3EBC1
:100A4800080265EB0E0505FA07F722FA01F3CD4017
:100A58001F43C6E900750021BDE8F087C2F12003F5
:100A680020FA03F10CFA02FC25FA03F395400D4332
:100A78004FEA1C471FFA8CFEB3FBF7F107FB113056
:100A88002B0C43EA004301FB0EF0984204FA02F4EF
:100A980008D91CEB030301F1FF382FD298422DD956
:100AA800023963441B1AADB2B3FBF7F007FB1033EE
:100AB80045EA034500FB0EF3AB4208D91CEB0505DC
:100AC80000F1FF3816D2AB4214D902386544ED1A4A
:100AD80040EA014138E73146304607E78646E5E611
:100AE8001846FAE64B45A9D2B9EB020864EB0C0E9E
:100AF8000138A3E74046EAE7204694E74146D1E7B4
:100B0800D0467BE7023B654432E7084609E7644480
:100B1800023842E7704700BF002301461A461846CC
:100B280000F08CB838B5084B084D5B1B9C1007D0FB
:100B3800043B1D44013C55F804399847002CF9D171
:100B4800BDE8384004F0ECBD9457009090570090F1
:100B580070B50D4E0D4D761BB61006D0002455F815
:100B6800043B01349847A642F9D1094E094D761B3A
:100B780004F0D0FDB61006D0002455F8043B01342B
:100B88009847A642F9D170BD8857009088570090C1
:100B98009057009088570090830730B548D0541E6E
:100BA800002A3FD0CAB2034601E0013C3AD303F819
:100BB800012B9D07F9D1032C2DD9CDB245EA052586
:100BC8000F2C45EA054536D9A4F1100222F00F0C86
:100BD80003F1200EE6444FEA121C03F1100242E929
:100BE800045542E9025510327245F8D10CF1010260
:100BF80014F00C0F03EB021204F00F0C13D0ACF13D
:100C0800040323F003030433134442F8045B9342C0
:100C1800FBD10CF003042CB1CAB21C4403F8012B1D
:100C28009C42FBD130BD64461346002CF4D1F9E751
:100C380003461446BFE71A46A446E0E770B4184CCA
:100C48002568D5F848411CB365681F2D25DC38B9DF
:100C5800AB1C0135656044F82310002070BC704758
:100C680004EB850C0228CCF88820D4F888614FF072
:100C7800010202FA05F246EA0206C4F88861CCF8D5
:100C88000831E5D1D4F88C311343C4F88C31DFE74F
:100C980005F5A674C5F84841D6E74FF0FF30DDE703
:100CA8003457009000B583B00F4BD3F8D82042F0EA
:100CB8000102C3F8D820D3F8D83003F00103019318
:100CC800019B002211460B2000F0ACFB0B2000F02A
:100CD800DFFB002211460C2000F0A4FB0C2000F0E2
:100CE800D7FB03B05DF804FB00440258F0B58BB0A5
:100CF800002405940694079408940994334BD3F878
:100D0800E02042F00402C3F8E020D3F8E02002F02B
:100D180004020192019AD3F8E02042F48072C3F8E9
:100D2800E020D3F8E02002F480720292029AD3F80D
:100D3800E02042F08002C3F8E020D3F8E02002F07F
:100D480080020392039AD3F8E02042F00102C3F82C
:100D5800E020D3F8E03003F001030493049B1C4F18
:100D680022464FF40041384601F096FE194E2246BD
:100D78004FF48071304601F08FFE4FF40043059325
:100D8800012506950794089405A9384601F070FDD9
:100D98004FF48073059306950794089405A9304687
:100DA80001F066FD102305934FF40413069307958D
:100DB80005A9094801F05CFD224621460A2000F0F9
:100DC80031FB0A2000F064FB0BB0F0BD0044025870
:100DD8000008025800200258001C025810B584B0C0
:100DE8000024009401940294039400F073FB0123FF
:100DF8008DF800308DF8014001941F228DF80820ED
:100E080087228DF809208DF80A408DF80B408DF85F
:100E18000C308DF80D308DF80E408DF80F40684677
:100E280000F076FB042000F063FB04B010BD000066
:100E3800102800D07047054B1B6913F0100FFAD02B
:100E4800034A536983F400435361F3E7001C0258D3
:100E58000008025872B6FEE700B59FB04C22002188
:100E68000BA8FFF799FE2022002103A8FFF794FEA4
:100E7800022001F027FE00230093394BDA6A22F0A2
:100E88000102DA62DB6A03F001030093354B9A69C9
:100E980042F440429A619B6903F440430093009BEB
:100EA800304B9B6913F4005FFAD02F4BD3F8F42032
:100EB80042F00202C3F8F420D3F8F43003F002033E
:100EC8000193019B00230293264B9A6942F4404206
:100ED8009A619B6903F440430293214BDA6A42F01A
:100EE8000102DA62DB6A03F001030293029B1D4BE5
:100EF8009B6913F4005FFAD001230B934FF48033FE
:100F08000C9302231493159305221692C02217926C
:100F1800189319931A9308231B9300231C931D936A
:100F28000BA801F0F9FDB0B93F2303930323049301
:100F380000230593082306934023079308934FF44F
:100F4800806209920A93042103A802F04BFA20B99F
:100F58001FB05DF804FBFFF77DFFFFF77BFF00BFC5
:100F680000040058004802580044025808B500F030
:100F7800EDF9FFF733FFFFF76FFFFFF7B7FEFFF756
:100F880091FE00F0B5F8074A536983F48073536102
:100F9800642000F01BFA642308220349034804F084
:100FA8001DFAF0E700200258385700904C0500243D
:100FB80082B0074BD3F8F42042F00202C3F8F420C1
:100FC800D3F8F43003F002030193019B02B0704799
:100FD80000440258FEE7FEE7FEE7FEE7FEE770473B
:100FE8007047704708B500F0DFF908BD08B5102054
:100FF80001F058FD08BD000008B5024801F09CF852
:1010080008BD00BFD404002408B5024801F094F8D4
:1010180008BD00BF5C04002408B5024803F056FC74
:1010280008BD00BF4C050024264B1B6803F00F03C6
:10103800062B06D8234A136823F00F0343F007034F
:101048001360214B1A6842F001021A6000221A61EB
:1010580019681E4A0A401A601A4B1B6813F0080FD9
:1010680006D0184A136823F00F0343F007031360F0
:10107800154B00229A61DA611A621549996215497D
:10108800D962154919635A639963DA6319645A6412
:10109800196821F4802119601A66104B1A68104BE0
:1010A8001340B3F1005F03D20E4B0122C3F80821AD
:1010B8000D4B43F2D2021A600C4B4FF010429A606B
:1010C800704700BF00200052004402587FEDF6EA46
:1010D800000202020000FF01800201010010005C12
:1010E8000000FFFF008000510040005200ED00E0CA
:1010F80008B51748174B03604FF4E13343600023EA
:101108008360C36003610C2242618361C36103622F
:101118004362836204F02FFA70B900210C4804F08E
:10112800A5FA60B900210A4804F0C5FA50B9084880
:1011380004F07DFA48B908BDFFF78CFEEDE7FFF72C
:1011480089FEEFE7FFF786FEF1E7FFF783FEF2E798
:101158004C050024004C0040F0B5BBB0044600210B
:1011680035913691379138913991C02204A8FFF70B
:1011780013FD2268444B9A4201D03BB0F0BD0222D5
:101188000023CDE9042304A802F0C8FB002871D18C
:101198003E4BD3F8E82042F40022C3F8E820D3F805
:1011A800E82002F400220192019AD3F8E02042F4E8
:1011B8008072C3F8E020D3F8E02002F48072029233
:1011C800029AD3F8E02042F00102C3F8E020D3F8F5
:1011D800E03003F001030393039B4FF4007335934E
:1011E800022736970025379538950826399635A968
:1011F800274801F03DFB01233593369737953895FD
:10120800399635A9234801F033FB2348234B036063
:10121800402343608360C5604FF480630361456188
:101228008561C5610562456200F0DCFA28BB1A4B8E
:10123800E3679C631A481B4B03603F23436000230A
:101248008360C3604FF48062026143618361C3615C
:101258000362436200F0C6FA90B9114BC4F88030BB
:101268009C6300221146342000F0DCF8342000F0A2
:101278000FF982E7FFF7EEFD8AE7FFF7EBFDD6E708
:10128800FFF7E8FDE9E700BF004C004000440258C2
:101298000020025800000258D40400241000024024
:1012A8005C04002428000240DFF834D0FFF7BCFEBD
:1012B8000C480D490D4A002302E0D458C4500433A9
:1012C800C4188C42F9D30A4A0A4C002301E013607F
:1012D8000432A242FBD3FFF73BFCFFF747FE7047FF
:1012E80000000824000000244004002494570090C3
:1012F80040040024E4050024FEE70000104B1B789E
:101308000BB90120704710B504464FF47A70B0FB52
:10131800F3F30C4A1068B0FBF3F000F0C7F868B9B3
:101328000F2C01D901200AE0002221464FF0FF309E
:1013380000F078F8044B1C60002000E0012010BD8C
:1013480038040024300400243C04002410B5032091
:1013580000F056F801F03AFF0F498B69C3F30323F5
:101368000E4AD35C03F01F03D8408B6903F00F03C8
:10137800D35C03F01F0320FA03F3094A1360094BF7
:1013880018600F20FFF7BAFF10B10124204610BDE6
:101398000446FFF70DFEF9E7004402584057009055
:1013A8003404002430040024034B1B78034A1168DA
:1013B8000B441360704700BF38040024E005002484
:1013C800014B1868704700BFE005002438B5044693
:1013D800FFF7F6FF0546B4F1FF3F02D0044B1B7838
:1013E8001C44FFF7EDFF401BA042FAD338BD00BFF5
:1013F80038040024014B1868000C70470010005C8A
:101408000649CB6823F4E0631B041B0C000200F4BC
:10141800E0600343024A1A43CA60704700ED00E0E7
:101428000000FA0500B5174BDB68C3F30223C3F1CC
:10143800070CBCF1040F28BF4FF0040C03F1040E95
:10144800BEF1060F14D9033B4FF0FF3E0EFA0CFC19
:1014580021EA0C0199400EFA03F322EA0303194327
:10146800002807DB0901C9B2074B19545DF804FBD2
:101478000023E9E700F00F000901C9B2034B195432
:10148800F4E700BF00ED00E000E400E014ED00E048
:10149800002807DB00F01F02400901239340024A9D
:1014A80042F82030704700BF00E100E00138B0F199
:1014B800807F0BD24FF0E0235861054AF02182F873
:1014C80023100020986107221A6170470120704795
:1014D80000ED00E0BFF35F8F044B5A6A22F48032BC
:1014E8005A620022C3F89420704700BF00ED00E064
:1014F80040F00100054BC3F894005A6A42F4803268
:101508005A62BFF34F8FBFF36F8F704700ED00E053
:101518004278164BC3F898200378FBB14368134A06
:10152800C2F89C30017BC37A1B0643EA0173817AB7
:1015380043EAC143417B43EA8143817B43EA414318
:10154800C17B43EA0143417A43EA0123017A43EA32
:10155800410301780B43C2F8A0307047034B0022C7
:10156800C3F89C20C3F8A020704700BF00ED00E03E
:1015780003682749274A934218BF8B422FD0183255
:1015880093422CD01832934229D01832934226D055
:101598001832934223D01832934220D01832934203
:1015A8001DD002F55672934219D01832934216D0C4
:1015B8001832934213D01832934210D01832934203
:1015C8000DD0183293420AD01832934207D01832FD
:1015D800934204D023F0FF038365806D704710B4F5
:1015E800D9B210390C4AA2FB0142C2F302120B4CC9
:1015F800A25CC2655F2906D9094A1A40043282658D
:10160800806D10BC7047064A1A408265F8E700BF33
:101618001000024028000240ABAAAAAA5057009026
:1016280000FCFFFF83699BB9836A012B0AD0022B58
:1016380002D00BB100207047C36A13F0807F2AD113
:1016480000207047C36AB3F1C07F26D000207047DE
:10165800B3F5005F0AD0836A022B26D9032B26D163
:10166800C36A13F0807F24D100207047836A032B5C
:1016780003D8DFE803F01404140A00207047C36A93
:1016880013F0807F0DD100207047C36AB3F1C07F8B
:1016980009D00020704701207047012070470120C1
:1016A80070470120704701207047012070470020D3
:1016B800704701207047000003682249224A93427C
:1016C80018BF8B4228D01432934225D0143293424B
:1016D80022D0143293421FD0143293421CD01432B9
:1016E800934219D01432934216D0DAB2103A1749FD
:1016F800A1FB0212120916491944A8291FD9154B32
:1017080013449B000366144B436602F01F02012337
:1017180003FA02F282667047DBB2083B0F4AA2FB6B
:1017280003230F4A02EB1312920002660D4A426627
:10173800C3F30413012202FA03F3836670470832E5
:10174800DDE700BF085402581C540258ABAAAAAAE5
:10175800F0FBFDBF0082001080080240CDCCCCCC4D
:10176800009600168058025801794A1E072A2CD87C
:1017780030B40368154D164CA34218BFAB4218D0BD
:101788001434A34215D01434A34212D01434A34203
:101798000FD01434A3420CD01434A34209D014340B
:1017A800A34206D00B4B0B449B00C3660A4B03674E
:1017B80005E00A4B0B449B00C366094B03670123F2
:1017C80003FA02F2426730BC704770470854025867
:1017D8001C5402583F820010400902403F960016F0
:1017E8004059025870B50446FFF7EAFD002C00F096
:1017F800B681054623685349534A934218BF8B4222
:101808000CBF0122002250D030318B424DD018310C
:101818008B424AD018318B4247D018318B4244D082
:1018280018318B4241D018318B423ED001F55671A8
:101838008B423AD018318B4237D018318B4234D092
:1018480018318B4231D018318B422ED018318B424F
:101858002BD018318B4228D018318B4225D03B49E8
:101868003B4A934218BF8B4200F03181394A934278
:1018780000F02D811432934200F0298114329342F2
:1018880000F025811432934200F0218114329342F2
:1018980000F01D811432934200F0198140236365E2
:1018A800032384F8353001204AE0022184F83510FA
:1018B800002184F834107ABB274A93422CD018327E
:1018C800934229D01832934226D01832934223D01B
:1018D8001832934220D0183293421DD002F5567226
:1018E800934219D01832934216D01832934213D02B
:1018F8001832934210D0183293420DD018329342C6
:101908000AD01832934207D01832934204D01A688A
:1019180022F001021A6003E01A6822F001021A603C
:1019280023681A6812F0010F18D0FFF749FD431B0E
:10193800052BF5D920236365032384F8353001206E
:1019480070BD00BF10000240280002400854025831
:101958001C54025830540258400002401A6881480A
:101968001040A168E2680A4321690A4361690A4391
:10197800A1690A43E1690A43216A0A430243616A89
:10198800042900F099807849086878490140B1F144
:10199800005F11D36168A1F12905A1F13F00032877
:1019A80088BF052D06D9A1F14700012802D94F3972
:1019B800032901D842F480121A602668756925F057
:1019C8000705636A1D43042B08D1A36A1D43E36A14
:1019D80023B12046FFF726FE002872D17561204604
:1019E800FFF7C6FDE36D03F01F023F2393408360BA
:1019F80023685F495F4A934218BF8B4242D018322E
:101A080093423FD0183293423CD01832934239D097
:101A18001832934236D01832934233D01832934258
:101A280030D002F5567293422CD01832934229D006
:101A38001832934226D01832934223D01832934258
:101A480020D0183293421DD0183293421AD018323F
:101A5800934217D0484A934214D01432934211D07B
:101A6800143293420ED0143293420BD01432934264
:101A780008D01432934205D01432934202D0143263
:101A8800934213D12046FFF717FEA368802B59D045
:101A9800236E22791A60636EA26E5A606368013BF6
:101AA800072B52D90023E36623676367002060652C
:101AB800012384F8353043E7E16A206B01430A4388
:101AC80061E740236365012084F8350038E7022286
:101AD80084F83520002284F834201A6827491140F8
:101AE800A268402A2CD0802A27D00022E06842EA47
:101AF800D002206942EAD002606942EAD002A069B5
:101B080042EAD002E06942EAD002206A42EA1012B0
:101B18000A431A6022681A4B13441A4AA2FB032389
:101B28001B099B00E3652046FFF722FDE26D02F0EA
:101B38001F0101228A4042605AE74FF48042D5E7EC
:101B48001022D3E700236360A2E72046FFF70CFECC
:101B5800E36E00221A60236F626F5A60A6E70120C5
:101B6800EEE600BF3F8010FE0010005C0000FFFFA3
:101B78001000024028000240085402580F00FEFFDF
:101B8800F8ABFDA7CDCCCCCC70B50446FFF718FC5C
:101B9800002C00F09181054694F83530DBB2022B19
:101BA80006D080236365002384F83430012070BD9B
:101BB80023688C498C4A934218BF8B4230D0183224
:101BC80093422DD0183293422AD01832934227D00C
:101BD8001832934224D01832934221D018329342BB
:101BE8001ED002F5567293421AD01832934217D07B
:101BF8001832934214D01832934211D018329342BB
:101C08000ED0183293420BD01832934208D01832B3
:101C1800934205D01A6822F00E021A60266809E07D
:101C28001A6822F01E021A602268536923F08003A2
:101C38005361266823686B496B4A934218BF8B42ED
:101C480042D0183293423FD0183293423CD01832D7
:101C5800934239D01832934236D01832934233D057
:101C68001832934230D002F5567293422CD0183273
:101C7800934229D01832934226D01832934223D067
:101C88001832934220D0183293421DD01832934212
:101C98001AD01832934217D0544A934214D01432AF
:101CA800934211D0143293420ED0143293420BD087
:101CB8001432934208D01432934205D0143293421E
:101CC80002D01432934204D1226E136823F4807335
:101CD800136023684349444A934218BF8B422FD06C
:101CE800183293422CD01832934229D0183293429A
:101CF80026D01832934223D01832934220D018327B
:101D080093421DD002F55672934219D0183293426D
:101D180016D01832934213D01832934210D018328A
:101D280093420DD0183293420AD01832934207D00A
:101D38001832934204D01A6822F001021A6003E0B4
:101D48001A6822F001021A60336813F0010F0ED0EE
:101D5800FFF736FB431B052BF6D9202363650323C6
:101D680084F83530002384F8343001201FE72368D5
:101D78001C491D4A934218BF8B4239D018329342EE
:101D880036D01832934233D01832934230D01832BA
:101D980093422DD0183293422AD01832934227D03A
:101DA80002F55672934223D01832934220D018324B
:101DB80093421DD0183293421AD01832934217D04A
:101DC8001832934214D01832934211D018329342E9
:101DD8000ED0A16DE36D03F01F02012393404B6009
:101DE8000DE000BF100002402800024008540258CD
:101DF800A16DE36D03F01F023F2393408B602368BE
:101E08002E492F4A934218BF8B4242D01832934230
:101E18003FD0183293423CD01832934239D018320E
:101E2800934236D01832934233D01832934230D08E
:101E380002F5567293422CD01832934229D01832A8
:101E4800934226D01832934223D01832934220D09E
:101E5800183293421DD0183293421AD01832934246
:101E680017D0184A934214D01432934211D0143226
:101E780093420ED0143293420BD01432934208D0BE
:101E88001432934205D01432934202D01432934252
:101E98000BD1636EA26E5A60E36E33B11A6822F4F6
:101EA80080721A60236F626F5A60012384F835309C
:101EB800002084F834007AE6012078E61000024019
:101EC8002800024008540258002800F0298108B56B
:101ED800024690F83530DBB2022B03D080234365ED
:101EE800012008BD0368904890498B4218BF83427F
:101EF8000CBF0121002166D03030834263D01830F6
:101F0800834260D0183083425DD0183083425AD063
:101F18001830834257D01830834254D000F5567099
:101F2800834250D0183083424DD0183083424AD073
:101F38001830834247D01830834244D01830834247
:101F480041D0183083423ED0183083423BD01968C4
:101F580021F00E0119601368A0F5956073498B4252
:101F680018BF83426AD072498B4267D018318B42BE
:101F780064D018318B4261D018318B425ED0183151
:101F88008B425BD018318B4258D001F556718B4289
:101F980054D018318B4251D018318B424ED0183161
:101FA8008B424BD018318B4248D018318B4245D0E8
:101FB80018318B4242D018318B423FD0196821F03A
:101FC800010119603EE0042082F8350081BB584ABF
:101FD80093422DD0183293422AD01832934227D0F8
:101FE8001832934224D01832934221D018329342A7
:101FF8001ED002F5567293421AD01832934217D067
:102008001832934214D01832934211D018329342A6
:102018000ED0183293420BD01832934208D018329F
:10202800934205D01A6822F001021A60002058E78E
:102038001A6822F001021A60002052E7196821F09C
:10204800010119601368384838498B4218BF834228
:1020580042D018318B423FD018318B423CD01831D6
:102068008B4239D018318B4236D018318B4233D05D
:1020780018318B4230D001F556718B422CD0183173
:102088008B4229D018318B4226D018318B4223D06D
:1020980018318B4220D018318B421DD018318B4219
:1020A8001AD018318B4217D022498B4214D01431E0
:1020B8008B4211D014318B420ED014318B420BD08D
:1020C80014318B4208D014318B4205D014318B4225
:1020D80002D014318B4217D1116E0B6823F4807330
:1020E8000B60906DD36D03F01F0101238B4043609B
:1020F800536E916E5960D36E33B1196821F48071B3
:102108001960136F516F5960012382F8353000232D
:1021180082F83430136D2BB1104698470020E0E662
:10212800012070470020DCE6100002402800024031
:102138004000024008540258F0B583B0044600231A
:1021480001937D4B1D687D4BA3FB0535AD0A876D5B
:102158003E68D7F800C0036879497A48834218BFB7
:102168008B420CBF0120002061D0774A93425ED099
:10217800183293425BD01832934258D018329342A7
:1021880055D01832934252D0183293424FD002F5AC
:10219800567293424BD01832934248D01832934229
:1021A80045D01832934242D0183293423FD0183269
:1021B80093423CD01832934239D01832934236D0E9
:1021C8006249634A934218BF8B4212D0614A9342D4
:1021D8000FD0143293420CD01432934209D01432E7
:1021E800934206D01432934203D01432934240F003
:1021F80061821A68E16D01F01F010420884010EA2D
:102208000C0F00F0A78212F0040F00F0A382786090
:1022180012F4004F00F05A8212F4803F40F05082CE
:10222800A36C002B00F046822046984742E2E26DFC
:1022380002F01F0108228A40324241D070BB424A54
:1022480093422BD01832934228D01832934225D08B
:102258001832934222D0183293421FD01832934238
:102268001CD002F55672934218D01832934215D0FA
:102278001832934212D0183293420FD01832934238
:102288000CD01832934209D01832934206D0183233
:10229800934203D01A68C2F3C00202E01A68C2F37C
:1022A80080026AB11A6822F004021A60E36D03F032
:1022B8001F0208239340BB60636D43F0010363650D
:1022C800E26D02F01F0226FA02F313F0010F47D065
:1022D80023681B481B498B4218BF83423CD01831E6
:1022E8008B4239D018318B4236D018318B4233D0DB
:1022F80018318B4230D018318B422DD018318B4297
:102308002AD001F556718B4226D018318B4223D042
:1023180018318B4220D018318B421DD018318B4296
:102328001AD018318B4217D018318B4214D018317B
:102338008B4211D01B6813E030040024B5814E1B7A
:102348001000024028000240400002400854025891
:102358001C540258305402585B6913F0800F3BD16B
:10236800E36D03F01F03042202FA03F3334240D063
:102378002268964896498A4218BF824235D0183159
:102388008A4232D018318A422FD018318A422CD052
:1023980018318A4229D018318A4226D018318A4207
:1023A80023D001F556718A421FD018318A421CD0B9
:1023B80018318A4219D018318A4216D018318A4207
:1023C80013D018318A4210D018318A420DD01831F2
:1023D8008A420AD013680CE0012303FA02F2BA60B9
:1023E800636D43F002036365BAE7126812F0020FE7
:1023F8003DD1E36D03F01F03102202FA03F33342C9
:102408005FD02268714872498A4218BF824234D02C
:1024180018318A4231D018318A422ED018318A4276
:102428002BD018318A4228D018318A4225D0183149
:102438008A4222D001F556718A421ED018318A424A
:102448001BD018318A4218D018318A4215D0183159
:102458008A4212D018318A420FD018318A420CD0E1
:1024680018318A4209D01268C2F3800208E0BB60C2
:10247800636D43F004036365BBE71268C2F3C002EF
:10248800FAB1BB6023681A6812F4802F0DD01B685C
:1024980013F4002F04D1236C9BB12046984710E019
:1024A800A36C73B1204698470BE01A6812F4807F3A
:1024B80003D11A6822F008021A60236C0BB1204677
:1024C8009847E36D03F01F03202202FA03F3334217
:1024D80000F0928022683D483D498A4218BF8242F6
:1024E8002ED018318A422BD018318A4228D0183180
:1024F8008A4225D018318A4222D018318A421FD008
:1025080018318A421CD001F556718A4218D0183108
:102518008A4215D018318A4212D018318A420FD017
:1025280018318A420CD018318A4209D018318A42AF
:1025380006D018318A4203D01268C2F3400202E082
:102548001268C2F30012002A56D0BB6094F83530E6
:10255800DBB2042B0ED023681A6812F4802F39D00E
:102568001B6813F4002F2CD1636C002B44D0204639
:10257800984741E02268136823F016031360226825
:10258800536923F080035361236CB3B12268136845
:1025980023F008031360E36D03F01F023F23934009
:1025A800BB60012384F83530002384F83430236D70
:1025B800002B7FD0204698477CE0A36C002BE5D108
:1025C800E9E7E36BC3B12046984715E010000240E5
:1025D800280002401A6812F4807F09D11A6822F094
:1025E80010021A60012384F83530002384F834304F
:1025F800E36B0BB120469847636D002B5AD0636D8F
:1026080013F0010F52D0042384F83530236896491B
:10261800964A934218BF8B422FD0183293422CD03F
:102628001832934229D01832934226D01832934256
:1026380023D01832934220D0183293421DD002F58D
:102648005672934219D01832934216D018329342D8
:1026580013D01832934210D0183293420DD018324A
:1026680093420AD01832934207D01832934204D0CA
:102678001A6822F001021A6003E01A6822F00102C7
:102688001A60019B01330193AB4204D823681B688D
:1026980013F0010FF5D123681B6813F0010F0BD05D
:1026A800032384F83530002384F83430E36C0BB10D
:1026B8002046984703B0F0BD012384F83530F2E78F
:1026C800236C002BF6D020469847F3E712F0200F32
:1026D8003AD123686449654A934218BF8B422FD088
:1026E800183293422CD01832934229D01832934290
:1026F80026D01832934223D01832934220D0183271
:1027080093421DD002F55672934219D01832934263
:1027180016D01832934213D01832934210D0183280
:1027280093420DD0183293420AD01832934207D000
:102738001832934204D01A6822F004021A6003E0A7
:102748001A6822F008021A60236C002BB2D02046C7
:102758009847AFE70220884010EA0C0F60D012F0CB
:10276800020F5DD0786012F4004F0ED012F4803F53
:1027780005D1636C002B9DD0204698479AE7E36B00
:10278800002B97D02046984794E712F0200F40D1AD
:1027980023683549354A934218BF8B422FD01832E7
:1027A80093422CD01832934229D01832934226D023
:1027B8001832934223D01832934220D018329342D1
:1027C8001DD002F55672934219D01832934216D092
:1027D8001832934213D01832934210D018329342D1
:1027E8000DD0183293420AD01832934207D01832CB
:1027F800934204D01A6822F00A021A6003E01A68A9
:1028080022F014021A60012384F83530002384F87A
:102818003430E36B002B3FF44DAF2046984749E72F
:10282800082000FA01F111EA0C0F3FF443AF12F04F
:10283800080F3FF43FAF1A6822F00E021A60E36DEA
:1028480003F01F03012202FA03F37B60626584F838
:102858003520002384F83430E36C002B3FF42AAF92
:102868002046984726E700BF100002402800024093
:1028780070B582B000236EE085685E000324B44022
:1028880025EA0405CC68B4402C438460446824EAF3
:102898000C0C4C68C4F300149C4044EA0C044460DB
:1028A8006CE0DD08083550F8256003F007044FEAAE
:1028B800840C0F2404FA0CF426EA040E0C6904FABA
:1028C8000CF444EA0E0440F825406FE0092400E0C7
:1028D800002404FA0EF42C430CF1020C6B4D45F85D
:1028E8002C404FF0B0442568D44325EA0206D1F8BD
:1028F80004C01CF4801F01D042EA05064FF0B04521
:102908002E606D6804EA0506D1F804C01CF4001FA7
:1029180001D042EA05064FF0B0456E60D5F8845004
:1029280004EA0506D1F804C01CF4003F01D042EACD
:1029380005064FF0B045C5F88460D5F880502C40A6
:102948004E6816F4803F01D042EA05044FF0B042C9
:10295800C2F8804001330A6832FA03F400F0938029
:102968004FF0010C0CFA03FC1CEA0202F2D04C688E
:1029780004F00304013C012C7FF67EAF4C6804F0A0
:102988000304032C0CD0C4685D004FF0030C0CFA50
:1029980005FC24EA0C0C8C68AC4044EA0C04C460C6
:1029A8004C6804F00304022C3FF47BAF04684FEA40
:1029B800430E4FF0030C0CFA0EFC24EA0C0C4C6886
:1029C80004F0030404FA0EF444EA0C0404604C68AE
:1029D80014F4403FBED02E4CD4F8F45045F0020514
:1029E800C4F8F450D4F8F44004F002040194019CB3
:1029F8004FEA930C0CF10205244C54F8255003F0CF
:102A080003044FEA840E0F2404FA0EF425EA0405A1
:102A1800204CA0423FF45CAF04F58064A04222D071
:102A280004F58064A04220D004F58064A0421ED042
:102A380004F58064A0421CD004F58064A0421AD03A
:102A480004F58064A04218D004F58064A04216D032
:102A580004F58064A04214D004F58064A0423FF4D9
:102A680035AF0A2435E7012433E7022431E703248C
:102A78002FE704242DE705242BE7062429E707245C
:102A880027E7082425E702B070BD00BF00040058FE
:102A980000440258000002580AB1816170470904D5
:102AA8008161704708B54FF0B043D3F888300342CE
:102AB80000D108BD4FF0B043C3F88800FEF7B8F95D
:102AC800F7E70000134BDB6813F0040F07D1114B35
:102AD800DB6803F0070383421AD00120704710B562
:102AE8000C4AD36823F007031843D060FEF768FC4C
:102AF8000446084B5B6813F4005F07D1FEF760FCDF
:102B0800001BB0F57A7FF4D9012000E0002010BD49
:102B18000020704700480258002800F0398338B573
:102B28000446036813F0010F25D0944A136903F093
:102B38003803926A102B15D0182B0FD06368B3F5A1
:102B4800803F3FD0002B53D18C4B1A6822F480323F
:102B58001A601A6822F480221A6038E002F0030230
:102B6800022AEBD1854B1B6813F4003F03D063683E
:102B7800002B00F00F83236813F0020F00F0A180F0
:102B88007E4A1369926A13F038035AD0182B55D02D
:102B9800E368002B00F0DE8078490A6822F0190209
:102BA80013430B60FEF70CFC0546744B1B6813F0CF
:102BB800040F40F0AD80FEF703FC401B0228F4D957
:102BC8000320EEE26D4A136843F4803313606368B0
:102BD8002BB3FEF7F5FB0546684B1B6813F4003F63
:102BE800C9D1FEF7EDFB401B6428F5D90320D8E2D4
:102BF800B3F5A02F09D0614B1A6822F480321A600D
:102C08001A6822F480221A60E1E75C4B1A6842F4E1
:102C180080221A601A6842F480321A60D7E7FEF7F9
:102C2800CFFB0546554B1B6813F4003FA3D0FEF7B6
:102C3800C7FB401B6428F5D90320B2E212F0030F4A
:102C4800A6D14E4B1B6813F0040F03D0E368002B8A
:102C580000F0A282494A136823F01903E1680B4384
:102C68001360FEF7ADFB0546444B1B6813F0040FD9
:102C780006D1FEF7A5FB401B0228F5D9032090E2F8
:102C8800FEF7B8FB41F20303984212D82269402AA2
:102C980007D03A494B6823F47C3343EA02334B604C
:102CA8000FE0364A536823F47C3343F4003353600F
:102CB80007E0324A536823F0FE43216943EA01637F
:102CC8005360236813F0100F00F088802B4A1369B3
:102CD80003F03803926A082B56D0182B50D0E369BA
:102CE800002B00F0B880254A136843F08003136076
:102CF800FEF766FB0546214B1B6813F4807F40F006
:102D08008880FEF75DFB401B0228F4D9032048E2C7
:102D1800FEF770FB41F20303984212D82269402A59
:102D280007D016494B6823F47C3343EA02334B60DF
:102D3800C7E7124A536823F47C3343F400335360E3
:102D4800BFE70E4A536823F0FE43216943EA016353
:102D58005360B6E7094A136823F001031360FEF7CE
:102D68002FFB0546054B1B6813F0040FA9D0FEF78F
:102D780027FB401B0228F5D9032012E20044025821
:102D880002F00302012AAAD1A14B1B6813F4807F29
:102D980003D0E369802B40F00182FEF72BFB41F260
:102DA8000303984212D8226A202A07D098494B6810
:102DB80023F0F84343EA82634B600FE0944A536878
:102DC80023F0F84343F08043536007E0904AD36808
:102DD80023F07C53216A43EA0163D360236813F02C
:102DE800080F60D06369002B49D0894A536F43F0BC
:102DF80001035367FEF7E4FA0546854B5B6F13F052
:102E0800020F50D1FEF7DCFA401B0228F5D9032047
:102E1800C7E1FEF7EFFA41F20303984212D8226A9B
:102E2800202A07D07A494B6823F0F84343EA8263A3
:102E38004B60D3E7764A536823F0F84343F0804366
:102E48005360CBE7724AD36823F07C53216A43EA84
:102E58000163D360C2E76E4A136823F080031360EE
:102E6800FEF7AEFA05466A4B1B6813F4807FB5D0AF
:102E7800FEF7A6FA401B0228F5D9032091E1644A1F
:102E8800536F23F001035367FEF79AFA0546604B28
:102E98005B6F13F0020F06D0FEF792FA401B022870
:102EA800F5D903207DE1236813F0200F29D0A36909
:102EB8009BB1574A136843F480531360FEF780FAB6
:102EC8000546534B1B6813F4005F1AD1FEF778FAD6
:102ED800401B0228F5D9032063E14D4A136823F407
:102EE80080531360FEF76CFA0546494B1B6813F4D0
:102EF800005F06D0FEF764FA401B0228F5D90320CC
:102F08004FE1236813F0040F21D1636A002B00F00E
:102F180047813F4A126902F03802182A00F0EE8011
:102F2800022B79D03A4A136823F080731360FEF7B6
:102F380047FA0446364B1B6813F0007F00F0DC802C
:102F4800FEF73EFA001B0228F4D9032029E1314A92
:102F5800136843F480731360FEF732FA05462D4B6D
:102F68001B6813F4807F06D1FEF72AFA401B6428F9
:102F7800F5D9032015E1A368012B0AD00BBB244B1C
:102F88001A6F22F001021A671A6F22F004021A67F8
:102F980004E01F4A136F43F001031367A36833B3B8
:102FA800FEF70EFA05461A4B1B6F13F0020FACD151
:102FB800FEF706FA401B41F288339842F3D9032002
:102FC800EFE0052B09D0124B1A6F22F001021A67A5
:102FD8001A6F22F004021A67E0E70D4B1A6F42F0ED
:102FE80004021A671A6F42F001021A67D6E7FEF761
:102FF800E7F90546064B1B6F13F0020F85D0FEF765
:10300800DFF9401B41F288339842F3D90320C8E026
:103018000044025800480258694A136823F0807334
:103028001360FEF7CDF90546654B1B6813F0007F6A
:1030380006D0FEF7C5F9401B0228F5D90320B0E0F9
:103048005F4B996A5F4A0A40A16AE06A41EA001147
:103058000A439A62226B013AC2F30802616B013992
:10306800490289B20A43A16B0139090401F4FE013E
:103078000A43E16B0139090601F0FE410A431A636C
:10308800DA6A22F00102DA62596B4F4A0A40A16CEF
:1030980042EAC1025A63DA6A22F00C02216C0A433E
:1030A800DA62DA6A22F00202616C0A43DA62DA6AE8
:1030B80042F48032DA62DA6A42F40032DA62DA6AB8
:1030C80042F48022DA62DA6A42F00102DA621A68AD
:1030D80042F080721A60FEF773F90446384B1B6899
:1030E80013F0007F06D1FEF76BF9001B0228F5D913
:1030F800032056E0002054E0002052E0304A916A54
:10310800106B012B4ED001F00303A26A93424BD1FE
:10311800C1F30511E36A994248D1C0F30802236B51
:10312800013B9A4244D1C0F34622636B013B9A4269
:1031380040D1C0F30642A36B013B9A423CD1C0F395
:103148000660E36B013B984238D11D4B5B6BC3F3C0
:10315800CC03A26C9A4201D1002022E0184AD36A1B
:1031680023F00103D362FEF72BF90546FEF728F991
:10317800A842FBD0124A516B134B0B40A16C43EA97
:10318800C1035363D36A43F00103D362002008E00C
:1031980001207047012004E0012002E0012000E046
:1031A800002038BD0120FCE70120FAE70120F8E7FC
:1031B8000120F6E70120F4E70120F2E70120F0E71B
:1031C800004402580CFCFFFF0700FFFFF8B57E4BD8
:1031D8001B6903F03803102B00F0F280182B10D075
:1031E80013B17A4C2046F8BD774B1B6813F0200FBB
:1031F80000F0E880744B1868C0F3C100744CC440F8
:10320800F0E7714B9D6A05F003059C6AC4F3051449
:10321800D86A00F001005B6BC3F3CC0303FB00F03A
:10322800FDF730F90646002CDCD0012D76D0022DB2
:1032380000F0A4800DB32046FDF724F90146654847
:10324800FDF72CFA0446604B186BC0F30800FDF735
:1032580019F905464FF064513046FDF76BF9014600
:103268002846FDF75FF84FF07E51FDF75BF8014601
:103278002046FDF75FF9044671E0534B1B6813F0D5
:10328800200F29D0504F3B68C3F3C1035048D840A2
:10329800FDF7F8F805462046FDF7F4F801462846FC
:1032A800FDF7FCF90446386BC0F30800FDF7EAF8AF
:1032B80005464FF064513046FDF73CF90146284673
:1032C800FDF730F84FF07E51FDF72CF80146204607
:1032D800FDF730F9044642E02046FDF7D3F80146F1
:1032E8003D48FDF7DBF90446374B186BC0F308007F
:1032F800FDF7C8F805464FF064513046FDF71AF956
:1033080001462846FDF70EF84FF07E51FDF70AF802
:1033180001462046FDF70EF9044620E02046FDF759
:10332800B1F801462B48FDF7B9F90446264B186B4E
:10333800C0F30800FDF7A6F805464FF06451304683
:10334800FDF7F8F801462846FCF7ECFF4FF07E51F0
:10335800FCF7E8FF01462046FDF7ECF804461A4B57
:103368001B6BC3F34623581CFDF78CF80146204617
:10337800FDF794F9FDF72EFA044633E72046FDF7EA
:1033880081F801461548FDF789F904460E4B186B7C
:10339800C0F30800FDF776F805464FF06451304653
:1033A800FDF7C8F801462846FCF7BCFF4FF07E51F0
:1033B800FCF7B8FF01462046FDF7BCF80446CEE707
:1033C800074C0FE7024C0DE70044025800093D0086
:1033D8000090D0030024744A0024744C20BCBE4BD7
:1033E80040787D01002800F0328170B50D46044612
:1033F8009B4B1B6803F00F038B420BD2984A136850
:1034080023F00F030B431360136803F00F038B4281
:1034180040F01F81236813F0040F0CD02269914BF0
:103428009B6903F070039A4205D98E498B6923F092
:1034380070031A438A61236813F0080F0CD062697D
:10344800884BDB6903F070039A4205D98549CB693B
:1034580023F070031A43CA61236813F0100F0CD0CD
:10346800A269804BDB6903F4E0639A4205D97D4980
:10347800CB6923F4E0631A43CA61236813F0200F71
:103488000CD0E269774B1B6A03F070039A4205D9A6
:1034980074490B6A23F070031A430A62236813F015
:1034A800020F0CD0E2686F4B9B6903F00F039A423E
:1034B80005D96C498B6923F00F031A438A61236885
:1034C80013F0010F41D0674A936923F47063A16830
:1034D8000B4393616368022B0AD0032B27D0012B7F
:1034E8002CD0604A126812F0040F06D10120ADE01A
:1034F800126812F4003F00F0AE805A490A6922F0BF
:10350800070213430B61FDF75BFF0646554B1B692A
:1035180003F038036268B3EBC20F16D0FDF750FF13
:10352800801B41F288339842F0D903208EE04D4A3F
:10353800126812F0007FE0D1012087E0494A126842
:1035480012F4807FD9D1012080E0236813F0020FA4
:103558000CD0E268434B9B6903F00F039A4205D2F3
:1035680040498B6923F00F031A438A613C4B1B685F
:1035780003F00F03AB420AD9394A136823F00F034B
:103588002B431360136803F00F03AB4265D1236824
:1035980013F0040F0CD02269324B9B6903F07003BF
:1035A8009A4205D22F498B6923F070031A438A6126
:1035B800236813F0080F0CD062692A4BDB6903F00B
:1035C80070039A4205D22749CB6923F070031A4346
:1035D800CA61236813F0100F0CD0A269214BDB6974
:1035E80003F4E0639A4205D21E49CB6923F4E063F1
:1035F8001A43CA61236813F0200F0CD0E269194BF3
:103608001B6A03F070039A4205D216490B6A23F02D
:1036180070031A430A62FFF7D9FD12498B69C3F395
:103628000323114AD35C03F01F03D8408B6903F0CE
:103638000F03D35C03F01F0320FA03F30B4A136054
:103648000B4B18600B4B1868FDF758FE70BD012036
:1036580070470120FAE70120F8E70120F6E700BFEC
:1036680000200052004402584057009034040024BF
:10367800300400243C04002408B5FFF7A7FD0B4ADA
:103688009369C3F303230A49CB5C03F01F0320FAB1
:1036980003F3926902F00F02885C00F01F0023FA1E
:1036A80000F0044A1060044A136008BD0044025840
:1036B80040570090340400243004002408B5FFF774
:1036C800DBFF054BDB69C3F30213044AD35C03F049
:1036D8001F03D84008BD00BF00440258405700905F
:1036E80008B5FFF7C9FF054BDB69C3F30223044A9A
:1036F800D35C03F01F03D84008BD00BF0044025844
:1037080040570090404B9B6A03F00303032B79D08A
:1037180070B505460E463C4A136823F08063136073
:10372800FDF74EFE0446384B1B6813F0006F06D0B9
:10373800FDF746FE031B022BF5D9032070BD324B63
:103748009A6A22F47C32296842EA01329A626A68EB
:10375800013AC2F30802A9680139490289B20A4349
:10376800E9680139090401F4FE010A4329690139AC
:10377800090601F0FE410A439A63DA6A22F0C002A0
:1037880069690A43DA62DA6A22F02002A9690A43FF
:10379800DA62DA6A22F01002DA62D96B1B4A0A404E
:1037A800E96942EAC102DA63DA6A42F01002DA62CF
:1037B800C6B91A46DB6A43F40023D362124A136877
:1037C80043F080631360FDF7FBFD04460E4B1B6856
:1037D80013F0006F14D1FDF7F3FD001B0228F5D993
:1037E8000320ABE7012E05D0074AD36A43F4001340
:1037F800D362E3E7044AD36A43F48013D362DDE774
:1038080000209BE701207047004402580700FFFF93
:10381800404B9B6A03F00303032B79D070B5054630
:103828000E463C4A136823F080531360FDF7C8FD29
:103838000446384B1B6813F0005F06D0FDF7C0FD47
:10384800031B022BF5D9032070BD324B9A6A22F074
:103858007C72296842EA01529A626A68013AC2F3A4
:103868000802A9680139490289B20A43E96801399D
:10387800090401F4FE010A4329690139090601F026
:10388800FE410A431A64DA6A22F4406269690A430B
:10389800DA62DA6A22F40072A9690A43DA62DA6A39
:1038A80022F48072DA62596C1B4A0A40E96942EADA
:1038B800C1025A64DA6A42F48072DA62C6B91A46F8
:1038C800DB6A43F48003D362124A136843F08053DF
:1038D8001360FDF775FD04460E4B1B6813F0005F7F
:1038E80014D1FDF76DFD001B0228F5D90320ABE7C5
:1038F800012E05D0074AD36A43F08073D362E3E709
:10390800044AD36A43F40003D362DDE700209BE74F
:1039180001207047004402580700FFFFF8B504462D
:10392800036813F0006F30D0836EB3F5001F26D004
:103938000ED8EBB1B3F5801F07D102210830FFF78D
:10394800E1FE054645B12E4621E0012635461EE03A
:10395800B3F5401F09D10025984A136D23F440138D
:10396800A16E0B431365002611E0012635460EE0D3
:10397800924AD36A43F40033D3620025ECE702216C
:103988002830FFF745FF0546DCE700263546236863
:1039980013F4807F14D0A36D042B32D8DFE803F032
:1039A80003232A080800854AD36A43F40033D36204
:1039B80055BB824A136D23F00703A16D0B431365B2
:1039C800236813F4007F31D0E36D802B4CD020D8CE
:1039D800002B43D0402B19D1002104F10800FFF738
:1039E80091FE05461AE0002104F10800FFF78AFE5F
:1039F8000546DDE7002104F12800FFF709FF054629
:103A0800D6E701263546DBE72E46D9E701263546B7
:103A18000CE0C02B02D0B3F5807F1CD15DBB674A98
:103A2800136D23F4E073E16D0B431365236813F4FE
:103A3800806F46D0D4F8A830B3F5800F39D01FD89E
:103A48008BB3B3F5001F18D1002104F10800FFF76C
:103A580059FE05461AE001263546E7E7574AD36A74
:103A680043F40033D362D9E7002104F12800FFF7BB
:103A7800CFFE0546D2E72E46D8E70126354620E098
:103A8800B3F5C00F02D0B3F5000F09D1C5B94B4A41
:103A9800936D23F46003D4F8A8100B43936510E0EA
:103AA800012635460DE0454AD36A43F40033D36214
:103AB800ECE7002104F12800FFF7AAFE0546E5E738
:103AC8002E46236813F4006F24D0D4F8AC30B3F139
:103AD800007F42D00ED8002B39D0B3F1807F06D1B9
:103AE800002104F10800FFF70DFE054608E0012655
:103AF80035460FE0B3F1407F02D0B3F1806F23D198
:103B0800002D31D12D4A936D23F0E063D4F8AC1029
:103B18000B439365236813F0007F2ED0E36C202BB2
:103B280040D026D833B1102B20D1244AD36A43F48D
:103B38000033D362002D3CD1204AD36C23F03003EC
:103B4800E16C0B43D36418E001263546E2E71B4AD3
:103B5800D36A43F40033D362D2E7002104F128008A
:103B6800FFF756FE0546CBE72E46D3E70126354636
:103B780003E0302BDED001263546236813F4805F3E
:103B88002DD0236EB3F5005F4FD019D8002B46D047
:103B9800B3F5805F0FD1002104F10800FFF7B2FDF3
:103BA800054613E0022104F10800FFF7ABFD0546C6
:103BB800C0E72E46E1E70126354610E000440258EA
:103BC800B3F5405F02D0B3F5804F25D1002D33D136
:103BD800774A136D23F4E043216E0B431365236882
:103BE80013F4005F38D0636EB3F5003F53D028D884
:103BF80043B1B3F5803F21D1012104F10800FFF75B
:103C080081FD0546002D4DD1694A136D23F4E0234B
:103C1800616E0B4313651FE001263546DFE7644AF2
:103C2800D36A43F40033D362D0E7002104F12800BB
:103C3800FFF7EEFD0546C9E72E46D0E701263546D3
:103C48000AE0B3F5802FDDD0B3F5A02FDAD0B3F5B5
:103C5800403FD7D001263546236813F4804F31D032
:103C6800D4F8B030B3F1005F45D020D843B1B3F1F8
:103C7800805F19D1012104F10800FFF743FD0546D3
:103C8800002D3FD14A4A936D23F0E043D4F8B01099
:103C98000B43936516E0012104F12800FFF7B8FDF6
:103CA8000546AFE72E46D7E7012635460AE0B3F1C9
:103CB800804FE5D0B3F1A04FE2D0B3F1405FDFD041
:103CC80001263546236813F4004F09D0236FB3F15A
:103CD800805F19D0B3F1005F24D0D3B101263546F7
:103CE800236813F0807F33D0A36C032B5BD8DFE805
:103CF80003F027225327012104F12800FFF788FD4C
:103D08000546BDE72E46DDE7294AD36A43F400336A
:103D1800D36275B9264A136D23F04053216F0B43C4
:103D28001365DDE7012104F10800FFF7EBFC054608
:103D3800EFE72E46D4E71E4AD36A43F40033D36232
:103D4800A5BB1B4AD36C23F00303A16C0B43D364BC
:103D5800236813F4800F2DD1236813F0010F00F0AE
:103D6800A580E36F282B00F29F80DFE803F08D9D8C
:103D78009D9D9D9D9D9D879D9D9D9D9D9D9D969D88
:103D88009D9D9D9D9D9D8D9D9D9D9D9D9D9D8D9D7B
:103D98009D9D9D9D9D9D8D00022104F10800FFF7CA
:103DA800B1FC0546CCE701263546D1E72E46CFE7DC
:103DB80000440258914A136843F480731360FDF776
:103DC800FFFA07468D4B1B6813F4807F05D1FDF77A
:103DD800F7FAC01B6428F5D90325002D4AD1884B72
:103DE8001B6FD4F8B420534013F4407F0CD0844B9D
:103DF8001A6F22F44072196F41F480311967196FF4
:103E080021F4803119671A67D4F8B430B3F5807F8C
:103E180015D08DBBD4F8B43003F44072B2F5407FAE
:103E28001ED0774A136923F47C53136174490B6FCE
:103E3800D4F8B420C2F30B0213430B678CE7FDF7E9
:103E4800BFFA07466E4B1B6F13F0020FE1D1FDF767
:103E5800B7FAC01B41F288339842F3D90325D8E753
:103E68006748026922F47C52664901EA1313134336
:103E78000361DBE72E466FE72E466DE7012104F16B
:103E88000800FFF73FFC0546E5B95D4A536D23F08E
:103E98003803E16F0B43536508E0012104F1280062
:103EA800FFF7B6FC0546EFE701263546236813F011
:103EB800020F17D0A36F052B28D8DFE803F00B05F6
:103EC800200B0B0B2E46F1E7012104F10800FFF748
:103ED80019FC0546EDB94A4A536D23F00703A16F53
:103EE8000B435365236813F0040F23D0D4F89430A0
:103EF800052B45D8DFE803F0150F3D1515150121F1
:103F080004F12800FFF784FC0546E3E7012635465F
:103F1800E8E72E46E6E7012104F10800FFF7F2FB87
:103F2800054685BB364A936D23F00703D4F89410F1
:103F38000B439365236813F0200F34D0D4F89030E6
:103F4800B3F1005F4ED023D843B1B3F1805F1CD1E9
:103F5800002104F10800FFF7D5FB0546002D48D1E4
:103F6800274A536D23F0E043D4F890100B43536570
:103F780019E0012104F12800FFF74AFC0546D0E7C3
:103F880001263546D6E72E46D4E7012635460AE00F
:103F9800B3F1804FE2D0B3F1A04FDFD0B3F1405F6F
:103FA800DCD001263546236813F0400F37D0D4F80B
:103FB8009C30B3F5006F53D026D843B1B3F5806F6A
:103FC80019D1002104F10800FFF79CFB0546002DDC
:103FD8004DD10B4A936D23F4E053D4F89C100B4356
:103FE80093651CE0022104F12800FFF711FC054647
:103FF800B4E72E46D7E70126354610E000480258B8
:1040080000440258CFFFFF00B3F5805FDFD0B3F55F
:10401800A05FDCD0B3F5406FD9D0012635462368C0
:1040280013F0800F33D0D4F8A030B3F5804F00F0F0
:10403800A38021D843B1B3F5005F1AD1002104F160
:104048000800FFF75FFB0546002D40F09C80814A81
:10405800936D23F46043D4F8A0100B43936516E0E6
:10406800022104F12800FFF7D3FB0546AFE72E46EF
:10407800D5E7012635460AE0B3F5004FE4D0B3F59D
:10408800204FE1D0B3F5C04FDED001263546236876
:1040980013F0080F0CD0D4F88430B3F5805F74D0D7
:1040A8006C4A536D23F44053D4F884100B43536582
:1040B800236813F0100F0CD0D4F89830B3F5807F34
:1040C8006CD0644A936D23F44073D4F898100B4372
:1040D8009365236813F4002F0BD0D4F8A430B3F5FC
:1040E800803F74D0B3F5003F67D0002B5FD0012626
:1040F8003546236813F4802F0CD0D4F88830B3F5F4
:10410800001F7CD0B3F5401F6FD0B3F5801F67D078
:1041180001263546236813F4803F08D0236D002B11
:1041280076D0B3F5803F00F08180012635462368BC
:1041380013F0005F40F08380236813F4003F00F021
:104148008E80D4F88030B3F5807F00F0EC8040F2A8
:104158008380B3F5007F03D0B3F5407F40F0E18062
:10416800002D40F0E6803B4A536D23F44073D4F8A9
:1041780080100B43536572E0022104F12800FFF719
:1041880047FB054660E72E4681E7022104F1280037
:10419800FFF73EFB002883D0012681E7022104F1C6
:1041A8002800FFF735FB00288BD0012689E700217E
:1041B80004F10800FFF7A6FA05467DB9254A936D74
:1041C80023F44033D4F8A4100B43936591E70221FC
:1041D80004F12800FFF71CFB0546EEE72E4688E7AA
:1041E8001C4AD36A43F40033D3627DB9194A536D2C
:1041F80023F44013D4F888100B4353658AE7012150
:1042080004F12800FFF704FB0546EEE72E4681E798
:10421800104AD36A43F40033D36275B90D4AD36C9C
:1042280023F48033216D0B43D36480E7022104F12A
:104238000800FFF767FA0546EFE72E4677E7022101
:1042480004F12800FFF7E4FA00283FF475AF0126CF
:1042580072E700BF00440258002B81D00126236872
:1042680013F4801F06D04F4A136D23F00043616F8B
:104278000B431365236813F0805F07D0494A13691D
:1042880023F48043D4F8B8100B431361236813F464
:10429800001F06D0434A136D23F08073E16E0B4371
:1042A8001365236813F0804F09D03E4B1A6922F436
:1042B80000421A611A69D4F8BC100A431A612368CB
:1042C800002B06DA374AD36C23F04053616D0B4359
:1042D800D364236813F4000F07D0324A536D23F4D4
:1042E8004003D4F88C100B435365636813F0010F37
:1042F80021D1636813F0020F26D1636813F0040F0D
:104308002BD1636813F0080F30D1636813F0100FD6
:1043180035D1636813F0200F3AD106B10126304633
:10432800F8BD01269BE71F4AD36A43F40033D362E2
:1043380016E72E4693E7002104F10800FFF7E2F99B
:104348000028D6D00646D4E7012104F10800FFF77B
:10435800D9F90028D1D00646CFE7022104F1080098
:10436800FFF7D0F90028CCD00646CAE7002104F1AF
:104378002800FFF74DFA0028C7D00646C5E70121F7
:1043880004F12800FFF744FA0028C2D00646C0E727
:10439800022104F12800FFF73BFA0028BDD00646A9
:1043A800BBE700BF0044025808B5FFF765F9054BA5
:1043B8001B6AC3F30213044AD35C03F01F03D840FB
:1043C80008BD00BF00440258405700902DE9F04155
:1043D8000446864B9D6A9E6AC6F30536D86AC0F3C2
:1043E8000010DB6BC3F3CC0303FB00F0FCF74AF8C7
:1043F800002E00F0F58005F003050746012D79D061
:10440800022D00F0CB800DB33046FCF73BF8014697
:104418007748FCF743F90546744B986BC0F30800DE
:10442800FCF730F806464FF064513846FCF782F83E
:1044380001463046FBF776FF4FF07E51FBF772FFDF
:1044480001462846FCF776F8054674E0674B1B687A
:1044580013F0200F2CD0DFF89481D8F80030C3F384
:10446800C1036448D840FCF70DF805463046FCF710
:1044780009F801462846FCF711F90546D8F838002E
:10448800C0F30800FBF7FEFF06464FF064513846BC
:10449800FCF750F801463046FBF744FF4FF07E51D9
:1044A800FBF740FF01462846FCF744F8054642E082
:1044B8003046FBF7E7FF01464F48FCF7EFF80546A3
:1044C8004A4B986BC0F30800FBF7DCFF06464FF039
:1044D80064513846FCF72EF801463046FBF722FFB8
:1044E8004FF07E51FBF71EFF01462846FCF722F8E5
:1044F800054620E03046FBF7C5FF01463C48FCF77F
:10450800CDF80546394B986BC0F30800FBF7BAFFA6
:1045180006464FF064513846FCF70CF80146304621
:10452800FBF700FF4FF07E51FBF7FCFE01462846E3
:10453800FCF700F805462D4EB06BC0F34620FBF79C
:10454800A1FF4FF07E51FBF7EDFE01462846FCF730
:10455800A5F8FCF73FF92060B06BC0F30640FBF705
:1045680091FF4FF07E51FBF7DDFE01462846FCF730
:1045780095F8FCF72FF96060B06BC0F30660FBF7A5
:1045880081FF4FF07E51FBF7CDFE01462846FCF730
:1045980085F8FCF71FF9A060BDE8F0813046FBF70D
:1045A80071FF01461548FCF779F805460F4B986BE3
:1045B800C0F30800FBF766FF06464FF06451384623
:1045C800FBF7B8FF01463046FBF7ACFE4FF07E51D3
:1045D800FBF7A8FE01462846FBF7ACFF0546AAE70D
:1045E800002323606360A360D6E700BF004402583D
:1045F8000024744A0090D0030024744C20BCBE4BA5
:104608002DE9F0410446864B9D6A9E6AC6F305561D
:10461800D86AC0F300205B6CC3F3CC0303FB00F043
:10462800FBF730FF002E00F0F58005F00305074684
:10463800012D79D0022D00F0CB800DB33046FBF769
:1046480021FF01467748FCF729F80546744B186C9A
:10465800C0F30800FBF716FF06464FF064513846D2
:10466800FBF768FF01463046FBF75CFE4FF07E51D2
:10467800FBF758FE01462846FBF75CFF054674E049
:10468800674B1B6813F0200F2CD0DFF89481D8F803
:104698000030C3F3C1036448D840FBF7F3FE054676
:1046A8003046FBF7EFFE01462846FBF7F7FF0546C5
:1046B800D8F84000C0F30800FBF7E4FE06464FF0C8
:1046C80064513846FBF736FF01463046FBF72AFEB1
:1046D8004FF07E51FBF726FE01462846FBF72AFFDE
:1046E800054642E03046FBF7CDFE01464F48FBF752
:1046F800D5FF05464A4B186CC0F30800FBF7C2FE0D
:1047080006464FF064513846FBF714FF0146304621
:10471800FBF708FE4FF07E51FBF704FE01462846E2
:10472800FBF708FF054620E03046FBF7ABFE0146E5
:104738003C48FBF7B3FF0546394B186CC0F308003B
:10474800FBF7A0FE06464FF064513846FBF7F2FE31
:1047580001463046FBF7E6FD4FF07E51FBF7E2FDE0
:1047680001462846FBF7E6FE05462D4E306CC0F3A1
:104778004620FBF787FE4FF07E51FBF7D3FD01463D
:104788002846FBF78BFFFCF725F82060306CC0F358
:104798000640FBF777FE4FF07E51FBF7C3FD01465D
:1047A8002846FBF77BFFFCF715F86060306CC0F318
:1047B8000660FBF767FE4FF07E51FBF7B3FD01463D
:1047C8002846FBF76BFFFCF705F8A060BDE8F08111
:1047D8003046FBF757FE01461548FBF75FFF0546D5
:1047E8000F4B186CC0F30800FBF74CFE06464FF061
:1047F80064513846FBF79EFE01463046FBF792FDB2
:104808004FF07E51FBF78EFD01462846FBF792FEDE
:104818000546AAE7002323606360A360D6E700BFCC
:10482800004402580024744A0090D0030024744CB9
:1048380020BCBE4B026852E8003F23F4907342E864
:1048480000310029F6D1026802F1080353E8001F7D
:104858000D4B0B40083242E800310029F3D1C36EFA
:10486800012B06D02023C0F88C300023C366436791
:104878007047026852E8003F23F0100342E8003115
:104888000029F6D1EEE700BFFEFFFFEF704708B53D
:10489800026852E8003F23F0400342E80031002953
:1048A800F6D12023C0F8883000238367FFF7EEFF96
:1048B80008BD704708B5806B0023A0F85E30A0F8EB
:1048C8005630FFF7F6FF08BD7047000070B5044684
:1048D8000168CB6908688D6840F60F021A4008D154
:1048E80013F0200F05D010F0200F34D115F0805FA1
:1048F80031D12AB18B4A2A4033D18B4E304230D144
:10490800E26E012A00F0C68013F4801F03D015F46C
:10491800800F40F09B8113F0800F07D010F0800FBC
:1049280040F09B8115F4000F40F0978113F0400F81
:1049380003D010F0400F40F0978113F4000F03D01C
:1049480010F0804F40F0948113F0807F02D000284F
:10495800C0F2928170BD636F002BFBD02046984750
:10496800F8E713F0010F09D010F4807F06D0012674
:104978000E62D4F890103143C4F8901013F0020F6F
:104988000BD015F0010F08D0216802260E62D4F86A
:10499800901041F00401C4F8901013F0040F0BD0EC
:1049A80015F0010F08D0216804260E62D4F8901083
:1049B80041F00201C4F8901013F0080F0BD010F06A
:1049C800200F00D13AB1226808211162D4F8902052
:1049D8000A43C4F8902013F4006F0CD010F0806FD5
:1049E80009D022684FF400611162D4F8902042F097
:1049F8002002C4F89020D4F89020002AAAD013F0FE
:104A0800200F09D010F0200F02D115F0805F03D0DD
:104A1800636F0BB120469847D4F8902023689B68B1
:104A280013F0400F02D112F0280F2CD02046FFF7C8
:104A380001FF23689B6813F0400F20D0226802F121
:104A4800080353E8003F23F04003083242E80031EE
:104A58000029F3D1D4F880306BB1344A1A65D4F800
:104A68008000FDF731FA00283FF474AFD4F88000D5
:104A7800036D98476EE72046FFF71BFF6AE720465D
:104A8800FFF717FF66E72046FFF713FF0023C4F878
:104A980090305FE713F0100F3FF436AF10F0100FAF
:104AA8003FF432AF10230B6223689B6813F0400F6A
:104AB80000F09280D4F8802013681D481D498B426D
:104AC80018BF834238D018318B4235D018318B4209
:104AD80032D018318B422FD018318B422CD018315C
:104AE8008B4229D018318B4226D001F556718B4262
:104AF80022D018318B421FD018318B421CD018316C
:104B08008B4219D018318B4216D018318B4213D0F2
:104B180018318B4210D018318B420DD05B689BB294
:104B28000CE000BF0100001020010004BD48009007
:104B380010000240280002405B689BB2002B3FF443
:104B480009AFB4F85C1099427FF604AFA4F85E3060
:104B5800D369B3F5807F32D0226852E8003F23F44E
:104B6800807342E800310029F6D1226802F1080377
:104B780053E8003F23F00103083242E800310029DE
:104B8800F3D1226802F1080353E8003F23F0400301
:104B9800083242E800310029F3D12023C4F88C30D0
:104BA8000023E366226852E8003F23F0100342E83E
:104BB80000310029F6D1D4F88000FCF7E5FF022384
:104BC8002367B4F85C10B4F85E309BB2C91A89B296
:104BD8002046FFF779FEBDE6B4F85C10B4F85E3005
:104BE8009BB2C91A89B2B4F85E309BB2002B3FF46D
:104BF800B1AE00293FF4AEAE226852E8003F23F47C
:104C0800907342E800300028F6D1226802F10803C8
:104C180053E8000F1A4B0340083242E800300028DE
:104C2800F3D12023C4F88C300023E366636722683D
:104C380052E8003F23F0100342E800300028F6D184
:104C4800022323672046FFF73FFE83E64FF48013D5
:104C58000B62204600F0E8FC7CE6A36F002B3FF4D3
:104C680079AE2046984775E62046FFF710FE71E6B4
:104C7800204600F0DBFC6DE6204600F0D6FC69E635
:104C8800FEFFFFEF70B586B00446016883680269CD
:104C9800134342691343C26913430868884A0240B0
:104CA80013430B602268536823F44053E1680B43B5
:104CB8005360A1692268834B9A4201D0236A194341
:104CC8009068814B03400B4393602268D36A23F0BA
:104CD8000F03616A0B43D36222687C4B9A4221D04E
:104CE8007B4B9A4200F08C807A4B9A4200F0A2806B
:104CF800794B9A4200F0B580784B9A4200F0C88010
:104D0800774B9A4200F0F480764B9A4200F0198172
:104D1800754B9A4200F02C816A4B9A4200F03F8111
:104D2800802333E0714B5B6D03F03803282B65D883
:104D3800DFE813F029006400640064006400640084
:104D4800640064004D016400640064006400640051
:104D5800640064002B006400640064006400640064
:104D6800640064005E006400640064006400640021
:104D7800640064006000640064006400640064000F
:104D8800640064006200012300E008234D498A4260
:104D980000F02F81E069B0F5004F00F0AF81202BC3
:104DA80000F20782202B00F25182DFE813F01E0286
:104DB80024024F024F0227024F024F024F022C02D9
:104DC8004F024F024F024F024F024F024F02310271
:104DD8004F024F024F024F024F024F024F024F0243
:104DE8004F024F024F024F024F024F024F023D0245
:104DF8001023CBE72023C9E74023C7E78023C5E773
:104E08003A4B5B6D03F00703052B11D8DFE813F06D
:104E18000600E10008000A000C000E000023B5E7B8
:104E28000823B3E71023B1E72023AFE74023ADE71A
:104E38008023ABE72D4B5B6D03F00703052B0ED8E2
:104E4800DFE803F003C90507090B00239EE70823E1
:104E58009CE710239AE7202398E7402396E78023CE
:104E680094E7224B5B6D03F00703052B0ED8DFE8B0
:104E780003F003B40507090B002387E7082385E738
:104E8800102383E7202381E740237FE780237DE702
:104E9800164B5B6D03F00703052B0ED8DFE803F014
:104EA800039F0507090B002370E708236EE710230B
:104EB8006CE720236AE7402368E7802366E700BFA2
:104EC800F369FFCF000C0058FFF4FF1100100140F8
:104ED8000044004000480040004C004000500040A2
:104EE8000014014000780040007C00400044025853
:104EF8007D4B5B6D03F03803282B20D8DFE803F0E7
:104F0800151F1F1F1F1F1F1F711F1F1F1F1F1F1F61
:104F1800171F1F1F1F1F1F1F191F1F1F1F1F1F1FA7
:104F28001B1F1F1F1F1F1F1F1D0001232EE7082304
:104F38002CE710232AE7202328E7402326E78023AD
:104F480024E7694B5B6D03F00703052B0ED8DFE8F8
:104F580003F0034A0507090B002317E7082315E7A1
:104F6800102313E7202311E740230FE780230DE7E1
:104F78005D4B5B6D03F00703052B0ED8DFE803F0EC
:104F880003350507090B002300E70823FEE6102375
:104F9800FCE62023FAE64023F8E68023F6E603F54C
:104FA8000E339B6D03F00703052B0ED8DFE803F0E3
:104FB800031F0507090B0223E8E60823E6E610238A
:104FC800E4E62023E2E64023E0E68023DEE604234D
:104FD800DCE60423DAE60423D8E60423D6E6042331
:104FE800D4E60423D2E60423D0E60423CEE6042341
:104FF800CCE6202B27D8022BC0F01A81023B1E2BAF
:1050080000F21881DFE813F050001601560016016F
:10501800160116015B00160116011601160116018C
:105028001601160160001601160116011601160177
:1050380016011601160116011601160116011601B0
:10504800160116016C00402B2CD14FF40040626A07
:10505800264B33F81220B0FBF2F3656805EB4501E7
:10506800994200F2E980B3EB053F00F2E7800026A1
:1050780033463146FBF7CEFB090241EA10610002D4
:105088006B08C0182A46334641F10001FBF7C2FB02
:10509800A0F54072164B9A4200F2D2802368D8607D
:1050A8003046D4E00120D2E0FFF77EF90028CED1C7
:1050B8000020CCE003A8FFF789F90498F6E76846D2
:1050C800FFF79EFA0198F1E7074B1B6813F0200FD2
:1050D80008D0054B1B68C3F3C1030648D840E5E771
:1050E8000548B4E70348B2E700440258585700900F
:1050F800FFFC0F000090D00300093D00202B15D8BD
:10510800202B00F29F80DFE803F031379D9D3A9D08
:105118009D9D3F9D9D9D9D9D9D9D449D9D9D9D9D6E
:105128009D9D9D9D9D9D9D9D9D9D5000402B1BD1AE
:10513800626A4D4B33F81230B0FBF3F062685308E3
:1051480003EB4000B0FBF2F0A0F110024FF6EF7352
:105158009A4279D883B223F00F03C0F34200184370
:105168002368D860002072E0012070E0FEF7A6FAFC
:105178000028DDD100206AE0FEF7B2FAF8E703A8BC
:10518800FFF724F90498F3E76846FFF739FA01981E
:10519800EEE7364B1B6813F0200F08D0334B1B6823
:1051A800C3F3C1033248D840E2E73248C0E7304889
:1051B800BEE7402B17D14FF40040626A2A4B33F800
:1051C8001230B0FBF3F0636800EB5300B0FBF3F070
:1051D800A0F110024FF6EF739A4242D8236880B2CA
:1051E800D860002033E0012031E0FEF767FA00289C
:1051F800E3D100202BE0FEF773FAF8E703A8FFF7E6
:10520800E5F80498F3E76846FFF7FAF90198EEE73E
:10521800164B1B6813F0200F08D0144B1B68C3F300
:10522800C1031348D840E2E71248C6E71048C4E76C
:1052380001200CE001200AE0012008E0012006E03E
:10524800012004E0012002E0012000E00120012308
:10525800A4F86A30A4F8683000236367A36706B02F
:1052680070BD0120F3E700BF585700900044025872
:105278000090D00300093D00836A13F0010F06D0A7
:105288000268536823F40033C16A0B435360836A8E
:1052980013F0020F06D00268536823F48033016BC1
:1052A8000B435360836A13F0040F06D002685368F7
:1052B80023F48023416B0B435360836A13F0080F78
:1052C80006D00268536823F40043816B0B43536094
:1052D800836A13F0100F06D00268936823F4805392
:1052E800C16B0B439360836A13F0200F06D00268EA
:1052F800936823F40053016C0B439360836A13F0A3
:10530800400F0AD00268536823F48013416C0B43A2
:105318005360436CB3F5801F0BD0836A13F0800F82
:1053280006D00268536823F40023C16C0B43536012
:1053380070470268536823F4C003816C0B435360C1
:10534800EBE72DE9F84305460F4616469946DDF882
:1053580020802C68E46937EA04030CBF4FF0010C85
:105368004FF0000CB44532D1B8F1FF3FF1D0FCF753
:1053780027F8A0EB090040452CD8B8F1000F2BD036
:105388002B681A6812F0040FE3D0DA6912F0080FDC
:1053980011D1DA6912F4006FDBD04FF400621A629F
:1053A8002846FFF747FA2023C5F89030002385F8F0
:1053B800843003200CE008241C622846FFF73AFAE0
:1053C800C5F89040002385F88430012000E00020D3
:1053D800BDE8F8830320FBE70320F9E72DE9F04156
:1053E80082B01E46D0F88830202B5BD104460D468B
:1053F8009046002A18BF002901D1012053E000235C
:10540800C0F890302123C0F88830FBF7D9FF074651
:10541800A4F85480A4F85680A368B3F5805F02D03E
:105428004FF0000816E0236943B34FF0000811E07D
:105438002023C4F88830032035E038F8023B22687E
:10544800C3F308039362B4F8562092B2013A92B2B9
:10545800A4F85620B4F856309BB293B100963B4658
:10546800002280212046FFF76CFF0028E0D1002DA4
:10547800E3D015F8012B23689A62E4E7A8460025D3
:10548800E8E700963B46002240212046FFF759FFF7
:1054980018B92023C4F8883005E02023C4F88830E0
:1054A800032000E0022002B0BDE8F08130B583B0EF
:1054B80004460023C0F89030FBF782FF05462268B7
:1054C800126812F0080F10D123681B6813F0040F3C
:1054D80028D12023C4F88830C4F88C300020E06636
:1054E800206784F8840003B030BD6FF07E430093DA
:1054F800034600224FF400112046FFF722FF002840
:10550800E2D0226852E8003F23F0800342E80031ED
:105518000029F6D12023C4F88830002384F8843089
:105528000320E0E76FF07E4300932B4600224FF400
:1055380080012046FFF705FF0028CAD0226852E8FC
:10554800003F23F4907342E800310029F6D1226825
:1055580002F1080353E8003F23F00103083242E850
:1055680000310029F3D12023C4F88C30002384F8BB
:1055780084300320B7E778B310B50446D0F88830F4
:105588000BB32423C4F888302268136823F001037E
:1055980013602046FFF776FB012813D0A36ABBB936
:1055A8002268536823F4904353602268936823F079
:1055B8002A0393602268136843F0010313602046AE
:1055C800FFF774FF10BD80F88430FBF7C5FDD8E7FE
:1055D8002046FFF751FEE3E701207047436E2BB9E1
:1055E8000123A0F86A30A0F86830704730B4036827
:1055F8009A68C2F342629968490F094D6B5C1B01B6
:10560800084C615C93FBF1F3A0F86A30AB5C1B01BA
:10561800A25C93FBF2F3A0F8683030BC704700BF7F
:10562800785700907057009070477047704790F80F
:105638008430012B18D0012380F884302423C0F84B
:10564800883003681A68196821F00101196022F08E
:1056580000520023436601680A602022C0F88820AF
:1056680080F88430184670470220704738B590F8A3
:105678008430012B1DD00446012380F88430242374
:10568800C0F8883003681D681A6822F001021A60A1
:105698000268936823F0604319439160FFF79EFF07
:1056A80023681D602023C4F88830002084F8840013
:1056B80038BD0220FCE738B590F88430012B1DD0A6
:1056C8000446012380F884302423C0F88830036816
:1056D8001D681A6822F001021A600268936823F0B4
:1056E800606319439160FFF779FF23681D602023E9
:1056F800C4F88830002084F8840038BD0220FCE714
:10570800024B13B10248FBF707BA704700000000CC
:105718002D0B0090F8B500BFF8BC08BC9E4670473A
:0C572800F8B500BFF8BC08BC9E467047F6
:10573400080000246269756269750A0000000000AF
:1057440001020304010203040607080900061016F7
:1057540000061016010002000400060008000A00FA
:105764000C00100020004000800000010804020426
:0C57740008010101010101030701000010
:08578000CCB0FF7F0100000026
:08578800095700900103009095
:04579000D9020090AA
:10579400080000240000000000000000F4020024BF
:1057A4005C030024C4030024000000000000000087
:1057B40000000000000000000000000000000000E5
:1057C40000000000000000000000000000000000D5
:1057D40000000000000000000000000000000000C5
:1057E40000000000000000000000000000000000B5
:1057F40000000000000000000000000000000000A5
:105804000000000000000000000000000000000094
:105814000000000000000000000000000000000084
:105824000000000000000000000000000000000074
:105834000000000000000000000000000000000064
:1058440001000000000000000E33CDAB34126DE601
:10585400ECDE05000B00000000000000000000006A
:105864000000000000000000000000000000000034
:105874000000000000000000000000000000000024
:105884000000000000000000000000000000000014
:105894000000000000000000000000000000000004
:105BC4000090D0030090D0030100000010000000FA
:04000005900012B1A4
:00000001FF
